{
  "_format": "hh-sol-artifact-1",
  "contractName": "PokemonFactory",
  "sourceName": "contracts/PokemonFactory.sol",
  "abi": [
    {
      "anonymous": false,
      "inputs": [
        {
          "indexed": false,
          "internalType": "uint256",
          "name": "id",
          "type": "uint256"
        },
        {
          "indexed": false,
          "internalType": "string",
          "name": "message",
          "type": "string"
        }
      ],
      "name": "eventNewPokemon",
      "type": "event"
    },
    {
      "inputs": [
        {
          "internalType": "uint256",
          "name": "",
          "type": "uint256"
        }
      ],
      "name": "abilities",
      "outputs": [
        {
          "internalType": "string",
          "name": "name",
          "type": "string"
        },
        {
          "internalType": "string",
          "name": "description",
          "type": "string"
        }
      ],
      "stateMutability": "view",
      "type": "function"
    },
    {
      "inputs": [
        {
          "internalType": "string",
          "name": "_name",
          "type": "string"
        },
        {
          "internalType": "string",
          "name": "_description",
          "type": "string"
        },
        {
          "internalType": "uint256",
          "name": "_id",
          "type": "uint256"
        }
      ],
      "name": "createAbility",
      "outputs": [],
      "stateMutability": "nonpayable",
      "type": "function"
    },
    {
      "inputs": [
        {
          "internalType": "string",
          "name": "_name",
          "type": "string"
        },
        {
          "internalType": "uint256",
          "name": "_id",
          "type": "uint256"
        },
        {
          "internalType": "uint256[]",
          "name": "_abilities",
          "type": "uint256[]"
        },
        {
          "internalType": "uint256[]",
          "name": "_types",
          "type": "uint256[]"
        },
        {
          "internalType": "uint256[]",
          "name": "_weaknesses",
          "type": "uint256[]"
        }
      ],
      "name": "createPokemon",
      "outputs": [],
      "stateMutability": "nonpayable",
      "type": "function"
    },
    {
      "inputs": [
        {
          "internalType": "string",
          "name": "_name",
          "type": "string"
        },
        {
          "internalType": "string",
          "name": "_description",
          "type": "string"
        },
        {
          "internalType": "uint256",
          "name": "_id",
          "type": "uint256"
        }
      ],
      "name": "createType",
      "outputs": [],
      "stateMutability": "nonpayable",
      "type": "function"
    },
    {
      "inputs": [
        {
          "internalType": "string",
          "name": "_name",
          "type": "string"
        },
        {
          "internalType": "string",
          "name": "_description",
          "type": "string"
        },
        {
          "internalType": "uint256",
          "name": "_id",
          "type": "uint256"
        }
      ],
      "name": "createWeakness",
      "outputs": [],
      "stateMutability": "nonpayable",
      "type": "function"
    },
    {
      "inputs": [
        {
          "internalType": "uint256",
          "name": "_id",
          "type": "uint256"
        }
      ],
      "name": "getAbilitiesByPokemonId",
      "outputs": [
        {
          "components": [
            {
              "internalType": "string",
              "name": "name",
              "type": "string"
            },
            {
              "internalType": "string",
              "name": "description",
              "type": "string"
            }
          ],
          "internalType": "struct PokemonFactory.Ability[]",
          "name": "",
          "type": "tuple[]"
        }
      ],
      "stateMutability": "view",
      "type": "function"
    },
    {
      "inputs": [],
      "name": "getAllAbilities",
      "outputs": [
        {
          "components": [
            {
              "internalType": "string",
              "name": "name",
              "type": "string"
            },
            {
              "internalType": "string",
              "name": "description",
              "type": "string"
            }
          ],
          "internalType": "struct PokemonFactory.Ability[]",
          "name": "",
          "type": "tuple[]"
        }
      ],
      "stateMutability": "view",
      "type": "function"
    },
    {
      "inputs": [],
      "name": "getAllPokemonTypes",
      "outputs": [
        {
          "components": [
            {
              "internalType": "string",
              "name": "name",
              "type": "string"
            },
            {
              "internalType": "string",
              "name": "description",
              "type": "string"
            }
          ],
          "internalType": "struct PokemonFactory.PokemonType[]",
          "name": "",
          "type": "tuple[]"
        }
      ],
      "stateMutability": "view",
      "type": "function"
    },
    {
      "inputs": [],
      "name": "getAllPokemonWeaknesses",
      "outputs": [
        {
          "components": [
            {
              "internalType": "string",
              "name": "name",
              "type": "string"
            },
            {
              "internalType": "string",
              "name": "description",
              "type": "string"
            }
          ],
          "internalType": "struct PokemonFactory.PokemonWeakness[]",
          "name": "",
          "type": "tuple[]"
        }
      ],
      "stateMutability": "view",
      "type": "function"
    },
    {
      "inputs": [],
      "name": "getAllPokemons",
      "outputs": [
        {
          "components": [
            {
              "internalType": "uint256",
              "name": "id",
              "type": "uint256"
            },
            {
              "internalType": "string",
              "name": "name",
              "type": "string"
            }
          ],
          "internalType": "struct PokemonFactory.Pokemon[]",
          "name": "",
          "type": "tuple[]"
        }
      ],
      "stateMutability": "view",
      "type": "function"
    },
    {
      "inputs": [
        {
          "internalType": "uint256",
          "name": "_id",
          "type": "uint256"
        }
      ],
      "name": "getTypesByPokemonId",
      "outputs": [
        {
          "components": [
            {
              "internalType": "string",
              "name": "name",
              "type": "string"
            },
            {
              "internalType": "string",
              "name": "description",
              "type": "string"
            }
          ],
          "internalType": "struct PokemonFactory.PokemonType[]",
          "name": "",
          "type": "tuple[]"
        }
      ],
      "stateMutability": "view",
      "type": "function"
    },
    {
      "inputs": [
        {
          "internalType": "uint256",
          "name": "_id",
          "type": "uint256"
        }
      ],
      "name": "getWeaknessesByPokemonId",
      "outputs": [
        {
          "components": [
            {
              "internalType": "string",
              "name": "name",
              "type": "string"
            },
            {
              "internalType": "string",
              "name": "description",
              "type": "string"
            }
          ],
          "internalType": "struct PokemonFactory.PokemonWeakness[]",
          "name": "",
          "type": "tuple[]"
        }
      ],
      "stateMutability": "view",
      "type": "function"
    },
    {
      "inputs": [
        {
          "internalType": "uint256",
          "name": "",
          "type": "uint256"
        }
      ],
      "name": "pokemonToOwner",
      "outputs": [
        {
          "internalType": "address",
          "name": "",
          "type": "address"
        }
      ],
      "stateMutability": "view",
      "type": "function"
    },
    {
      "inputs": [
        {
          "internalType": "uint256",
          "name": "",
          "type": "uint256"
        }
      ],
      "name": "types",
      "outputs": [
        {
          "internalType": "string",
          "name": "name",
          "type": "string"
        },
        {
          "internalType": "string",
          "name": "description",
          "type": "string"
        }
      ],
      "stateMutability": "view",
      "type": "function"
    },
    {
      "inputs": [
        {
          "internalType": "uint256",
          "name": "",
          "type": "uint256"
        }
      ],
      "name": "weaknesses",
      "outputs": [
        {
          "internalType": "string",
          "name": "name",
          "type": "string"
        },
        {
          "internalType": "string",
          "name": "description",
          "type": "string"
        }
      ],
      "stateMutability": "view",
      "type": "function"
    }
  ],
  "bytecode": "0x608060405234801561001057600080fd5b50612ae6806100206000396000f3fe608060405234801561001057600080fd5b50600436106100f55760003560e01c80638d7b002411610097578063cae0d33511610066578063cae0d33514610299578063cefbfa36146102ca578063d8d13661146102fb578063ddf5ba4e14610319576100f5565b80638d7b0024146101fc5780638ffcd7af1461021a578063bb5577261461024a578063bd36735214610268576100f5565b80635e916790116100d35780635e916790146101625780636bcb7544146101805780637e5dc7d51461019c5780638bb46807146101cc576100f5565b80632f7467b3146100fa57806338a5be091461012a5780634c64b9a314610146575b600080fd5b610114600480360381019061010f9190611a14565b610335565b6040516101219190611a82565b60405180910390f35b610144600480360381019061013f9190611be3565b610368565b005b610160600480360381019061015b9190611be3565b610467565b005b61016a610566565b6040516101779190611dfb565b60405180910390f35b61019a60048036038101906101959190611be3565b610661565b005b6101b660048036038101906101b19190611a14565b610760565b6040516101c39190611f23565b60405180910390f35b6101e660048036038101906101e19190611a14565b6109cb565b6040516101f3919061204b565b60405180910390f35b610204610c36565b6040516102119190611f23565b60405180910390f35b610234600480360381019061022f9190611a14565b610db9565b6040516102419190612173565b60405180910390f35b610252611024565b60405161025f9190612173565b60405180910390f35b610282600480360381019061027d9190611a14565b6111a7565b6040516102909291906121df565b60405180910390f35b6102b360048036038101906102ae9190611a14565b6112db565b6040516102c19291906121df565b60405180910390f35b6102e460048036038101906102df9190611a14565b61140f565b6040516102f29291906121df565b60405180910390f35b610303611543565b604051610310919061204b565b60405180910390f35b610333600480360381019061032e91906122de565b6116c6565b005b600a6020528060005260406000206000915054906101000a900473ffffffffffffffffffffffffffffffffffffffff1681565b600081116103ab576040517f08c379a00000000000000000000000000000000000000000000000000000000081526004016103a29061243b565b60405180910390fd5b60006040518060400160405280858152602001848152509050806006600084815260200190815260200160002060008201518160000190816103ed9190612667565b5060208201518160010190816104039190612667565b50905050600281908060018154018082558091505060019003906000526020600020906002020160009091909190915060008201518160000190816104489190612667565b50602082015181600101908161045e9190612667565b50505050505050565b600081116104aa576040517f08c379a00000000000000000000000000000000000000000000000000000000081526004016104a1906127ab565b60405180910390fd5b60006040518060400160405280858152602001848152509050806004600084815260200190815260200160002060008201518160000190816104ec9190612667565b5060208201518160010190816105029190612667565b50905050600181908060018154018082558091505060019003906000526020600020906002020160009091909190915060008201518160000190816105479190612667565b50602082015181600101908161055d9190612667565b50505050505050565b60606000805480602002602001604051908101604052809291908181526020016000905b828210156106585783829060005260206000209060020201604051806040016040529081600082015481526020016001820180546105c79061248a565b80601f01602080910402602001604051908101604052809291908181526020018280546105f39061248a565b80156106405780601f1061061557610100808354040283529160200191610640565b820191906000526020600020905b81548152906001019060200180831161062357829003601f168201915b5050505050815250508152602001906001019061058a565b50505050905090565b600081116106a4576040517f08c379a000000000000000000000000000000000000000000000000000000000815260040161069b9061283d565b60405180910390fd5b60006040518060400160405280858152602001848152509050806008600084815260200190815260200160002060008201518160000190816106e69190612667565b5060208201518160010190816106fc9190612667565b50905050600381908060018154018082558091505060019003906000526020600020906002020160009091909190915060008201518160000190816107419190612667565b5060208201518160010190816107579190612667565b50505050505050565b60606000600960008481526020019081526020016000208054806020026020016040519081016040528092919081815260200182805480156107c157602002820191906000526020600020905b8154815260200190600101908083116107ad575b505050505090506000815167ffffffffffffffff8111156107e5576107e4611ab8565b5b60405190808252806020026020018201604052801561081e57816020015b61080b611912565b8152602001906001900390816108035790505b50905060005b82518110156109c05760008382815181106108425761084161285d565b5b602002602001015190506008600082815260200190815260200160002060405180604001604052908160008201805461087a9061248a565b80601f01602080910402602001604051908101604052809291908181526020018280546108a69061248a565b80156108f35780601f106108c8576101008083540402835291602001916108f3565b820191906000526020600020905b8154815290600101906020018083116108d657829003601f168201915b5050505050815260200160018201805461090c9061248a565b80601f01602080910402602001604051908101604052809291908181526020018280546109389061248a565b80156109855780601f1061095a57610100808354040283529160200191610985565b820191906000526020600020905b81548152906001019060200180831161096857829003601f168201915b5050505050815250508383815181106109a1576109a061285d565b5b60200260200101819052505080806109b8906128bb565b915050610824565b508092505050919050565b6060600060056000848152602001908152602001600020805480602002602001604051908101604052809291908181526020018280548015610a2c57602002820191906000526020600020905b815481526020019060010190808311610a18575b505050505090506000815167ffffffffffffffff811115610a5057610a4f611ab8565b5b604051908082528060200260200182016040528015610a8957816020015b610a7661192c565b815260200190600190039081610a6e5790505b50905060005b8251811015610c2b576000838281518110610aad57610aac61285d565b5b6020026020010151905060046000828152602001908152602001600020604051806040016040529081600082018054610ae59061248a565b80601f0160208091040260200160405190810160405280929190818152602001828054610b119061248a565b8015610b5e5780601f10610b3357610100808354040283529160200191610b5e565b820191906000526020600020905b815481529060010190602001808311610b4157829003601f168201915b50505050508152602001600182018054610b779061248a565b80601f0160208091040260200160405190810160405280929190818152602001828054610ba39061248a565b8015610bf05780601f10610bc557610100808354040283529160200191610bf0565b820191906000526020600020905b815481529060010190602001808311610bd357829003601f168201915b505050505081525050838381518110610c0c57610c0b61285d565b5b6020026020010181905250508080610c23906128bb565b915050610a8f565b508092505050919050565b60606003805480602002602001604051908101604052809291908181526020016000905b82821015610db05783829060005260206000209060020201604051806040016040529081600082018054610c8d9061248a565b80601f0160208091040260200160405190810160405280929190818152602001828054610cb99061248a565b8015610d065780601f10610cdb57610100808354040283529160200191610d06565b820191906000526020600020905b815481529060010190602001808311610ce957829003601f168201915b50505050508152602001600182018054610d1f9061248a565b80601f0160208091040260200160405190810160405280929190818152602001828054610d4b9061248a565b8015610d985780601f10610d6d57610100808354040283529160200191610d98565b820191906000526020600020905b815481529060010190602001808311610d7b57829003601f168201915b50505050508152505081526020019060010190610c5a565b50505050905090565b6060600060076000848152602001908152602001600020805480602002602001604051908101604052809291908181526020018280548015610e1a57602002820191906000526020600020905b815481526020019060010190808311610e06575b505050505090506000815167ffffffffffffffff811115610e3e57610e3d611ab8565b5b604051908082528060200260200182016040528015610e7757816020015b610e64611946565b815260200190600190039081610e5c5790505b50905060005b8251811015611019576000838281518110610e9b57610e9a61285d565b5b6020026020010151905060066000828152602001908152602001600020604051806040016040529081600082018054610ed39061248a565b80601f0160208091040260200160405190810160405280929190818152602001828054610eff9061248a565b8015610f4c5780601f10610f2157610100808354040283529160200191610f4c565b820191906000526020600020905b815481529060010190602001808311610f2f57829003601f168201915b50505050508152602001600182018054610f659061248a565b80601f0160208091040260200160405190810160405280929190818152602001828054610f919061248a565b8015610fde5780601f10610fb357610100808354040283529160200191610fde565b820191906000526020600020905b815481529060010190602001808311610fc157829003601f168201915b505050505081525050838381518110610ffa57610ff961285d565b5b6020026020010181905250508080611011906128bb565b915050610e7d565b508092505050919050565b60606002805480602002602001604051908101604052809291908181526020016000905b8282101561119e578382906000526020600020906002020160405180604001604052908160008201805461107b9061248a565b80601f01602080910402602001604051908101604052809291908181526020018280546110a79061248a565b80156110f45780601f106110c9576101008083540402835291602001916110f4565b820191906000526020600020905b8154815290600101906020018083116110d757829003601f168201915b5050505050815260200160018201805461110d9061248a565b80601f01602080910402602001604051908101604052809291908181526020018280546111399061248a565b80156111865780601f1061115b57610100808354040283529160200191611186565b820191906000526020600020905b81548152906001019060200180831161116957829003601f168201915b50505050508152505081526020019060010190611048565b50505050905090565b60086020528060005260406000206000915090508060000180546111ca9061248a565b80601f01602080910402602001604051908101604052809291908181526020018280546111f69061248a565b80156112435780601f1061121857610100808354040283529160200191611243565b820191906000526020600020905b81548152906001019060200180831161122657829003601f168201915b5050505050908060010180546112589061248a565b80601f01602080910402602001604051908101604052809291908181526020018280546112849061248a565b80156112d15780601f106112a6576101008083540402835291602001916112d1565b820191906000526020600020905b8154815290600101906020018083116112b457829003601f168201915b5050505050905082565b60046020528060005260406000206000915090508060000180546112fe9061248a565b80601f016020809104026020016040519081016040528092919081815260200182805461132a9061248a565b80156113775780601f1061134c57610100808354040283529160200191611377565b820191906000526020600020905b81548152906001019060200180831161135a57829003601f168201915b50505050509080600101805461138c9061248a565b80601f01602080910402602001604051908101604052809291908181526020018280546113b89061248a565b80156114055780601f106113da57610100808354040283529160200191611405565b820191906000526020600020905b8154815290600101906020018083116113e857829003601f168201915b5050505050905082565b60066020528060005260406000206000915090508060000180546114329061248a565b80601f016020809104026020016040519081016040528092919081815260200182805461145e9061248a565b80156114ab5780601f10611480576101008083540402835291602001916114ab565b820191906000526020600020905b81548152906001019060200180831161148e57829003601f168201915b5050505050908060010180546114c09061248a565b80601f01602080910402602001604051908101604052809291908181526020018280546114ec9061248a565b80156115395780601f1061150e57610100808354040283529160200191611539565b820191906000526020600020905b81548152906001019060200180831161151c57829003601f168201915b5050505050905082565b60606001805480602002602001604051908101604052809291908181526020016000905b828210156116bd578382906000526020600020906002020160405180604001604052908160008201805461159a9061248a565b80601f01602080910402602001604051908101604052809291908181526020018280546115c69061248a565b80156116135780601f106115e857610100808354040283529160200191611613565b820191906000526020600020905b8154815290600101906020018083116115f657829003601f168201915b5050505050815260200160018201805461162c9061248a565b80601f01602080910402602001604051908101604052809291908181526020018280546116589061248a565b80156116a55780601f1061167a576101008083540402835291602001916116a5565b820191906000526020600020905b81548152906001019060200180831161168857829003601f168201915b50505050508152505081526020019060010190611567565b50505050905090565b60008411611709576040517f08c379a000000000000000000000000000000000000000000000000000000000815260040161170090612975565b60405180910390fd5b6000859050600281511015611753576040517f08c379a000000000000000000000000000000000000000000000000000000000815260040161174a90612a07565b60405180910390fd5b600060405180604001604052808781526020018881525090806001815401808255809150506001900390600052602060002090600202016000909190919091506000820151816000015560208201518160010190816117b29190612667565b50505033600a600087815260200190815260200160002060006101000a81548173ffffffffffffffffffffffffffffffffffffffff021916908373ffffffffffffffffffffffffffffffffffffffff160217905550600b60003373ffffffffffffffffffffffffffffffffffffffff1673ffffffffffffffffffffffffffffffffffffffff1681526020019081526020016000206000815480929190611857906128bb565b919050555083600560008781526020019081526020016000209080519060200190611883929190611960565b50826007600087815260200190815260200160002090805190602001906118ab929190611960565b50816009600087815260200190815260200160002090805190602001906118d3929190611960565b507e570a6686f18a686cdda2f62a7954c6bd78c21f4b33df90b0a5479f5ae8a9a8856040516119029190612a82565b60405180910390a1505050505050565b604051806040016040528060608152602001606081525090565b604051806040016040528060608152602001606081525090565b604051806040016040528060608152602001606081525090565b82805482825590600052602060002090810192821561199c579160200282015b8281111561199b578251825591602001919060010190611980565b5b5090506119a991906119ad565b5090565b5b808211156119c65760008160009055506001016119ae565b5090565b6000604051905090565b600080fd5b600080fd5b6000819050919050565b6119f1816119de565b81146119fc57600080fd5b50565b600081359050611a0e816119e8565b92915050565b600060208284031215611a2a57611a296119d4565b5b6000611a38848285016119ff565b91505092915050565b600073ffffffffffffffffffffffffffffffffffffffff82169050919050565b6000611a6c82611a41565b9050919050565b611a7c81611a61565b82525050565b6000602082019050611a976000830184611a73565b92915050565b600080fd5b600080fd5b6000601f19601f8301169050919050565b7f4e487b7100000000000000000000000000000000000000000000000000000000600052604160045260246000fd5b611af082611aa7565b810181811067ffffffffffffffff82111715611b0f57611b0e611ab8565b5b80604052505050565b6000611b226119ca565b9050611b2e8282611ae7565b919050565b600067ffffffffffffffff821115611b4e57611b4d611ab8565b5b611b5782611aa7565b9050602081019050919050565b82818337600083830152505050565b6000611b86611b8184611b33565b611b18565b905082815260208101848484011115611ba257611ba1611aa2565b5b611bad848285611b64565b509392505050565b600082601f830112611bca57611bc9611a9d565b5b8135611bda848260208601611b73565b91505092915050565b600080600060608486031215611bfc57611bfb6119d4565b5b600084013567ffffffffffffffff811115611c1a57611c196119d9565b5b611c2686828701611bb5565b935050602084013567ffffffffffffffff811115611c4757611c466119d9565b5b611c5386828701611bb5565b9250506040611c64868287016119ff565b9150509250925092565b600081519050919050565b600082825260208201905092915050565b6000819050602082019050919050565b611ca3816119de565b82525050565b600081519050919050565b600082825260208201905092915050565b60005b83811015611ce3578082015181840152602081019050611cc8565b60008484015250505050565b6000611cfa82611ca9565b611d048185611cb4565b9350611d14818560208601611cc5565b611d1d81611aa7565b840191505092915050565b6000604083016000830151611d406000860182611c9a565b5060208301518482036020860152611d588282611cef565b9150508091505092915050565b6000611d718383611d28565b905092915050565b6000602082019050919050565b6000611d9182611c6e565b611d9b8185611c79565b935083602082028501611dad85611c8a565b8060005b85811015611de95784840389528151611dca8582611d65565b9450611dd583611d79565b925060208a01995050600181019050611db1565b50829750879550505050505092915050565b60006020820190508181036000830152611e158184611d86565b905092915050565b600081519050919050565b600082825260208201905092915050565b6000819050602082019050919050565b60006040830160008301518482036000860152611e668282611cef565b91505060208301518482036020860152611e808282611cef565b9150508091505092915050565b6000611e998383611e49565b905092915050565b6000602082019050919050565b6000611eb982611e1d565b611ec38185611e28565b935083602082028501611ed585611e39565b8060005b85811015611f115784840389528151611ef28582611e8d565b9450611efd83611ea1565b925060208a01995050600181019050611ed9565b50829750879550505050505092915050565b60006020820190508181036000830152611f3d8184611eae565b905092915050565b600081519050919050565b600082825260208201905092915050565b6000819050602082019050919050565b60006040830160008301518482036000860152611f8e8282611cef565b91505060208301518482036020860152611fa88282611cef565b9150508091505092915050565b6000611fc18383611f71565b905092915050565b6000602082019050919050565b6000611fe182611f45565b611feb8185611f50565b935083602082028501611ffd85611f61565b8060005b85811015612039578484038952815161201a8582611fb5565b945061202583611fc9565b925060208a01995050600181019050612001565b50829750879550505050505092915050565b600060208201905081810360008301526120658184611fd6565b905092915050565b600081519050919050565b600082825260208201905092915050565b6000819050602082019050919050565b600060408301600083015184820360008601526120b68282611cef565b915050602083015184820360208601526120d08282611cef565b9150508091505092915050565b60006120e98383612099565b905092915050565b6000602082019050919050565b60006121098261206d565b6121138185612078565b93508360208202850161212585612089565b8060005b85811015612161578484038952815161214285826120dd565b945061214d836120f1565b925060208a01995050600181019050612129565b50829750879550505050505092915050565b6000602082019050818103600083015261218d81846120fe565b905092915050565b600082825260208201905092915050565b60006121b182611ca9565b6121bb8185612195565b93506121cb818560208601611cc5565b6121d481611aa7565b840191505092915050565b600060408201905081810360008301526121f981856121a6565b9050818103602083015261220d81846121a6565b90509392505050565b600067ffffffffffffffff82111561223157612230611ab8565b5b602082029050602081019050919050565b600080fd5b600061225a61225584612216565b611b18565b9050808382526020820190506020840283018581111561227d5761227c612242565b5b835b818110156122a6578061229288826119ff565b84526020840193505060208101905061227f565b5050509392505050565b600082601f8301126122c5576122c4611a9d565b5b81356122d5848260208601612247565b91505092915050565b600080600080600060a086880312156122fa576122f96119d4565b5b600086013567ffffffffffffffff811115612318576123176119d9565b5b61232488828901611bb5565b9550506020612335888289016119ff565b945050604086013567ffffffffffffffff811115612356576123556119d9565b5b612362888289016122b0565b935050606086013567ffffffffffffffff811115612383576123826119d9565b5b61238f888289016122b0565b925050608086013567ffffffffffffffff8111156123b0576123af6119d9565b5b6123bc888289016122b0565b9150509295509295909350565b7f54797065206964206d7573742062652067726561746572207468616e207a657260008201527f6f00000000000000000000000000000000000000000000000000000000000000602082015250565b6000612425602183612195565b9150612430826123c9565b604082019050919050565b6000602082019050818103600083015261245481612418565b9050919050565b7f4e487b7100000000000000000000000000000000000000000000000000000000600052602260045260246000fd5b600060028204905060018216806124a257607f821691505b6020821081036124b5576124b461245b565b5b50919050565b60008190508160005260206000209050919050565b60006020601f8301049050919050565b600082821b905092915050565b60006008830261251d7fffffffffffffffffffffffffffffffffffffffffffffffffffffffffffffffff826124e0565b61252786836124e0565b95508019841693508086168417925050509392505050565b6000819050919050565b600061256461255f61255a846119de565b61253f565b6119de565b9050919050565b6000819050919050565b61257e83612549565b61259261258a8261256b565b8484546124ed565b825550505050565b600090565b6125a761259a565b6125b2818484612575565b505050565b5b818110156125d6576125cb60008261259f565b6001810190506125b8565b5050565b601f82111561261b576125ec816124bb565b6125f5846124d0565b81016020851015612604578190505b612618612610856124d0565b8301826125b7565b50505b505050565b600082821c905092915050565b600061263e60001984600802612620565b1980831691505092915050565b6000612657838361262d565b9150826002028217905092915050565b61267082611ca9565b67ffffffffffffffff81111561268957612688611ab8565b5b612693825461248a565b61269e8282856125da565b600060209050601f8311600181146126d157600084156126bf578287015190505b6126c9858261264b565b865550612731565b601f1984166126df866124bb565b60005b82811015612707578489015182556001820191506020850194506020810190506126e2565b868310156127245784890151612720601f89168261262d565b8355505b6001600288020188555050505b505050505050565b7f4162696c697479206964206d7573742062652067726561746572207468616e2060008201527f7a65726f00000000000000000000000000000000000000000000000000000000602082015250565b6000612795602483612195565b91506127a082612739565b604082019050919050565b600060208201905081810360008301526127c481612788565b9050919050565b7f5765616b6e657373206964206d7573742062652067726561746572207468616e60008201527f207a65726f000000000000000000000000000000000000000000000000000000602082015250565b6000612827602583612195565b9150612832826127cb565b604082019050919050565b600060208201905081810360008301526128568161281a565b9050919050565b7f4e487b7100000000000000000000000000000000000000000000000000000000600052603260045260246000fd5b7f4e487b7100000000000000000000000000000000000000000000000000000000600052601160045260246000fd5b60006128c6826119de565b91507fffffffffffffffffffffffffffffffffffffffffffffffffffffffffffffffff82036128f8576128f761288c565b5b600182019050919050565b7f506f6b656d6f6e206964206d7573742062652067726561746572207468616e2060008201527f7a65726f00000000000000000000000000000000000000000000000000000000602082015250565b600061295f602483612195565b915061296a82612903565b604082019050919050565b6000602082019050818103600083015261298e81612952565b9050919050565b7f706f6b656d6f6e206e616d65206d75737420626520677265617465722074686160008201527f6e20322063686172616374657273000000000000000000000000000000000000602082015250565b60006129f1602e83612195565b91506129fc82612995565b604082019050919050565b60006020820190508181036000830152612a20816129e4565b9050919050565b612a30816119de565b82525050565b7f6e657720706f6b656d6f6e206974732063726561746500000000000000000000600082015250565b6000612a6c601683612195565b9150612a7782612a36565b602082019050919050565b6000604082019050612a976000830184612a27565b8181036020830152612aa881612a5f565b90509291505056fea26469706673582212209588514dad49f7165e838f9a93fcd065b668967ef38aefcc00525aa1ad8ca26d64736f6c63430008120033",
  "linkReferences": {},
  "deployedLinkReferences": {}
}