{
  "_format": "hh-sol-artifact-1",
  "contractName": "PokemonFactory",
  "sourceName": "contracts/PokemonFactory.sol",
  "abi": [
    {
      "anonymous": false,
      "inputs": [
        {
          "indexed": false,
          "internalType": "address",
          "name": "sender",
          "type": "address"
        },
        {
          "indexed": false,
          "internalType": "string",
          "name": "message",
          "type": "string"
        }
      ],
      "name": "eventNewPokemon",
      "type": "event"
    },
    {
      "inputs": [
        {
          "internalType": "string",
          "name": "_name",
          "type": "string"
        },
        {
          "internalType": "uint256",
          "name": "_id",
          "type": "uint256"
        }
      ],
      "name": "createPokemon",
      "outputs": [],
      "stateMutability": "nonpayable",
      "type": "function"
    },
    {
      "inputs": [],
      "name": "getAllPokemons",
      "outputs": [
        {
          "components": [
            {
              "internalType": "uint256",
              "name": "id",
              "type": "uint256"
            },
            {
              "internalType": "string",
              "name": "name",
              "type": "string"
            }
          ],
          "internalType": "struct PokemonFactory.Pokemon[]",
          "name": "",
          "type": "tuple[]"
        }
      ],
      "stateMutability": "view",
      "type": "function"
    },
    {
      "inputs": [],
      "name": "getResult",
      "outputs": [
        {
          "internalType": "uint256",
          "name": "product",
          "type": "uint256"
        },
        {
          "internalType": "uint256",
          "name": "sum",
          "type": "uint256"
        }
      ],
      "stateMutability": "pure",
      "type": "function"
    },
    {
      "inputs": [
        {
          "internalType": "uint256",
          "name": "",
          "type": "uint256"
        }
      ],
      "name": "pokemonToOwner",
      "outputs": [
        {
          "internalType": "address",
          "name": "",
          "type": "address"
        }
      ],
      "stateMutability": "view",
      "type": "function"
    }
  ],
  "bytecode": "0x608060405234801561001057600080fd5b50610c65806100206000396000f3fe608060405234801561001057600080fd5b506004361061004c5760003560e01c80630a3bd50b146100515780632f7467b31461006d5780635e9167901461009d578063de292789146100bb575b600080fd5b61006b6004803603810190610066919061050d565b6100da565b005b61008760048036038101906100829190610569565b61021e565b60405161009491906105d7565b60405180910390f35b6100a5610251565b6040516100b2919061077f565b60405180910390f35b6100c361034c565b6040516100d19291906107b0565b60405180910390f35b6000604051806040016040528083815260200184815250908060018154018082558091505060019003906000526020600020906002020160009091909190915060008201518160000155602082015181600101908161013991906109e5565b505050336001600083815260200190815260200160002060006101000a81548173ffffffffffffffffffffffffffffffffffffffff021916908373ffffffffffffffffffffffffffffffffffffffff160217905550600260003373ffffffffffffffffffffffffffffffffffffffff1673ffffffffffffffffffffffffffffffffffffffff16815260200190815260200160002060008154809291906101de90610ae6565b91905055507fe5a4c13681fc1ec969a5d1e2a8f13730bca81a4041367c6493477d52103b1ce2336040516102129190610b8b565b60405180910390a15050565b60016020528060005260406000206000915054906101000a900473ffffffffffffffffffffffffffffffffffffffff1681565b60606000805480602002602001604051908101604052809291908181526020016000905b828210156103435783829060005260206000209060020201604051806040016040529081600082015481526020016001820180546102b290610808565b80601f01602080910402602001604051908101604052809291908181526020018280546102de90610808565b801561032b5780601f106103005761010080835404028352916020019161032b565b820191906000526020600020905b81548152906001019060200180831161030e57829003601f168201915b50505050508152505081526020019060010190610275565b50505050905090565b60008060006001905060006002905080826103679190610bb9565b935080826103759190610bfb565b925050509091565b6000604051905090565b600080fd5b600080fd5b600080fd5b600080fd5b6000601f19601f8301169050919050565b7f4e487b7100000000000000000000000000000000000000000000000000000000600052604160045260246000fd5b6103e48261039b565b810181811067ffffffffffffffff82111715610403576104026103ac565b5b80604052505050565b600061041661037d565b905061042282826103db565b919050565b600067ffffffffffffffff821115610442576104416103ac565b5b61044b8261039b565b9050602081019050919050565b82818337600083830152505050565b600061047a61047584610427565b61040c565b90508281526020810184848401111561049657610495610396565b5b6104a1848285610458565b509392505050565b600082601f8301126104be576104bd610391565b5b81356104ce848260208601610467565b91505092915050565b6000819050919050565b6104ea816104d7565b81146104f557600080fd5b50565b600081359050610507816104e1565b92915050565b6000806040838503121561052457610523610387565b5b600083013567ffffffffffffffff8111156105425761054161038c565b5b61054e858286016104a9565b925050602061055f858286016104f8565b9150509250929050565b60006020828403121561057f5761057e610387565b5b600061058d848285016104f8565b91505092915050565b600073ffffffffffffffffffffffffffffffffffffffff82169050919050565b60006105c182610596565b9050919050565b6105d1816105b6565b82525050565b60006020820190506105ec60008301846105c8565b92915050565b600081519050919050565b600082825260208201905092915050565b6000819050602082019050919050565b610627816104d7565b82525050565b600081519050919050565b600082825260208201905092915050565b60005b8381101561066757808201518184015260208101905061064c565b60008484015250505050565b600061067e8261062d565b6106888185610638565b9350610698818560208601610649565b6106a18161039b565b840191505092915050565b60006040830160008301516106c4600086018261061e565b50602083015184820360208601526106dc8282610673565b9150508091505092915050565b60006106f583836106ac565b905092915050565b6000602082019050919050565b6000610715826105f2565b61071f81856105fd565b9350836020820285016107318561060e565b8060005b8581101561076d578484038952815161074e85826106e9565b9450610759836106fd565b925060208a01995050600181019050610735565b50829750879550505050505092915050565b60006020820190508181036000830152610799818461070a565b905092915050565b6107aa816104d7565b82525050565b60006040820190506107c560008301856107a1565b6107d260208301846107a1565b9392505050565b7f4e487b7100000000000000000000000000000000000000000000000000000000600052602260045260246000fd5b6000600282049050600182168061082057607f821691505b602082108103610833576108326107d9565b5b50919050565b60008190508160005260206000209050919050565b60006020601f8301049050919050565b600082821b905092915050565b60006008830261089b7fffffffffffffffffffffffffffffffffffffffffffffffffffffffffffffffff8261085e565b6108a5868361085e565b95508019841693508086168417925050509392505050565b6000819050919050565b60006108e26108dd6108d8846104d7565b6108bd565b6104d7565b9050919050565b6000819050919050565b6108fc836108c7565b610910610908826108e9565b84845461086b565b825550505050565b600090565b610925610918565b6109308184846108f3565b505050565b5b818110156109545761094960008261091d565b600181019050610936565b5050565b601f8211156109995761096a81610839565b6109738461084e565b81016020851015610982578190505b61099661098e8561084e565b830182610935565b50505b505050565b600082821c905092915050565b60006109bc6000198460080261099e565b1980831691505092915050565b60006109d583836109ab565b9150826002028217905092915050565b6109ee8261062d565b67ffffffffffffffff811115610a0757610a066103ac565b5b610a118254610808565b610a1c828285610958565b600060209050601f831160018114610a4f5760008415610a3d578287015190505b610a4785826109c9565b865550610aaf565b601f198416610a5d86610839565b60005b82811015610a8557848901518255600182019150602085019450602081019050610a60565b86831015610aa25784890151610a9e601f8916826109ab565b8355505b6001600288020188555050505b505050505050565b7f4e487b7100000000000000000000000000000000000000000000000000000000600052601160045260246000fd5b6000610af1826104d7565b91507fffffffffffffffffffffffffffffffffffffffffffffffffffffffffffffffff8203610b2357610b22610ab7565b5b600182019050919050565b600082825260208201905092915050565b7f6e657720706f6b656d6f6e206974732063726561746500000000000000000000600082015250565b6000610b75601683610b2e565b9150610b8082610b3f565b602082019050919050565b6000604082019050610ba060008301846105c8565b8181036020830152610bb181610b68565b905092915050565b6000610bc4826104d7565b9150610bcf836104d7565b9250828202610bdd816104d7565b91508282048414831517610bf457610bf3610ab7565b5b5092915050565b6000610c06826104d7565b9150610c11836104d7565b9250828201905080821115610c2957610c28610ab7565b5b9291505056fea26469706673582212202bc8372fc95fcf4b4d7baf0dd0da2c53f336fbcf32aa743b45ea9fb28e7da57364736f6c63430008120033",
  "linkReferences": {},
  "deployedLinkReferences": {}
}