{
  "_format": "hh-sol-artifact-1",
  "contractName": "PokemonFactory",
  "sourceName": "contracts/PokemonFactory.sol",
  "abi": [
    {
      "anonymous": false,
      "inputs": [
        {
          "indexed": false,
          "internalType": "address",
          "name": "sender",
          "type": "address"
        },
        {
          "indexed": false,
          "internalType": "string",
          "name": "message",
          "type": "string"
        }
      ],
      "name": "eventNewPokemon",
      "type": "event"
    },
    {
      "inputs": [
        {
          "internalType": "string",
          "name": "_name",
          "type": "string"
        },
        {
          "internalType": "uint256",
          "name": "_id",
          "type": "uint256"
        }
      ],
      "name": "createPokemon",
      "outputs": [],
      "stateMutability": "nonpayable",
      "type": "function"
    },
    {
      "inputs": [],
      "name": "getAllPokemons",
      "outputs": [
        {
          "components": [
            {
              "internalType": "uint256",
              "name": "id",
              "type": "uint256"
            },
            {
              "internalType": "string",
              "name": "name",
              "type": "string"
            }
          ],
          "internalType": "struct PokemonFactory.Pokemon[]",
          "name": "",
          "type": "tuple[]"
        }
      ],
      "stateMutability": "view",
      "type": "function"
    },
    {
      "inputs": [
        {
          "internalType": "uint256",
          "name": "",
          "type": "uint256"
        }
      ],
      "name": "pokemonToOwner",
      "outputs": [
        {
          "internalType": "address",
          "name": "",
          "type": "address"
        }
      ],
      "stateMutability": "view",
      "type": "function"
    }
  ],
  "bytecode": "0x608060405234801561001057600080fd5b50610d0e806100206000396000f3fe608060405234801561001057600080fd5b50600436106100415760003560e01c80630a3bd50b146100465780632f7467b3146100625780635e91679014610092575b600080fd5b610060600480360381019061005b9190610540565b6100b0565b005b61007c6004803603810190610077919061059c565b610282565b604051610089919061060a565b60405180910390f35b61009a6102b5565b6040516100a791906107b2565b60405180910390f35b600081116100f3576040517f08c379a00000000000000000000000000000000000000000000000000000000081526004016100ea90610857565b60405180910390fd5b600082905060028151101561013d576040517f08c379a0000000000000000000000000000000000000000000000000000000008152600401610134906108e9565b60405180910390fd5b6000604051806040016040528084815260200185815250908060018154018082558091505060019003906000526020600020906002020160009091909190915060008201518160000155602082015181600101908161019c9190610b15565b505050336001600084815260200190815260200160002060006101000a81548173ffffffffffffffffffffffffffffffffffffffff021916908373ffffffffffffffffffffffffffffffffffffffff160217905550600260003373ffffffffffffffffffffffffffffffffffffffff1673ffffffffffffffffffffffffffffffffffffffff168152602001908152602001600020600081548092919061024190610c16565b91905055507fe5a4c13681fc1ec969a5d1e2a8f13730bca81a4041367c6493477d52103b1ce2336040516102759190610caa565b60405180910390a1505050565b60016020528060005260406000206000915054906101000a900473ffffffffffffffffffffffffffffffffffffffff1681565b60606000805480602002602001604051908101604052809291908181526020016000905b828210156103a757838290600052602060002090600202016040518060400160405290816000820154815260200160018201805461031690610938565b80601f016020809104026020016040519081016040528092919081815260200182805461034290610938565b801561038f5780601f106103645761010080835404028352916020019161038f565b820191906000526020600020905b81548152906001019060200180831161037257829003601f168201915b505050505081525050815260200190600101906102d9565b50505050905090565b6000604051905090565b600080fd5b600080fd5b600080fd5b600080fd5b6000601f19601f8301169050919050565b7f4e487b7100000000000000000000000000000000000000000000000000000000600052604160045260246000fd5b610417826103ce565b810181811067ffffffffffffffff82111715610436576104356103df565b5b80604052505050565b60006104496103b0565b9050610455828261040e565b919050565b600067ffffffffffffffff821115610475576104746103df565b5b61047e826103ce565b9050602081019050919050565b82818337600083830152505050565b60006104ad6104a88461045a565b61043f565b9050828152602081018484840111156104c9576104c86103c9565b5b6104d484828561048b565b509392505050565b600082601f8301126104f1576104f06103c4565b5b813561050184826020860161049a565b91505092915050565b6000819050919050565b61051d8161050a565b811461052857600080fd5b50565b60008135905061053a81610514565b92915050565b60008060408385031215610557576105566103ba565b5b600083013567ffffffffffffffff811115610575576105746103bf565b5b610581858286016104dc565b92505060206105928582860161052b565b9150509250929050565b6000602082840312156105b2576105b16103ba565b5b60006105c08482850161052b565b91505092915050565b600073ffffffffffffffffffffffffffffffffffffffff82169050919050565b60006105f4826105c9565b9050919050565b610604816105e9565b82525050565b600060208201905061061f60008301846105fb565b92915050565b600081519050919050565b600082825260208201905092915050565b6000819050602082019050919050565b61065a8161050a565b82525050565b600081519050919050565b600082825260208201905092915050565b60005b8381101561069a57808201518184015260208101905061067f565b60008484015250505050565b60006106b182610660565b6106bb818561066b565b93506106cb81856020860161067c565b6106d4816103ce565b840191505092915050565b60006040830160008301516106f76000860182610651565b506020830151848203602086015261070f82826106a6565b9150508091505092915050565b600061072883836106df565b905092915050565b6000602082019050919050565b600061074882610625565b6107528185610630565b93508360208202850161076485610641565b8060005b858110156107a05784840389528151610781858261071c565b945061078c83610730565b925060208a01995050600181019050610768565b50829750879550505050505092915050565b600060208201905081810360008301526107cc818461073d565b905092915050565b600082825260208201905092915050565b7f506f6b656d6f6e206964206d7573742062652067726561746572207468616e2060008201527f7a65726f00000000000000000000000000000000000000000000000000000000602082015250565b60006108416024836107d4565b915061084c826107e5565b604082019050919050565b6000602082019050818103600083015261087081610834565b9050919050565b7f706f6b656d6f6e206e616d65206d75737420626520677265617465722074686160008201527f6e20322063686172616374657273000000000000000000000000000000000000602082015250565b60006108d3602e836107d4565b91506108de82610877565b604082019050919050565b60006020820190508181036000830152610902816108c6565b9050919050565b7f4e487b7100000000000000000000000000000000000000000000000000000000600052602260045260246000fd5b6000600282049050600182168061095057607f821691505b60208210810361096357610962610909565b5b50919050565b60008190508160005260206000209050919050565b60006020601f8301049050919050565b600082821b905092915050565b6000600883026109cb7fffffffffffffffffffffffffffffffffffffffffffffffffffffffffffffffff8261098e565b6109d5868361098e565b95508019841693508086168417925050509392505050565b6000819050919050565b6000610a12610a0d610a088461050a565b6109ed565b61050a565b9050919050565b6000819050919050565b610a2c836109f7565b610a40610a3882610a19565b84845461099b565b825550505050565b600090565b610a55610a48565b610a60818484610a23565b505050565b5b81811015610a8457610a79600082610a4d565b600181019050610a66565b5050565b601f821115610ac957610a9a81610969565b610aa38461097e565b81016020851015610ab2578190505b610ac6610abe8561097e565b830182610a65565b50505b505050565b600082821c905092915050565b6000610aec60001984600802610ace565b1980831691505092915050565b6000610b058383610adb565b9150826002028217905092915050565b610b1e82610660565b67ffffffffffffffff811115610b3757610b366103df565b5b610b418254610938565b610b4c828285610a88565b600060209050601f831160018114610b7f5760008415610b6d578287015190505b610b778582610af9565b865550610bdf565b601f198416610b8d86610969565b60005b82811015610bb557848901518255600182019150602085019450602081019050610b90565b86831015610bd25784890151610bce601f891682610adb565b8355505b6001600288020188555050505b505050505050565b7f4e487b7100000000000000000000000000000000000000000000000000000000600052601160045260246000fd5b6000610c218261050a565b91507fffffffffffffffffffffffffffffffffffffffffffffffffffffffffffffffff8203610c5357610c52610be7565b5b600182019050919050565b7f6e657720706f6b656d6f6e206974732063726561746500000000000000000000600082015250565b6000610c946016836107d4565b9150610c9f82610c5e565b602082019050919050565b6000604082019050610cbf60008301846105fb565b8181036020830152610cd081610c87565b90509291505056fea2646970667358221220a65d0c21e86585570416f6778f4f53fb63f33d61e29098475b7ba78811e1e0ec64736f6c63430008120033",
  "linkReferences": {},
  "deployedLinkReferences": {}
}