{
  "_format": "hh-sol-artifact-1",
  "contractName": "PokemonFactory",
  "sourceName": "contracts/PokemonFactory.sol",
  "abi": [
    {
      "anonymous": false,
      "inputs": [
        {
          "indexed": false,
          "internalType": "address",
          "name": "sender",
          "type": "address"
        },
        {
          "indexed": false,
          "internalType": "string",
          "name": "message",
          "type": "string"
        }
      ],
      "name": "eventNewPokemon",
      "type": "event"
    },
    {
      "inputs": [
        {
          "internalType": "uint256",
          "name": "",
          "type": "uint256"
        }
      ],
      "name": "abilities",
      "outputs": [
        {
          "internalType": "string",
          "name": "name",
          "type": "string"
        },
        {
          "internalType": "string",
          "name": "description",
          "type": "string"
        }
      ],
      "stateMutability": "view",
      "type": "function"
    },
    {
      "inputs": [
        {
          "internalType": "string",
          "name": "_name",
          "type": "string"
        },
        {
          "internalType": "string",
          "name": "_description",
          "type": "string"
        },
        {
          "internalType": "uint256",
          "name": "_id",
          "type": "uint256"
        }
      ],
      "name": "createHability",
      "outputs": [],
      "stateMutability": "nonpayable",
      "type": "function"
    },
    {
      "inputs": [
        {
          "internalType": "string",
          "name": "_name",
          "type": "string"
        },
        {
          "internalType": "uint256",
          "name": "_id",
          "type": "uint256"
        },
        {
          "internalType": "uint256[]",
          "name": "_abilities",
          "type": "uint256[]"
        }
      ],
      "name": "createPokemon",
      "outputs": [],
      "stateMutability": "nonpayable",
      "type": "function"
    },
    {
      "inputs": [
        {
          "internalType": "uint256",
          "name": "_id",
          "type": "uint256"
        }
      ],
      "name": "getAbilitiesByPokemonId",
      "outputs": [
        {
          "components": [
            {
              "internalType": "string",
              "name": "name",
              "type": "string"
            },
            {
              "internalType": "string",
              "name": "description",
              "type": "string"
            }
          ],
          "internalType": "struct PokemonFactory.Ability[]",
          "name": "",
          "type": "tuple[]"
        }
      ],
      "stateMutability": "view",
      "type": "function"
    },
    {
      "inputs": [],
      "name": "getAllAbilities",
      "outputs": [
        {
          "components": [
            {
              "internalType": "string",
              "name": "name",
              "type": "string"
            },
            {
              "internalType": "string",
              "name": "description",
              "type": "string"
            }
          ],
          "internalType": "struct PokemonFactory.Ability[]",
          "name": "",
          "type": "tuple[]"
        }
      ],
      "stateMutability": "view",
      "type": "function"
    },
    {
      "inputs": [],
      "name": "getAllPokemons",
      "outputs": [
        {
          "components": [
            {
              "internalType": "uint256",
              "name": "id",
              "type": "uint256"
            },
            {
              "internalType": "string",
              "name": "name",
              "type": "string"
            }
          ],
          "internalType": "struct PokemonFactory.Pokemon[]",
          "name": "",
          "type": "tuple[]"
        }
      ],
      "stateMutability": "view",
      "type": "function"
    },
    {
      "inputs": [
        {
          "internalType": "uint256",
          "name": "",
          "type": "uint256"
        }
      ],
      "name": "pokemonToOwner",
      "outputs": [
        {
          "internalType": "address",
          "name": "",
          "type": "address"
        }
      ],
      "stateMutability": "view",
      "type": "function"
    }
  ],
  "bytecode": "0x608060405234801561001057600080fd5b5061188e806100206000396000f3fe608060405234801561001057600080fd5b506004361061007d5760003560e01c8063821af9de1161005b578063821af9de146100ec5780638bb4680714610108578063cae0d33514610138578063d8d13661146101695761007d565b806312efb9df146100825780632f7467b31461009e5780635e916790146100ce575b600080fd5b61009c60048036038101906100979190610ce5565b610187565b005b6100b860048036038101906100b39190610d70565b610286565b6040516100c59190610dde565b60405180910390f35b6100d66102b9565b6040516100e39190610f86565b60405180910390f35b61010660048036038101906101019190611070565b6103b4565b005b610122600480360381019061011d9190610d70565b6105af565b60405161012f9190611201565b60405180910390f35b610152600480360381019061014d9190610d70565b61081a565b60405161016092919061126d565b60405180910390f35b61017161094e565b60405161017e9190611201565b60405180910390f35b600081116101ca576040517f08c379a00000000000000000000000000000000000000000000000000000000081526004016101c190611316565b60405180910390fd5b600060405180604001604052808581526020018481525090508060026000848152602001908152602001600020600082015181600001908161020c9190611542565b5060208201518160010190816102229190611542565b50905050600181908060018154018082558091505060019003906000526020600020906002020160009091909190915060008201518160000190816102679190611542565b50602082015181600101908161027d9190611542565b50505050505050565b60046020528060005260406000206000915054906101000a900473ffffffffffffffffffffffffffffffffffffffff1681565b60606000805480602002602001604051908101604052809291908181526020016000905b828210156103ab57838290600052602060002090600202016040518060400160405290816000820154815260200160018201805461031a90611365565b80601f016020809104026020016040519081016040528092919081815260200182805461034690611365565b80156103935780601f1061036857610100808354040283529160200191610393565b820191906000526020600020905b81548152906001019060200180831161037657829003601f168201915b505050505081525050815260200190600101906102dd565b50505050905090565b600082116103f7576040517f08c379a00000000000000000000000000000000000000000000000000000000081526004016103ee90611686565b60405180910390fd5b6000839050600281511015610441576040517f08c379a000000000000000000000000000000000000000000000000000000000815260040161043890611718565b60405180910390fd5b600060405180604001604052808581526020018681525090806001815401808255809150506001900390600052602060002090600202016000909190919091506000820151816000015560208201518160010190816104a09190611542565b505050336004600085815260200190815260200160002060006101000a81548173ffffffffffffffffffffffffffffffffffffffff021916908373ffffffffffffffffffffffffffffffffffffffff160217905550600560003373ffffffffffffffffffffffffffffffffffffffff1673ffffffffffffffffffffffffffffffffffffffff168152602001908152602001600020600081548092919061054590611767565b919050555081600360008581526020019081526020016000209080519060200190610571929190610ad1565b507fe5a4c13681fc1ec969a5d1e2a8f13730bca81a4041367c6493477d52103b1ce2336040516105a191906117fb565b60405180910390a150505050565b606060006003600084815260200190815260200160002080548060200260200160405190810160405280929190818152602001828054801561061057602002820191906000526020600020905b8154815260200190600101908083116105fc575b505050505090506000815167ffffffffffffffff81111561063457610633610b84565b5b60405190808252806020026020018201604052801561066d57816020015b61065a610b1e565b8152602001906001900390816106525790505b50905060005b825181101561080f57600083828151811061069157610690611829565b5b60200260200101519050600260008281526020019081526020016000206040518060400160405290816000820180546106c990611365565b80601f01602080910402602001604051908101604052809291908181526020018280546106f590611365565b80156107425780601f1061071757610100808354040283529160200191610742565b820191906000526020600020905b81548152906001019060200180831161072557829003601f168201915b5050505050815260200160018201805461075b90611365565b80601f016020809104026020016040519081016040528092919081815260200182805461078790611365565b80156107d45780601f106107a9576101008083540402835291602001916107d4565b820191906000526020600020905b8154815290600101906020018083116107b757829003601f168201915b5050505050815250508383815181106107f0576107ef611829565b5b602002602001018190525050808061080790611767565b915050610673565b508092505050919050565b600260205280600052604060002060009150905080600001805461083d90611365565b80601f016020809104026020016040519081016040528092919081815260200182805461086990611365565b80156108b65780601f1061088b576101008083540402835291602001916108b6565b820191906000526020600020905b81548152906001019060200180831161089957829003601f168201915b5050505050908060010180546108cb90611365565b80601f01602080910402602001604051908101604052809291908181526020018280546108f790611365565b80156109445780601f1061091957610100808354040283529160200191610944565b820191906000526020600020905b81548152906001019060200180831161092757829003601f168201915b5050505050905082565b60606001805480602002602001604051908101604052809291908181526020016000905b82821015610ac857838290600052602060002090600202016040518060400160405290816000820180546109a590611365565b80601f01602080910402602001604051908101604052809291908181526020018280546109d190611365565b8015610a1e5780601f106109f357610100808354040283529160200191610a1e565b820191906000526020600020905b815481529060010190602001808311610a0157829003601f168201915b50505050508152602001600182018054610a3790611365565b80601f0160208091040260200160405190810160405280929190818152602001828054610a6390611365565b8015610ab05780601f10610a8557610100808354040283529160200191610ab0565b820191906000526020600020905b815481529060010190602001808311610a9357829003601f168201915b50505050508152505081526020019060010190610972565b50505050905090565b828054828255906000526020600020908101928215610b0d579160200282015b82811115610b0c578251825591602001919060010190610af1565b5b509050610b1a9190610b38565b5090565b604051806040016040528060608152602001606081525090565b5b80821115610b51576000816000905550600101610b39565b5090565b6000604051905090565b600080fd5b600080fd5b600080fd5b600080fd5b6000601f19601f8301169050919050565b7f4e487b7100000000000000000000000000000000000000000000000000000000600052604160045260246000fd5b610bbc82610b73565b810181811067ffffffffffffffff82111715610bdb57610bda610b84565b5b80604052505050565b6000610bee610b55565b9050610bfa8282610bb3565b919050565b600067ffffffffffffffff821115610c1a57610c19610b84565b5b610c2382610b73565b9050602081019050919050565b82818337600083830152505050565b6000610c52610c4d84610bff565b610be4565b905082815260208101848484011115610c6e57610c6d610b6e565b5b610c79848285610c30565b509392505050565b600082601f830112610c9657610c95610b69565b5b8135610ca6848260208601610c3f565b91505092915050565b6000819050919050565b610cc281610caf565b8114610ccd57600080fd5b50565b600081359050610cdf81610cb9565b92915050565b600080600060608486031215610cfe57610cfd610b5f565b5b600084013567ffffffffffffffff811115610d1c57610d1b610b64565b5b610d2886828701610c81565b935050602084013567ffffffffffffffff811115610d4957610d48610b64565b5b610d5586828701610c81565b9250506040610d6686828701610cd0565b9150509250925092565b600060208284031215610d8657610d85610b5f565b5b6000610d9484828501610cd0565b91505092915050565b600073ffffffffffffffffffffffffffffffffffffffff82169050919050565b6000610dc882610d9d565b9050919050565b610dd881610dbd565b82525050565b6000602082019050610df36000830184610dcf565b92915050565b600081519050919050565b600082825260208201905092915050565b6000819050602082019050919050565b610e2e81610caf565b82525050565b600081519050919050565b600082825260208201905092915050565b60005b83811015610e6e578082015181840152602081019050610e53565b60008484015250505050565b6000610e8582610e34565b610e8f8185610e3f565b9350610e9f818560208601610e50565b610ea881610b73565b840191505092915050565b6000604083016000830151610ecb6000860182610e25565b5060208301518482036020860152610ee38282610e7a565b9150508091505092915050565b6000610efc8383610eb3565b905092915050565b6000602082019050919050565b6000610f1c82610df9565b610f268185610e04565b935083602082028501610f3885610e15565b8060005b85811015610f745784840389528151610f558582610ef0565b9450610f6083610f04565b925060208a01995050600181019050610f3c565b50829750879550505050505092915050565b60006020820190508181036000830152610fa08184610f11565b905092915050565b600067ffffffffffffffff821115610fc357610fc2610b84565b5b602082029050602081019050919050565b600080fd5b6000610fec610fe784610fa8565b610be4565b9050808382526020820190506020840283018581111561100f5761100e610fd4565b5b835b8181101561103857806110248882610cd0565b845260208401935050602081019050611011565b5050509392505050565b600082601f83011261105757611056610b69565b5b8135611067848260208601610fd9565b91505092915050565b60008060006060848603121561108957611088610b5f565b5b600084013567ffffffffffffffff8111156110a7576110a6610b64565b5b6110b386828701610c81565b93505060206110c486828701610cd0565b925050604084013567ffffffffffffffff8111156110e5576110e4610b64565b5b6110f186828701611042565b9150509250925092565b600081519050919050565b600082825260208201905092915050565b6000819050602082019050919050565b600060408301600083015184820360008601526111448282610e7a565b9150506020830151848203602086015261115e8282610e7a565b9150508091505092915050565b60006111778383611127565b905092915050565b6000602082019050919050565b6000611197826110fb565b6111a18185611106565b9350836020820285016111b385611117565b8060005b858110156111ef57848403895281516111d0858261116b565b94506111db8361117f565b925060208a019950506001810190506111b7565b50829750879550505050505092915050565b6000602082019050818103600083015261121b818461118c565b905092915050565b600082825260208201905092915050565b600061123f82610e34565b6112498185611223565b9350611259818560208601610e50565b61126281610b73565b840191505092915050565b600060408201905081810360008301526112878185611234565b9050818103602083015261129b8184611234565b90509392505050565b7f4162696c697479206964206d7573742062652067726561746572207468616e2060008201527f7a65726f00000000000000000000000000000000000000000000000000000000602082015250565b6000611300602483611223565b915061130b826112a4565b604082019050919050565b6000602082019050818103600083015261132f816112f3565b9050919050565b7f4e487b7100000000000000000000000000000000000000000000000000000000600052602260045260246000fd5b6000600282049050600182168061137d57607f821691505b6020821081036113905761138f611336565b5b50919050565b60008190508160005260206000209050919050565b60006020601f8301049050919050565b600082821b905092915050565b6000600883026113f87fffffffffffffffffffffffffffffffffffffffffffffffffffffffffffffffff826113bb565b61140286836113bb565b95508019841693508086168417925050509392505050565b6000819050919050565b600061143f61143a61143584610caf565b61141a565b610caf565b9050919050565b6000819050919050565b61145983611424565b61146d61146582611446565b8484546113c8565b825550505050565b600090565b611482611475565b61148d818484611450565b505050565b5b818110156114b1576114a660008261147a565b600181019050611493565b5050565b601f8211156114f6576114c781611396565b6114d0846113ab565b810160208510156114df578190505b6114f36114eb856113ab565b830182611492565b50505b505050565b600082821c905092915050565b6000611519600019846008026114fb565b1980831691505092915050565b60006115328383611508565b9150826002028217905092915050565b61154b82610e34565b67ffffffffffffffff81111561156457611563610b84565b5b61156e8254611365565b6115798282856114b5565b600060209050601f8311600181146115ac576000841561159a578287015190505b6115a48582611526565b86555061160c565b601f1984166115ba86611396565b60005b828110156115e2578489015182556001820191506020850194506020810190506115bd565b868310156115ff57848901516115fb601f891682611508565b8355505b6001600288020188555050505b505050505050565b7f506f6b656d6f6e206964206d7573742062652067726561746572207468616e2060008201527f7a65726f00000000000000000000000000000000000000000000000000000000602082015250565b6000611670602483611223565b915061167b82611614565b604082019050919050565b6000602082019050818103600083015261169f81611663565b9050919050565b7f706f6b656d6f6e206e616d65206d75737420626520677265617465722074686160008201527f6e20322063686172616374657273000000000000000000000000000000000000602082015250565b6000611702602e83611223565b915061170d826116a6565b604082019050919050565b60006020820190508181036000830152611731816116f5565b9050919050565b7f4e487b7100000000000000000000000000000000000000000000000000000000600052601160045260246000fd5b600061177282610caf565b91507fffffffffffffffffffffffffffffffffffffffffffffffffffffffffffffffff82036117a4576117a3611738565b5b600182019050919050565b7f6e657720706f6b656d6f6e206974732063726561746500000000000000000000600082015250565b60006117e5601683611223565b91506117f0826117af565b602082019050919050565b60006040820190506118106000830184610dcf565b8181036020830152611821816117d8565b905092915050565b7f4e487b7100000000000000000000000000000000000000000000000000000000600052603260045260246000fdfea2646970667358221220f2a7846d953cd302106832b3a0833b3a4d1e3a77d784e4071c4e539fb05993bd64736f6c63430008120033",
  "linkReferences": {},
  "deployedLinkReferences": {}
}