{
  "_format": "hh-sol-artifact-1",
  "contractName": "VisitCounter",
  "sourceName": "contracts/VisitCounter.sol",
  "abi": [
    {
      "inputs": [
        {
          "internalType": "address",
          "name": "_addr",
          "type": "address"
        }
      ],
      "name": "getPeople",
      "outputs": [
        {
          "components": [
            {
              "internalType": "uint256",
              "name": "counter",
              "type": "uint256"
            },
            {
              "internalType": "string[]",
              "name": "messages",
              "type": "string[]"
            }
          ],
          "internalType": "struct VisitCounter.Person",
          "name": "",
          "type": "tuple"
        }
      ],
      "stateMutability": "view",
      "type": "function"
    },
    {
      "inputs": [
        {
          "internalType": "string",
          "name": "_message",
          "type": "string"
        }
      ],
      "name": "visit",
      "outputs": [
        {
          "internalType": "uint256",
          "name": "",
          "type": "uint256"
        }
      ],
      "stateMutability": "nonpayable",
      "type": "function"
    }
  ],
  "bytecode": "0x608060405234801561001057600080fd5b506109e7806100206000396000f3fe608060405234801561001057600080fd5b50600436106100365760003560e01c80633fc69d471461003b578063bb867d2c1461006b575b600080fd5b61005560048036038101906100509190610351565b61009b565b6040516100629190610526565b60405180910390f35b610085600480360381019061008091906105ad565b6101d6565b6040516100929190610609565b60405180910390f35b6100a36102cf565b6000808373ffffffffffffffffffffffffffffffffffffffff1673ffffffffffffffffffffffffffffffffffffffff1681526020019081526020016000206040518060400160405290816000820154815260200160018201805480602002602001604051908101604052809291908181526020016000905b828210156101c757838290600052602060002001805461013a90610653565b80601f016020809104026020016040519081016040528092919081815260200182805461016690610653565b80156101b35780601f10610188576101008083540402835291602001916101b3565b820191906000526020600020905b81548152906001019060200180831161019657829003601f168201915b50505050508152602001906001019061011b565b50505050815250509050919050565b60008060003373ffffffffffffffffffffffffffffffffffffffff1673ffffffffffffffffffffffffffffffffffffffff168152602001908152602001600020600001600081548092919061022a906106b3565b91905055506000803373ffffffffffffffffffffffffffffffffffffffff1673ffffffffffffffffffffffffffffffffffffffff1681526020019081526020016000206001018383909180600181540180825580915050600190039060005260206000200160009091929091929091929091925091826102ab9291906108e1565b50600160008154809291906102bf906106b3565b9190505550600154905092915050565b604051806040016040528060008152602001606081525090565b600080fd5b600080fd5b600073ffffffffffffffffffffffffffffffffffffffff82169050919050565b600061031e826102f3565b9050919050565b61032e81610313565b811461033957600080fd5b50565b60008135905061034b81610325565b92915050565b600060208284031215610367576103666102e9565b5b60006103758482850161033c565b91505092915050565b6000819050919050565b6103918161037e565b82525050565b600081519050919050565b600082825260208201905092915050565b6000819050602082019050919050565b600081519050919050565b600082825260208201905092915050565b60005b838110156103fd5780820151818401526020810190506103e2565b60008484015250505050565b6000601f19601f8301169050919050565b6000610425826103c3565b61042f81856103ce565b935061043f8185602086016103df565b61044881610409565b840191505092915050565b600061045f838361041a565b905092915050565b6000602082019050919050565b600061047f82610397565b61048981856103a2565b93508360208202850161049b856103b3565b8060005b858110156104d757848403895281516104b88582610453565b94506104c383610467565b925060208a0199505060018101905061049f565b50829750879550505050505092915050565b60006040830160008301516105016000860182610388565b50602083015184820360208601526105198282610474565b9150508091505092915050565b6000602082019050818103600083015261054081846104e9565b905092915050565b600080fd5b600080fd5b600080fd5b60008083601f84011261056d5761056c610548565b5b8235905067ffffffffffffffff81111561058a5761058961054d565b5b6020830191508360018202830111156105a6576105a5610552565b5b9250929050565b600080602083850312156105c4576105c36102e9565b5b600083013567ffffffffffffffff8111156105e2576105e16102ee565b5b6105ee85828601610557565b92509250509250929050565b6106038161037e565b82525050565b600060208201905061061e60008301846105fa565b92915050565b7f4e487b7100000000000000000000000000000000000000000000000000000000600052602260045260246000fd5b6000600282049050600182168061066b57607f821691505b60208210810361067e5761067d610624565b5b50919050565b7f4e487b7100000000000000000000000000000000000000000000000000000000600052601160045260246000fd5b60006106be8261037e565b91507fffffffffffffffffffffffffffffffffffffffffffffffffffffffffffffffff82036106f0576106ef610684565b5b600182019050919050565b600082905092915050565b7f4e487b7100000000000000000000000000000000000000000000000000000000600052604160045260246000fd5b60008190508160005260206000209050919050565b60006020601f8301049050919050565b600082821b905092915050565b6000600883026107977fffffffffffffffffffffffffffffffffffffffffffffffffffffffffffffffff8261075a565b6107a1868361075a565b95508019841693508086168417925050509392505050565b6000819050919050565b60006107de6107d96107d48461037e565b6107b9565b61037e565b9050919050565b6000819050919050565b6107f8836107c3565b61080c610804826107e5565b848454610767565b825550505050565b600090565b610821610814565b61082c8184846107ef565b505050565b5b8181101561085057610845600082610819565b600181019050610832565b5050565b601f8211156108955761086681610735565b61086f8461074a565b8101602085101561087e578190505b61089261088a8561074a565b830182610831565b50505b505050565b600082821c905092915050565b60006108b86000198460080261089a565b1980831691505092915050565b60006108d183836108a7565b9150826002028217905092915050565b6108eb83836106fb565b67ffffffffffffffff81111561090457610903610706565b5b61090e8254610653565b610919828285610854565b6000601f8311600181146109485760008415610936578287013590505b61094085826108c5565b8655506109a8565b601f19841661095686610735565b60005b8281101561097e57848901358255600182019150602085019450602081019050610959565b8683101561099b5784890135610997601f8916826108a7565b8355505b6001600288020188555050505b5050505050505056fea2646970667358221220f5eaa0620174b2fc83a5a38b59f577cdd004876be6c4406d6694d9588885b4cb64736f6c63430008120033",
  "linkReferences": {},
  "deployedLinkReferences": {}
}