{
  "_format": "hh-sol-artifact-1",
  "contractName": "VisitCounter",
  "sourceName": "contracts/VisitCounter.sol",
  "abi": [
    {
      "inputs": [
        {
          "internalType": "address",
          "name": "_addr",
          "type": "address"
        }
      ],
      "name": "getPeople",
      "outputs": [
        {
          "components": [
            {
              "internalType": "uint256",
              "name": "counter",
              "type": "uint256"
            },
            {
              "internalType": "string[]",
              "name": "messages",
              "type": "string[]"
            }
          ],
          "internalType": "struct VisitCounter.Person",
          "name": "",
          "type": "tuple"
        }
      ],
      "stateMutability": "view",
      "type": "function"
    },
    {
      "inputs": [],
      "name": "getTotalVisits",
      "outputs": [
        {
          "internalType": "uint256",
          "name": "",
          "type": "uint256"
        }
      ],
      "stateMutability": "view",
      "type": "function"
    },
    {
      "inputs": [
        {
          "internalType": "string",
          "name": "_message",
          "type": "string"
        }
      ],
      "name": "visit",
      "outputs": [
        {
          "internalType": "uint256",
          "name": "",
          "type": "uint256"
        }
      ],
      "stateMutability": "nonpayable",
      "type": "function"
    }
  ],
  "bytecode": "0x608060405234801561001057600080fd5b50610a1a806100206000396000f3fe608060405234801561001057600080fd5b50600436106100415760003560e01c80632ba2c1d8146100465780633fc69d4714610064578063bb867d2c14610094575b600080fd5b61004e6100c4565b60405161005b9190610335565b60405180910390f35b61007e600480360381019061007991906103b8565b6100ce565b60405161008b9190610583565b60405180910390f35b6100ae60048036038101906100a9919061060a565b610209565b6040516100bb9190610335565b60405180910390f35b6000600154905090565b6100d6610302565b6000808373ffffffffffffffffffffffffffffffffffffffff1673ffffffffffffffffffffffffffffffffffffffff1681526020019081526020016000206040518060400160405290816000820154815260200160018201805480602002602001604051908101604052809291908181526020016000905b828210156101fa57838290600052602060002001805461016d90610686565b80601f016020809104026020016040519081016040528092919081815260200182805461019990610686565b80156101e65780601f106101bb576101008083540402835291602001916101e6565b820191906000526020600020905b8154815290600101906020018083116101c957829003601f168201915b50505050508152602001906001019061014e565b50505050815250509050919050565b60008060003373ffffffffffffffffffffffffffffffffffffffff1673ffffffffffffffffffffffffffffffffffffffff168152602001908152602001600020600001600081548092919061025d906106e6565b91905055506000803373ffffffffffffffffffffffffffffffffffffffff1673ffffffffffffffffffffffffffffffffffffffff1681526020019081526020016000206001018383909180600181540180825580915050600190039060005260206000200160009091929091929091929091925091826102de929190610914565b50600160008154809291906102f2906106e6565b9190505550600154905092915050565b604051806040016040528060008152602001606081525090565b6000819050919050565b61032f8161031c565b82525050565b600060208201905061034a6000830184610326565b92915050565b600080fd5b600080fd5b600073ffffffffffffffffffffffffffffffffffffffff82169050919050565b60006103858261035a565b9050919050565b6103958161037a565b81146103a057600080fd5b50565b6000813590506103b28161038c565b92915050565b6000602082840312156103ce576103cd610350565b5b60006103dc848285016103a3565b91505092915050565b6103ee8161031c565b82525050565b600081519050919050565b600082825260208201905092915050565b6000819050602082019050919050565b600081519050919050565b600082825260208201905092915050565b60005b8381101561045a57808201518184015260208101905061043f565b60008484015250505050565b6000601f19601f8301169050919050565b600061048282610420565b61048c818561042b565b935061049c81856020860161043c565b6104a581610466565b840191505092915050565b60006104bc8383610477565b905092915050565b6000602082019050919050565b60006104dc826103f4565b6104e681856103ff565b9350836020820285016104f885610410565b8060005b85811015610534578484038952815161051585826104b0565b9450610520836104c4565b925060208a019950506001810190506104fc565b50829750879550505050505092915050565b600060408301600083015161055e60008601826103e5565b506020830151848203602086015261057682826104d1565b9150508091505092915050565b6000602082019050818103600083015261059d8184610546565b905092915050565b600080fd5b600080fd5b600080fd5b60008083601f8401126105ca576105c96105a5565b5b8235905067ffffffffffffffff8111156105e7576105e66105aa565b5b602083019150836001820283011115610603576106026105af565b5b9250929050565b6000806020838503121561062157610620610350565b5b600083013567ffffffffffffffff81111561063f5761063e610355565b5b61064b858286016105b4565b92509250509250929050565b7f4e487b7100000000000000000000000000000000000000000000000000000000600052602260045260246000fd5b6000600282049050600182168061069e57607f821691505b6020821081036106b1576106b0610657565b5b50919050565b7f4e487b7100000000000000000000000000000000000000000000000000000000600052601160045260246000fd5b60006106f18261031c565b91507fffffffffffffffffffffffffffffffffffffffffffffffffffffffffffffffff8203610723576107226106b7565b5b600182019050919050565b600082905092915050565b7f4e487b7100000000000000000000000000000000000000000000000000000000600052604160045260246000fd5b60008190508160005260206000209050919050565b60006020601f8301049050919050565b600082821b905092915050565b6000600883026107ca7fffffffffffffffffffffffffffffffffffffffffffffffffffffffffffffffff8261078d565b6107d4868361078d565b95508019841693508086168417925050509392505050565b6000819050919050565b600061081161080c6108078461031c565b6107ec565b61031c565b9050919050565b6000819050919050565b61082b836107f6565b61083f61083782610818565b84845461079a565b825550505050565b600090565b610854610847565b61085f818484610822565b505050565b5b818110156108835761087860008261084c565b600181019050610865565b5050565b601f8211156108c85761089981610768565b6108a28461077d565b810160208510156108b1578190505b6108c56108bd8561077d565b830182610864565b50505b505050565b600082821c905092915050565b60006108eb600019846008026108cd565b1980831691505092915050565b600061090483836108da565b9150826002028217905092915050565b61091e838361072e565b67ffffffffffffffff81111561093757610936610739565b5b6109418254610686565b61094c828285610887565b6000601f83116001811461097b5760008415610969578287013590505b61097385826108f8565b8655506109db565b601f19841661098986610768565b60005b828110156109b15784890135825560018201915060208501945060208101905061098c565b868310156109ce57848901356109ca601f8916826108da565b8355505b6001600288020188555050505b5050505050505056fea26469706673582212204cbdfca27bb877478c3c0cd31127316f41d4e45e5c2a2d6596b2cb437a1d2f2d64736f6c63430008120033",
  "linkReferences": {},
  "deployedLinkReferences": {}
}