{"contracts/CrowdFunding.sol":{"CrowdFunding":{"abi":[{"inputs":[{"internalType":"string","name":"_id","type":"string"},{"internalType":"string","name":"_name","type":"string"},{"internalType":"string","name":"_description","type":"string"},{"internalType":"uint256","name":"_fundraisingGoal","type":"uint256"}],"stateMutability":"nonpayable","type":"constructor"},{"inputs":[],"name":"author","outputs":[{"internalType":"address payable","name":"","type":"address"}],"stateMutability":"view","type":"function"},{"inputs":[{"internalType":"string","name":"newState","type":"string"}],"name":"changeProjectState","outputs":[],"stateMutability":"nonpayable","type":"function"},{"inputs":[],"name":"description","outputs":[{"internalType":"string","name":"","type":"string"}],"stateMutability":"view","type":"function"},{"inputs":[],"name":"fundProject","outputs":[],"stateMutability":"payable","type":"function"},{"inputs":[],"name":"fundraisingGoal","outputs":[{"internalType":"uint256","name":"","type":"uint256"}],"stateMutability":"view","type":"function"},{"inputs":[],"name":"funds","outputs":[{"internalType":"uint256","name":"","type":"uint256"}],"stateMutability":"view","type":"function"},{"inputs":[],"name":"id","outputs":[{"internalType":"string","name":"","type":"string"}],"stateMutability":"view","type":"function"},{"inputs":[],"name":"name","outputs":[{"internalType":"string","name":"","type":"string"}],"stateMutability":"view","type":"function"},{"inputs":[],"name":"state","outputs":[{"internalType":"string","name":"","type":"string"}],"stateMutability":"view","type":"function"}],"evm":{"bytecode":{"linkReferences":{},"object":"60806040526040518060400160405280600681526020017f4f70656e65640000000000000000000000000000000000000000000000000000815250600490816200004a919062000380565b503480156200005857600080fd5b50604051620011773803806200117783398181016040528101906200007e9190620005fc565b83600090816200008f919062000380565b508260019081620000a1919062000380565b508160029081620000b3919062000380565b508060068190555033600360006101000a81548173ffffffffffffffffffffffffffffffffffffffff021916908373ffffffffffffffffffffffffffffffffffffffff16021790555050505050620006cb565b600081519050919050565b7f4e487b7100000000000000000000000000000000000000000000000000000000600052604160045260246000fd5b7f4e487b7100000000000000000000000000000000000000000000000000000000600052602260045260246000fd5b600060028204905060018216806200018857607f821691505b6020821081036200019e576200019d62000140565b5b50919050565b60008190508160005260206000209050919050565b60006020601f8301049050919050565b600082821b905092915050565b600060088302620002087fffffffffffffffffffffffffffffffffffffffffffffffffffffffffffffffff82620001c9565b620002148683620001c9565b95508019841693508086168417925050509392505050565b6000819050919050565b6000819050919050565b6000620002616200025b62000255846200022c565b62000236565b6200022c565b9050919050565b6000819050919050565b6200027d8362000240565b620002956200028c8262000268565b848454620001d6565b825550505050565b600090565b620002ac6200029d565b620002b981848462000272565b505050565b5b81811015620002e157620002d5600082620002a2565b600181019050620002bf565b5050565b601f8211156200033057620002fa81620001a4565b6200030584620001b9565b8101602085101562000315578190505b6200032d6200032485620001b9565b830182620002be565b50505b505050565b600082821c905092915050565b6000620003556000198460080262000335565b1980831691505092915050565b600062000370838362000342565b9150826002028217905092915050565b6200038b8262000106565b67ffffffffffffffff811115620003a757620003a662000111565b5b620003b382546200016f565b620003c0828285620002e5565b600060209050601f831160018114620003f85760008415620003e3578287015190505b620003ef858262000362565b8655506200045f565b601f1984166200040886620001a4565b60005b8281101562000432578489015182556001820191506020850194506020810190506200040b565b868310156200045257848901516200044e601f89168262000342565b8355505b6001600288020188555050505b505050505050565b6000604051905090565b600080fd5b600080fd5b600080fd5b600080fd5b6000601f19601f8301169050919050565b620004a18262000485565b810181811067ffffffffffffffff82111715620004c357620004c262000111565b5b80604052505050565b6000620004d862000467565b9050620004e6828262000496565b919050565b600067ffffffffffffffff82111562000509576200050862000111565b5b620005148262000485565b9050602081019050919050565b60005b838110156200054157808201518184015260208101905062000524565b60008484015250505050565b6000620005646200055e84620004eb565b620004cc565b90508281526020810184848401111562000583576200058262000480565b5b6200059084828562000521565b509392505050565b600082601f830112620005b057620005af6200047b565b5b8151620005c28482602086016200054d565b91505092915050565b620005d6816200022c565b8114620005e257600080fd5b50565b600081519050620005f681620005cb565b92915050565b6000806000806080858703121562000619576200061862000471565b5b600085015167ffffffffffffffff8111156200063a576200063962000476565b5b620006488782880162000598565b945050602085015167ffffffffffffffff8111156200066c576200066b62000476565b5b6200067a8782880162000598565b935050604085015167ffffffffffffffff8111156200069e576200069d62000476565b5b620006ac8782880162000598565b9250506060620006bf87828801620005e5565b91505092959194509250565b610a9c80620006db6000396000f3fe6080604052600436106100865760003560e01c8063af640d0f11610059578063af640d0f14610137578063b767050d14610162578063c19d93fb1461018b578063c89f2ce4146101b6578063d63dc661146101e157610086565b806306fdde031461008b5780637284e416146100b65780639e7b08d5146100e1578063a6c3e6b91461010c575b600080fd5b34801561009757600080fd5b506100a06101eb565b6040516100ad919061057f565b60405180910390f35b3480156100c257600080fd5b506100cb610279565b6040516100d8919061057f565b60405180910390f35b3480156100ed57600080fd5b506100f6610307565b60405161010391906105ba565b60405180910390f35b34801561011857600080fd5b5061012161030d565b60405161012e9190610616565b60405180910390f35b34801561014357600080fd5b5061014c610333565b604051610159919061057f565b60405180910390f35b34801561016e57600080fd5b50610189600480360381019061018491906106a0565b6103c1565b005b34801561019757600080fd5b506101a06103d7565b6040516101ad919061057f565b60405180910390f35b3480156101c257600080fd5b506101cb610465565b6040516101d891906105ba565b60405180910390f35b6101e961046b565b005b600180546101f89061071c565b80601f01602080910402602001604051908101604052809291908181526020018280546102249061071c565b80156102715780601f1061024657610100808354040283529160200191610271565b820191906000526020600020905b81548152906001019060200180831161025457829003601f168201915b505050505081565b600280546102869061071c565b80601f01602080910402602001604051908101604052809291908181526020018280546102b29061071c565b80156102ff5780601f106102d4576101008083540402835291602001916102ff565b820191906000526020600020905b8154815290600101906020018083116102e257829003601f168201915b505050505081565b60065481565b600360009054906101000a900473ffffffffffffffffffffffffffffffffffffffff1681565b600080546103409061071c565b80601f016020809104026020016040519081016040528092919081815260200182805461036c9061071c565b80156103b95780601f1061038e576101008083540402835291602001916103b9565b820191906000526020600020905b81548152906001019060200180831161039c57829003601f168201915b505050505081565b8181600491826103d2929190610933565b505050565b600480546103e49061071c565b80601f01602080910402602001604051908101604052809291908181526020018280546104109061071c565b801561045d5780601f106104325761010080835404028352916020019161045d565b820191906000526020600020905b81548152906001019060200180831161044057829003601f168201915b505050505081565b60055481565b600360009054906101000a900473ffffffffffffffffffffffffffffffffffffffff1673ffffffffffffffffffffffffffffffffffffffff166108fc349081150290604051600060405180830381858888f193505050501580156104d3573d6000803e3d6000fd5b5034600560008282546104e69190610a32565b92505081905550565b600081519050919050565b600082825260208201905092915050565b60005b8381101561052957808201518184015260208101905061050e565b60008484015250505050565b6000601f19601f8301169050919050565b6000610551826104ef565b61055b81856104fa565b935061056b81856020860161050b565b61057481610535565b840191505092915050565b600060208201905081810360008301526105998184610546565b905092915050565b6000819050919050565b6105b4816105a1565b82525050565b60006020820190506105cf60008301846105ab565b92915050565b600073ffffffffffffffffffffffffffffffffffffffff82169050919050565b6000610600826105d5565b9050919050565b610610816105f5565b82525050565b600060208201905061062b6000830184610607565b92915050565b600080fd5b600080fd5b600080fd5b600080fd5b600080fd5b60008083601f8401126106605761065f61063b565b5b8235905067ffffffffffffffff81111561067d5761067c610640565b5b60208301915083600182028301111561069957610698610645565b5b9250929050565b600080602083850312156106b7576106b6610631565b5b600083013567ffffffffffffffff8111156106d5576106d4610636565b5b6106e18582860161064a565b92509250509250929050565b7f4e487b7100000000000000000000000000000000000000000000000000000000600052602260045260246000fd5b6000600282049050600182168061073457607f821691505b602082108103610747576107466106ed565b5b50919050565b600082905092915050565b7f4e487b7100000000000000000000000000000000000000000000000000000000600052604160045260246000fd5b60008190508160005260206000209050919050565b60006020601f8301049050919050565b600082821b905092915050565b6000600883026107e97fffffffffffffffffffffffffffffffffffffffffffffffffffffffffffffffff826107ac565b6107f386836107ac565b95508019841693508086168417925050509392505050565b6000819050919050565b600061083061082b610826846105a1565b61080b565b6105a1565b9050919050565b6000819050919050565b61084a83610815565b61085e61085682610837565b8484546107b9565b825550505050565b600090565b610873610866565b61087e818484610841565b505050565b5b818110156108a25761089760008261086b565b600181019050610884565b5050565b601f8211156108e7576108b881610787565b6108c18461079c565b810160208510156108d0578190505b6108e46108dc8561079c565b830182610883565b50505b505050565b600082821c905092915050565b600061090a600019846008026108ec565b1980831691505092915050565b600061092383836108f9565b9150826002028217905092915050565b61093d838361074d565b67ffffffffffffffff81111561095657610955610758565b5b610960825461071c565b61096b8282856108a6565b6000601f83116001811461099a5760008415610988578287013590505b6109928582610917565b8655506109fa565b601f1984166109a886610787565b60005b828110156109d0578489013582556001820191506020850194506020810190506109ab565b868310156109ed57848901356109e9601f8916826108f9565b8355505b6001600288020188555050505b50505050505050565b7f4e487b7100000000000000000000000000000000000000000000000000000000600052601160045260246000fd5b6000610a3d826105a1565b9150610a48836105a1565b9250828201905080821115610a6057610a5f610a03565b5b9291505056fea264697066735822122082362893438883901ccdabb6cf98627e6c8dca93ad01ec416213be087b679b4864736f6c63430008120033","opcodes":"PUSH1 0x80 PUSH1 0x40 MSTORE PUSH1 0x40 MLOAD DUP1 PUSH1 0x40 ADD PUSH1 0x40 MSTORE DUP1 PUSH1 0x6 DUP2 MSTORE PUSH1 0x20 ADD PUSH32 0x4F70656E65640000000000000000000000000000000000000000000000000000 DUP2 MSTORE POP PUSH1 0x4 SWAP1 DUP2 PUSH3 0x4A SWAP2 SWAP1 PUSH3 0x380 JUMP JUMPDEST POP CALLVALUE DUP1 ISZERO PUSH3 0x58 JUMPI PUSH1 0x0 DUP1 REVERT JUMPDEST POP PUSH1 0x40 MLOAD PUSH3 0x1177 CODESIZE SUB DUP1 PUSH3 0x1177 DUP4 CODECOPY DUP2 DUP2 ADD PUSH1 0x40 MSTORE DUP2 ADD SWAP1 PUSH3 0x7E SWAP2 SWAP1 PUSH3 0x5FC JUMP JUMPDEST DUP4 PUSH1 0x0 SWAP1 DUP2 PUSH3 0x8F SWAP2 SWAP1 PUSH3 0x380 JUMP JUMPDEST POP DUP3 PUSH1 0x1 SWAP1 DUP2 PUSH3 0xA1 SWAP2 SWAP1 PUSH3 0x380 JUMP JUMPDEST POP DUP2 PUSH1 0x2 SWAP1 DUP2 PUSH3 0xB3 SWAP2 SWAP1 PUSH3 0x380 JUMP JUMPDEST POP DUP1 PUSH1 0x6 DUP2 SWAP1 SSTORE POP CALLER PUSH1 0x3 PUSH1 0x0 PUSH2 0x100 EXP DUP2 SLOAD DUP2 PUSH20 0xFFFFFFFFFFFFFFFFFFFFFFFFFFFFFFFFFFFFFFFF MUL NOT AND SWAP1 DUP4 PUSH20 0xFFFFFFFFFFFFFFFFFFFFFFFFFFFFFFFFFFFFFFFF AND MUL OR SWAP1 SSTORE POP POP POP POP POP PUSH3 0x6CB JUMP JUMPDEST PUSH1 0x0 DUP2 MLOAD SWAP1 POP SWAP2 SWAP1 POP JUMP JUMPDEST PUSH32 0x4E487B7100000000000000000000000000000000000000000000000000000000 PUSH1 0x0 MSTORE PUSH1 0x41 PUSH1 0x4 MSTORE PUSH1 0x24 PUSH1 0x0 REVERT JUMPDEST PUSH32 0x4E487B7100000000000000000000000000000000000000000000000000000000 PUSH1 0x0 MSTORE PUSH1 0x22 PUSH1 0x4 MSTORE PUSH1 0x24 PUSH1 0x0 REVERT JUMPDEST PUSH1 0x0 PUSH1 0x2 DUP3 DIV SWAP1 POP PUSH1 0x1 DUP3 AND DUP1 PUSH3 0x188 JUMPI PUSH1 0x7F DUP3 AND SWAP2 POP JUMPDEST PUSH1 0x20 DUP3 LT DUP2 SUB PUSH3 0x19E JUMPI PUSH3 0x19D PUSH3 0x140 JUMP JUMPDEST JUMPDEST POP SWAP2 SWAP1 POP JUMP JUMPDEST PUSH1 0x0 DUP2 SWAP1 POP DUP2 PUSH1 0x0 MSTORE PUSH1 0x20 PUSH1 0x0 KECCAK256 SWAP1 POP SWAP2 SWAP1 POP JUMP JUMPDEST PUSH1 0x0 PUSH1 0x20 PUSH1 0x1F DUP4 ADD DIV SWAP1 POP SWAP2 SWAP1 POP JUMP JUMPDEST PUSH1 0x0 DUP3 DUP3 SHL SWAP1 POP SWAP3 SWAP2 POP POP JUMP JUMPDEST PUSH1 0x0 PUSH1 0x8 DUP4 MUL PUSH3 0x208 PUSH32 0xFFFFFFFFFFFFFFFFFFFFFFFFFFFFFFFFFFFFFFFFFFFFFFFFFFFFFFFFFFFFFFFF DUP3 PUSH3 0x1C9 JUMP JUMPDEST PUSH3 0x214 DUP7 DUP4 PUSH3 0x1C9 JUMP JUMPDEST SWAP6 POP DUP1 NOT DUP5 AND SWAP4 POP DUP1 DUP7 AND DUP5 OR SWAP3 POP POP POP SWAP4 SWAP3 POP POP POP JUMP JUMPDEST PUSH1 0x0 DUP2 SWAP1 POP SWAP2 SWAP1 POP JUMP JUMPDEST PUSH1 0x0 DUP2 SWAP1 POP SWAP2 SWAP1 POP JUMP JUMPDEST PUSH1 0x0 PUSH3 0x261 PUSH3 0x25B PUSH3 0x255 DUP5 PUSH3 0x22C JUMP JUMPDEST PUSH3 0x236 JUMP JUMPDEST PUSH3 0x22C JUMP JUMPDEST SWAP1 POP SWAP2 SWAP1 POP JUMP JUMPDEST PUSH1 0x0 DUP2 SWAP1 POP SWAP2 SWAP1 POP JUMP JUMPDEST PUSH3 0x27D DUP4 PUSH3 0x240 JUMP JUMPDEST PUSH3 0x295 PUSH3 0x28C DUP3 PUSH3 0x268 JUMP JUMPDEST DUP5 DUP5 SLOAD PUSH3 0x1D6 JUMP JUMPDEST DUP3 SSTORE POP POP POP POP JUMP JUMPDEST PUSH1 0x0 SWAP1 JUMP JUMPDEST PUSH3 0x2AC PUSH3 0x29D JUMP JUMPDEST PUSH3 0x2B9 DUP2 DUP5 DUP5 PUSH3 0x272 JUMP JUMPDEST POP POP POP JUMP JUMPDEST JUMPDEST DUP2 DUP2 LT ISZERO PUSH3 0x2E1 JUMPI PUSH3 0x2D5 PUSH1 0x0 DUP3 PUSH3 0x2A2 JUMP JUMPDEST PUSH1 0x1 DUP2 ADD SWAP1 POP PUSH3 0x2BF JUMP JUMPDEST POP POP JUMP JUMPDEST PUSH1 0x1F DUP3 GT ISZERO PUSH3 0x330 JUMPI PUSH3 0x2FA DUP2 PUSH3 0x1A4 JUMP JUMPDEST PUSH3 0x305 DUP5 PUSH3 0x1B9 JUMP JUMPDEST DUP2 ADD PUSH1 0x20 DUP6 LT ISZERO PUSH3 0x315 JUMPI DUP2 SWAP1 POP JUMPDEST PUSH3 0x32D PUSH3 0x324 DUP6 PUSH3 0x1B9 JUMP JUMPDEST DUP4 ADD DUP3 PUSH3 0x2BE JUMP JUMPDEST POP POP JUMPDEST POP POP POP JUMP JUMPDEST PUSH1 0x0 DUP3 DUP3 SHR SWAP1 POP SWAP3 SWAP2 POP POP JUMP JUMPDEST PUSH1 0x0 PUSH3 0x355 PUSH1 0x0 NOT DUP5 PUSH1 0x8 MUL PUSH3 0x335 JUMP JUMPDEST NOT DUP1 DUP4 AND SWAP2 POP POP SWAP3 SWAP2 POP POP JUMP JUMPDEST PUSH1 0x0 PUSH3 0x370 DUP4 DUP4 PUSH3 0x342 JUMP JUMPDEST SWAP2 POP DUP3 PUSH1 0x2 MUL DUP3 OR SWAP1 POP SWAP3 SWAP2 POP POP JUMP JUMPDEST PUSH3 0x38B DUP3 PUSH3 0x106 JUMP JUMPDEST PUSH8 0xFFFFFFFFFFFFFFFF DUP2 GT ISZERO PUSH3 0x3A7 JUMPI PUSH3 0x3A6 PUSH3 0x111 JUMP JUMPDEST JUMPDEST PUSH3 0x3B3 DUP3 SLOAD PUSH3 0x16F JUMP JUMPDEST PUSH3 0x3C0 DUP3 DUP3 DUP6 PUSH3 0x2E5 JUMP JUMPDEST PUSH1 0x0 PUSH1 0x20 SWAP1 POP PUSH1 0x1F DUP4 GT PUSH1 0x1 DUP2 EQ PUSH3 0x3F8 JUMPI PUSH1 0x0 DUP5 ISZERO PUSH3 0x3E3 JUMPI DUP3 DUP8 ADD MLOAD SWAP1 POP JUMPDEST PUSH3 0x3EF DUP6 DUP3 PUSH3 0x362 JUMP JUMPDEST DUP7 SSTORE POP PUSH3 0x45F JUMP JUMPDEST PUSH1 0x1F NOT DUP5 AND PUSH3 0x408 DUP7 PUSH3 0x1A4 JUMP JUMPDEST PUSH1 0x0 JUMPDEST DUP3 DUP2 LT ISZERO PUSH3 0x432 JUMPI DUP5 DUP10 ADD MLOAD DUP3 SSTORE PUSH1 0x1 DUP3 ADD SWAP2 POP PUSH1 0x20 DUP6 ADD SWAP5 POP PUSH1 0x20 DUP2 ADD SWAP1 POP PUSH3 0x40B JUMP JUMPDEST DUP7 DUP4 LT ISZERO PUSH3 0x452 JUMPI DUP5 DUP10 ADD MLOAD PUSH3 0x44E PUSH1 0x1F DUP10 AND DUP3 PUSH3 0x342 JUMP JUMPDEST DUP4 SSTORE POP JUMPDEST PUSH1 0x1 PUSH1 0x2 DUP9 MUL ADD DUP9 SSTORE POP POP POP JUMPDEST POP POP POP POP POP POP JUMP JUMPDEST PUSH1 0x0 PUSH1 0x40 MLOAD SWAP1 POP SWAP1 JUMP JUMPDEST PUSH1 0x0 DUP1 REVERT JUMPDEST PUSH1 0x0 DUP1 REVERT JUMPDEST PUSH1 0x0 DUP1 REVERT JUMPDEST PUSH1 0x0 DUP1 REVERT JUMPDEST PUSH1 0x0 PUSH1 0x1F NOT PUSH1 0x1F DUP4 ADD AND SWAP1 POP SWAP2 SWAP1 POP JUMP JUMPDEST PUSH3 0x4A1 DUP3 PUSH3 0x485 JUMP JUMPDEST DUP2 ADD DUP2 DUP2 LT PUSH8 0xFFFFFFFFFFFFFFFF DUP3 GT OR ISZERO PUSH3 0x4C3 JUMPI PUSH3 0x4C2 PUSH3 0x111 JUMP JUMPDEST JUMPDEST DUP1 PUSH1 0x40 MSTORE POP POP POP JUMP JUMPDEST PUSH1 0x0 PUSH3 0x4D8 PUSH3 0x467 JUMP JUMPDEST SWAP1 POP PUSH3 0x4E6 DUP3 DUP3 PUSH3 0x496 JUMP JUMPDEST SWAP2 SWAP1 POP JUMP JUMPDEST PUSH1 0x0 PUSH8 0xFFFFFFFFFFFFFFFF DUP3 GT ISZERO PUSH3 0x509 JUMPI PUSH3 0x508 PUSH3 0x111 JUMP JUMPDEST JUMPDEST PUSH3 0x514 DUP3 PUSH3 0x485 JUMP JUMPDEST SWAP1 POP PUSH1 0x20 DUP2 ADD SWAP1 POP SWAP2 SWAP1 POP JUMP JUMPDEST PUSH1 0x0 JUMPDEST DUP4 DUP2 LT ISZERO PUSH3 0x541 JUMPI DUP1 DUP3 ADD MLOAD DUP2 DUP5 ADD MSTORE PUSH1 0x20 DUP2 ADD SWAP1 POP PUSH3 0x524 JUMP JUMPDEST PUSH1 0x0 DUP5 DUP5 ADD MSTORE POP POP POP POP JUMP JUMPDEST PUSH1 0x0 PUSH3 0x564 PUSH3 0x55E DUP5 PUSH3 0x4EB JUMP JUMPDEST PUSH3 0x4CC JUMP JUMPDEST SWAP1 POP DUP3 DUP2 MSTORE PUSH1 0x20 DUP2 ADD DUP5 DUP5 DUP5 ADD GT ISZERO PUSH3 0x583 JUMPI PUSH3 0x582 PUSH3 0x480 JUMP JUMPDEST JUMPDEST PUSH3 0x590 DUP5 DUP3 DUP6 PUSH3 0x521 JUMP JUMPDEST POP SWAP4 SWAP3 POP POP POP JUMP JUMPDEST PUSH1 0x0 DUP3 PUSH1 0x1F DUP4 ADD SLT PUSH3 0x5B0 JUMPI PUSH3 0x5AF PUSH3 0x47B JUMP JUMPDEST JUMPDEST DUP2 MLOAD PUSH3 0x5C2 DUP5 DUP3 PUSH1 0x20 DUP7 ADD PUSH3 0x54D JUMP JUMPDEST SWAP2 POP POP SWAP3 SWAP2 POP POP JUMP JUMPDEST PUSH3 0x5D6 DUP2 PUSH3 0x22C JUMP JUMPDEST DUP2 EQ PUSH3 0x5E2 JUMPI PUSH1 0x0 DUP1 REVERT JUMPDEST POP JUMP JUMPDEST PUSH1 0x0 DUP2 MLOAD SWAP1 POP PUSH3 0x5F6 DUP2 PUSH3 0x5CB JUMP JUMPDEST SWAP3 SWAP2 POP POP JUMP JUMPDEST PUSH1 0x0 DUP1 PUSH1 0x0 DUP1 PUSH1 0x80 DUP6 DUP8 SUB SLT ISZERO PUSH3 0x619 JUMPI PUSH3 0x618 PUSH3 0x471 JUMP JUMPDEST JUMPDEST PUSH1 0x0 DUP6 ADD MLOAD PUSH8 0xFFFFFFFFFFFFFFFF DUP2 GT ISZERO PUSH3 0x63A JUMPI PUSH3 0x639 PUSH3 0x476 JUMP JUMPDEST JUMPDEST PUSH3 0x648 DUP8 DUP3 DUP9 ADD PUSH3 0x598 JUMP JUMPDEST SWAP5 POP POP PUSH1 0x20 DUP6 ADD MLOAD PUSH8 0xFFFFFFFFFFFFFFFF DUP2 GT ISZERO PUSH3 0x66C JUMPI PUSH3 0x66B PUSH3 0x476 JUMP JUMPDEST JUMPDEST PUSH3 0x67A DUP8 DUP3 DUP9 ADD PUSH3 0x598 JUMP JUMPDEST SWAP4 POP POP PUSH1 0x40 DUP6 ADD MLOAD PUSH8 0xFFFFFFFFFFFFFFFF DUP2 GT ISZERO PUSH3 0x69E JUMPI PUSH3 0x69D PUSH3 0x476 JUMP JUMPDEST JUMPDEST PUSH3 0x6AC DUP8 DUP3 DUP9 ADD PUSH3 0x598 JUMP JUMPDEST SWAP3 POP POP PUSH1 0x60 PUSH3 0x6BF DUP8 DUP3 DUP9 ADD PUSH3 0x5E5 JUMP JUMPDEST SWAP2 POP POP SWAP3 SWAP6 SWAP2 SWAP5 POP SWAP3 POP JUMP JUMPDEST PUSH2 0xA9C DUP1 PUSH3 0x6DB PUSH1 0x0 CODECOPY PUSH1 0x0 RETURN INVALID PUSH1 0x80 PUSH1 0x40 MSTORE PUSH1 0x4 CALLDATASIZE LT PUSH2 0x86 JUMPI PUSH1 0x0 CALLDATALOAD PUSH1 0xE0 SHR DUP1 PUSH4 0xAF640D0F GT PUSH2 0x59 JUMPI DUP1 PUSH4 0xAF640D0F EQ PUSH2 0x137 JUMPI DUP1 PUSH4 0xB767050D EQ PUSH2 0x162 JUMPI DUP1 PUSH4 0xC19D93FB EQ PUSH2 0x18B JUMPI DUP1 PUSH4 0xC89F2CE4 EQ PUSH2 0x1B6 JUMPI DUP1 PUSH4 0xD63DC661 EQ PUSH2 0x1E1 JUMPI PUSH2 0x86 JUMP JUMPDEST DUP1 PUSH4 0x6FDDE03 EQ PUSH2 0x8B JUMPI DUP1 PUSH4 0x7284E416 EQ PUSH2 0xB6 JUMPI DUP1 PUSH4 0x9E7B08D5 EQ PUSH2 0xE1 JUMPI DUP1 PUSH4 0xA6C3E6B9 EQ PUSH2 0x10C JUMPI JUMPDEST PUSH1 0x0 DUP1 REVERT JUMPDEST CALLVALUE DUP1 ISZERO PUSH2 0x97 JUMPI PUSH1 0x0 DUP1 REVERT JUMPDEST POP PUSH2 0xA0 PUSH2 0x1EB JUMP JUMPDEST PUSH1 0x40 MLOAD PUSH2 0xAD SWAP2 SWAP1 PUSH2 0x57F JUMP JUMPDEST PUSH1 0x40 MLOAD DUP1 SWAP2 SUB SWAP1 RETURN JUMPDEST CALLVALUE DUP1 ISZERO PUSH2 0xC2 JUMPI PUSH1 0x0 DUP1 REVERT JUMPDEST POP PUSH2 0xCB PUSH2 0x279 JUMP JUMPDEST PUSH1 0x40 MLOAD PUSH2 0xD8 SWAP2 SWAP1 PUSH2 0x57F JUMP JUMPDEST PUSH1 0x40 MLOAD DUP1 SWAP2 SUB SWAP1 RETURN JUMPDEST CALLVALUE DUP1 ISZERO PUSH2 0xED JUMPI PUSH1 0x0 DUP1 REVERT JUMPDEST POP PUSH2 0xF6 PUSH2 0x307 JUMP JUMPDEST PUSH1 0x40 MLOAD PUSH2 0x103 SWAP2 SWAP1 PUSH2 0x5BA JUMP JUMPDEST PUSH1 0x40 MLOAD DUP1 SWAP2 SUB SWAP1 RETURN JUMPDEST CALLVALUE DUP1 ISZERO PUSH2 0x118 JUMPI PUSH1 0x0 DUP1 REVERT JUMPDEST POP PUSH2 0x121 PUSH2 0x30D JUMP JUMPDEST PUSH1 0x40 MLOAD PUSH2 0x12E SWAP2 SWAP1 PUSH2 0x616 JUMP JUMPDEST PUSH1 0x40 MLOAD DUP1 SWAP2 SUB SWAP1 RETURN JUMPDEST CALLVALUE DUP1 ISZERO PUSH2 0x143 JUMPI PUSH1 0x0 DUP1 REVERT JUMPDEST POP PUSH2 0x14C PUSH2 0x333 JUMP JUMPDEST PUSH1 0x40 MLOAD PUSH2 0x159 SWAP2 SWAP1 PUSH2 0x57F JUMP JUMPDEST PUSH1 0x40 MLOAD DUP1 SWAP2 SUB SWAP1 RETURN JUMPDEST CALLVALUE DUP1 ISZERO PUSH2 0x16E JUMPI PUSH1 0x0 DUP1 REVERT JUMPDEST POP PUSH2 0x189 PUSH1 0x4 DUP1 CALLDATASIZE SUB DUP2 ADD SWAP1 PUSH2 0x184 SWAP2 SWAP1 PUSH2 0x6A0 JUMP JUMPDEST PUSH2 0x3C1 JUMP JUMPDEST STOP JUMPDEST CALLVALUE DUP1 ISZERO PUSH2 0x197 JUMPI PUSH1 0x0 DUP1 REVERT JUMPDEST POP PUSH2 0x1A0 PUSH2 0x3D7 JUMP JUMPDEST PUSH1 0x40 MLOAD PUSH2 0x1AD SWAP2 SWAP1 PUSH2 0x57F JUMP JUMPDEST PUSH1 0x40 MLOAD DUP1 SWAP2 SUB SWAP1 RETURN JUMPDEST CALLVALUE DUP1 ISZERO PUSH2 0x1C2 JUMPI PUSH1 0x0 DUP1 REVERT JUMPDEST POP PUSH2 0x1CB PUSH2 0x465 JUMP JUMPDEST PUSH1 0x40 MLOAD PUSH2 0x1D8 SWAP2 SWAP1 PUSH2 0x5BA JUMP JUMPDEST PUSH1 0x40 MLOAD DUP1 SWAP2 SUB SWAP1 RETURN JUMPDEST PUSH2 0x1E9 PUSH2 0x46B JUMP JUMPDEST STOP JUMPDEST PUSH1 0x1 DUP1 SLOAD PUSH2 0x1F8 SWAP1 PUSH2 0x71C JUMP JUMPDEST DUP1 PUSH1 0x1F ADD PUSH1 0x20 DUP1 SWAP2 DIV MUL PUSH1 0x20 ADD PUSH1 0x40 MLOAD SWAP1 DUP2 ADD PUSH1 0x40 MSTORE DUP1 SWAP3 SWAP2 SWAP1 DUP2 DUP2 MSTORE PUSH1 0x20 ADD DUP3 DUP1 SLOAD PUSH2 0x224 SWAP1 PUSH2 0x71C JUMP JUMPDEST DUP1 ISZERO PUSH2 0x271 JUMPI DUP1 PUSH1 0x1F LT PUSH2 0x246 JUMPI PUSH2 0x100 DUP1 DUP4 SLOAD DIV MUL DUP4 MSTORE SWAP2 PUSH1 0x20 ADD SWAP2 PUSH2 0x271 JUMP JUMPDEST DUP3 ADD SWAP2 SWAP1 PUSH1 0x0 MSTORE PUSH1 0x20 PUSH1 0x0 KECCAK256 SWAP1 JUMPDEST DUP2 SLOAD DUP2 MSTORE SWAP1 PUSH1 0x1 ADD SWAP1 PUSH1 0x20 ADD DUP1 DUP4 GT PUSH2 0x254 JUMPI DUP3 SWAP1 SUB PUSH1 0x1F AND DUP3 ADD SWAP2 JUMPDEST POP POP POP POP POP DUP2 JUMP JUMPDEST PUSH1 0x2 DUP1 SLOAD PUSH2 0x286 SWAP1 PUSH2 0x71C JUMP JUMPDEST DUP1 PUSH1 0x1F ADD PUSH1 0x20 DUP1 SWAP2 DIV MUL PUSH1 0x20 ADD PUSH1 0x40 MLOAD SWAP1 DUP2 ADD PUSH1 0x40 MSTORE DUP1 SWAP3 SWAP2 SWAP1 DUP2 DUP2 MSTORE PUSH1 0x20 ADD DUP3 DUP1 SLOAD PUSH2 0x2B2 SWAP1 PUSH2 0x71C JUMP JUMPDEST DUP1 ISZERO PUSH2 0x2FF JUMPI DUP1 PUSH1 0x1F LT PUSH2 0x2D4 JUMPI PUSH2 0x100 DUP1 DUP4 SLOAD DIV MUL DUP4 MSTORE SWAP2 PUSH1 0x20 ADD SWAP2 PUSH2 0x2FF JUMP JUMPDEST DUP3 ADD SWAP2 SWAP1 PUSH1 0x0 MSTORE PUSH1 0x20 PUSH1 0x0 KECCAK256 SWAP1 JUMPDEST DUP2 SLOAD DUP2 MSTORE SWAP1 PUSH1 0x1 ADD SWAP1 PUSH1 0x20 ADD DUP1 DUP4 GT PUSH2 0x2E2 JUMPI DUP3 SWAP1 SUB PUSH1 0x1F AND DUP3 ADD SWAP2 JUMPDEST POP POP POP POP POP DUP2 JUMP JUMPDEST PUSH1 0x6 SLOAD DUP2 JUMP JUMPDEST PUSH1 0x3 PUSH1 0x0 SWAP1 SLOAD SWAP1 PUSH2 0x100 EXP SWAP1 DIV PUSH20 0xFFFFFFFFFFFFFFFFFFFFFFFFFFFFFFFFFFFFFFFF AND DUP2 JUMP JUMPDEST PUSH1 0x0 DUP1 SLOAD PUSH2 0x340 SWAP1 PUSH2 0x71C JUMP JUMPDEST DUP1 PUSH1 0x1F ADD PUSH1 0x20 DUP1 SWAP2 DIV MUL PUSH1 0x20 ADD PUSH1 0x40 MLOAD SWAP1 DUP2 ADD PUSH1 0x40 MSTORE DUP1 SWAP3 SWAP2 SWAP1 DUP2 DUP2 MSTORE PUSH1 0x20 ADD DUP3 DUP1 SLOAD PUSH2 0x36C SWAP1 PUSH2 0x71C JUMP JUMPDEST DUP1 ISZERO PUSH2 0x3B9 JUMPI DUP1 PUSH1 0x1F LT PUSH2 0x38E JUMPI PUSH2 0x100 DUP1 DUP4 SLOAD DIV MUL DUP4 MSTORE SWAP2 PUSH1 0x20 ADD SWAP2 PUSH2 0x3B9 JUMP JUMPDEST DUP3 ADD SWAP2 SWAP1 PUSH1 0x0 MSTORE PUSH1 0x20 PUSH1 0x0 KECCAK256 SWAP1 JUMPDEST DUP2 SLOAD DUP2 MSTORE SWAP1 PUSH1 0x1 ADD SWAP1 PUSH1 0x20 ADD DUP1 DUP4 GT PUSH2 0x39C JUMPI DUP3 SWAP1 SUB PUSH1 0x1F AND DUP3 ADD SWAP2 JUMPDEST POP POP POP POP POP DUP2 JUMP JUMPDEST DUP2 DUP2 PUSH1 0x4 SWAP2 DUP3 PUSH2 0x3D2 SWAP3 SWAP2 SWAP1 PUSH2 0x933 JUMP JUMPDEST POP POP POP JUMP JUMPDEST PUSH1 0x4 DUP1 SLOAD PUSH2 0x3E4 SWAP1 PUSH2 0x71C JUMP JUMPDEST DUP1 PUSH1 0x1F ADD PUSH1 0x20 DUP1 SWAP2 DIV MUL PUSH1 0x20 ADD PUSH1 0x40 MLOAD SWAP1 DUP2 ADD PUSH1 0x40 MSTORE DUP1 SWAP3 SWAP2 SWAP1 DUP2 DUP2 MSTORE PUSH1 0x20 ADD DUP3 DUP1 SLOAD PUSH2 0x410 SWAP1 PUSH2 0x71C JUMP JUMPDEST DUP1 ISZERO PUSH2 0x45D JUMPI DUP1 PUSH1 0x1F LT PUSH2 0x432 JUMPI PUSH2 0x100 DUP1 DUP4 SLOAD DIV MUL DUP4 MSTORE SWAP2 PUSH1 0x20 ADD SWAP2 PUSH2 0x45D JUMP JUMPDEST DUP3 ADD SWAP2 SWAP1 PUSH1 0x0 MSTORE PUSH1 0x20 PUSH1 0x0 KECCAK256 SWAP1 JUMPDEST DUP2 SLOAD DUP2 MSTORE SWAP1 PUSH1 0x1 ADD SWAP1 PUSH1 0x20 ADD DUP1 DUP4 GT PUSH2 0x440 JUMPI DUP3 SWAP1 SUB PUSH1 0x1F AND DUP3 ADD SWAP2 JUMPDEST POP POP POP POP POP DUP2 JUMP JUMPDEST PUSH1 0x5 SLOAD DUP2 JUMP JUMPDEST PUSH1 0x3 PUSH1 0x0 SWAP1 SLOAD SWAP1 PUSH2 0x100 EXP SWAP1 DIV PUSH20 0xFFFFFFFFFFFFFFFFFFFFFFFFFFFFFFFFFFFFFFFF AND PUSH20 0xFFFFFFFFFFFFFFFFFFFFFFFFFFFFFFFFFFFFFFFF AND PUSH2 0x8FC CALLVALUE SWAP1 DUP2 ISZERO MUL SWAP1 PUSH1 0x40 MLOAD PUSH1 0x0 PUSH1 0x40 MLOAD DUP1 DUP4 SUB DUP2 DUP6 DUP9 DUP9 CALL SWAP4 POP POP POP POP ISZERO DUP1 ISZERO PUSH2 0x4D3 JUMPI RETURNDATASIZE PUSH1 0x0 DUP1 RETURNDATACOPY RETURNDATASIZE PUSH1 0x0 REVERT JUMPDEST POP CALLVALUE PUSH1 0x5 PUSH1 0x0 DUP3 DUP3 SLOAD PUSH2 0x4E6 SWAP2 SWAP1 PUSH2 0xA32 JUMP JUMPDEST SWAP3 POP POP DUP2 SWAP1 SSTORE POP JUMP JUMPDEST PUSH1 0x0 DUP2 MLOAD SWAP1 POP SWAP2 SWAP1 POP JUMP JUMPDEST PUSH1 0x0 DUP3 DUP3 MSTORE PUSH1 0x20 DUP3 ADD SWAP1 POP SWAP3 SWAP2 POP POP JUMP JUMPDEST PUSH1 0x0 JUMPDEST DUP4 DUP2 LT ISZERO PUSH2 0x529 JUMPI DUP1 DUP3 ADD MLOAD DUP2 DUP5 ADD MSTORE PUSH1 0x20 DUP2 ADD SWAP1 POP PUSH2 0x50E JUMP JUMPDEST PUSH1 0x0 DUP5 DUP5 ADD MSTORE POP POP POP POP JUMP JUMPDEST PUSH1 0x0 PUSH1 0x1F NOT PUSH1 0x1F DUP4 ADD AND SWAP1 POP SWAP2 SWAP1 POP JUMP JUMPDEST PUSH1 0x0 PUSH2 0x551 DUP3 PUSH2 0x4EF JUMP JUMPDEST PUSH2 0x55B DUP2 DUP6 PUSH2 0x4FA JUMP JUMPDEST SWAP4 POP PUSH2 0x56B DUP2 DUP6 PUSH1 0x20 DUP7 ADD PUSH2 0x50B JUMP JUMPDEST PUSH2 0x574 DUP2 PUSH2 0x535 JUMP JUMPDEST DUP5 ADD SWAP2 POP POP SWAP3 SWAP2 POP POP JUMP JUMPDEST PUSH1 0x0 PUSH1 0x20 DUP3 ADD SWAP1 POP DUP2 DUP2 SUB PUSH1 0x0 DUP4 ADD MSTORE PUSH2 0x599 DUP2 DUP5 PUSH2 0x546 JUMP JUMPDEST SWAP1 POP SWAP3 SWAP2 POP POP JUMP JUMPDEST PUSH1 0x0 DUP2 SWAP1 POP SWAP2 SWAP1 POP JUMP JUMPDEST PUSH2 0x5B4 DUP2 PUSH2 0x5A1 JUMP JUMPDEST DUP3 MSTORE POP POP JUMP JUMPDEST PUSH1 0x0 PUSH1 0x20 DUP3 ADD SWAP1 POP PUSH2 0x5CF PUSH1 0x0 DUP4 ADD DUP5 PUSH2 0x5AB JUMP JUMPDEST SWAP3 SWAP2 POP POP JUMP JUMPDEST PUSH1 0x0 PUSH20 0xFFFFFFFFFFFFFFFFFFFFFFFFFFFFFFFFFFFFFFFF DUP3 AND SWAP1 POP SWAP2 SWAP1 POP JUMP JUMPDEST PUSH1 0x0 PUSH2 0x600 DUP3 PUSH2 0x5D5 JUMP JUMPDEST SWAP1 POP SWAP2 SWAP1 POP JUMP JUMPDEST PUSH2 0x610 DUP2 PUSH2 0x5F5 JUMP JUMPDEST DUP3 MSTORE POP POP JUMP JUMPDEST PUSH1 0x0 PUSH1 0x20 DUP3 ADD SWAP1 POP PUSH2 0x62B PUSH1 0x0 DUP4 ADD DUP5 PUSH2 0x607 JUMP JUMPDEST SWAP3 SWAP2 POP POP JUMP JUMPDEST PUSH1 0x0 DUP1 REVERT JUMPDEST PUSH1 0x0 DUP1 REVERT JUMPDEST PUSH1 0x0 DUP1 REVERT JUMPDEST PUSH1 0x0 DUP1 REVERT JUMPDEST PUSH1 0x0 DUP1 REVERT JUMPDEST PUSH1 0x0 DUP1 DUP4 PUSH1 0x1F DUP5 ADD SLT PUSH2 0x660 JUMPI PUSH2 0x65F PUSH2 0x63B JUMP JUMPDEST JUMPDEST DUP3 CALLDATALOAD SWAP1 POP PUSH8 0xFFFFFFFFFFFFFFFF DUP2 GT ISZERO PUSH2 0x67D JUMPI PUSH2 0x67C PUSH2 0x640 JUMP JUMPDEST JUMPDEST PUSH1 0x20 DUP4 ADD SWAP2 POP DUP4 PUSH1 0x1 DUP3 MUL DUP4 ADD GT ISZERO PUSH2 0x699 JUMPI PUSH2 0x698 PUSH2 0x645 JUMP JUMPDEST JUMPDEST SWAP3 POP SWAP3 SWAP1 POP JUMP JUMPDEST PUSH1 0x0 DUP1 PUSH1 0x20 DUP4 DUP6 SUB SLT ISZERO PUSH2 0x6B7 JUMPI PUSH2 0x6B6 PUSH2 0x631 JUMP JUMPDEST JUMPDEST PUSH1 0x0 DUP4 ADD CALLDATALOAD PUSH8 0xFFFFFFFFFFFFFFFF DUP2 GT ISZERO PUSH2 0x6D5 JUMPI PUSH2 0x6D4 PUSH2 0x636 JUMP JUMPDEST JUMPDEST PUSH2 0x6E1 DUP6 DUP3 DUP7 ADD PUSH2 0x64A JUMP JUMPDEST SWAP3 POP SWAP3 POP POP SWAP3 POP SWAP3 SWAP1 POP JUMP JUMPDEST PUSH32 0x4E487B7100000000000000000000000000000000000000000000000000000000 PUSH1 0x0 MSTORE PUSH1 0x22 PUSH1 0x4 MSTORE PUSH1 0x24 PUSH1 0x0 REVERT JUMPDEST PUSH1 0x0 PUSH1 0x2 DUP3 DIV SWAP1 POP PUSH1 0x1 DUP3 AND DUP1 PUSH2 0x734 JUMPI PUSH1 0x7F DUP3 AND SWAP2 POP JUMPDEST PUSH1 0x20 DUP3 LT DUP2 SUB PUSH2 0x747 JUMPI PUSH2 0x746 PUSH2 0x6ED JUMP JUMPDEST JUMPDEST POP SWAP2 SWAP1 POP JUMP JUMPDEST PUSH1 0x0 DUP3 SWAP1 POP SWAP3 SWAP2 POP POP JUMP JUMPDEST PUSH32 0x4E487B7100000000000000000000000000000000000000000000000000000000 PUSH1 0x0 MSTORE PUSH1 0x41 PUSH1 0x4 MSTORE PUSH1 0x24 PUSH1 0x0 REVERT JUMPDEST PUSH1 0x0 DUP2 SWAP1 POP DUP2 PUSH1 0x0 MSTORE PUSH1 0x20 PUSH1 0x0 KECCAK256 SWAP1 POP SWAP2 SWAP1 POP JUMP JUMPDEST PUSH1 0x0 PUSH1 0x20 PUSH1 0x1F DUP4 ADD DIV SWAP1 POP SWAP2 SWAP1 POP JUMP JUMPDEST PUSH1 0x0 DUP3 DUP3 SHL SWAP1 POP SWAP3 SWAP2 POP POP JUMP JUMPDEST PUSH1 0x0 PUSH1 0x8 DUP4 MUL PUSH2 0x7E9 PUSH32 0xFFFFFFFFFFFFFFFFFFFFFFFFFFFFFFFFFFFFFFFFFFFFFFFFFFFFFFFFFFFFFFFF DUP3 PUSH2 0x7AC JUMP JUMPDEST PUSH2 0x7F3 DUP7 DUP4 PUSH2 0x7AC JUMP JUMPDEST SWAP6 POP DUP1 NOT DUP5 AND SWAP4 POP DUP1 DUP7 AND DUP5 OR SWAP3 POP POP POP SWAP4 SWAP3 POP POP POP JUMP JUMPDEST PUSH1 0x0 DUP2 SWAP1 POP SWAP2 SWAP1 POP JUMP JUMPDEST PUSH1 0x0 PUSH2 0x830 PUSH2 0x82B PUSH2 0x826 DUP5 PUSH2 0x5A1 JUMP JUMPDEST PUSH2 0x80B JUMP JUMPDEST PUSH2 0x5A1 JUMP JUMPDEST SWAP1 POP SWAP2 SWAP1 POP JUMP JUMPDEST PUSH1 0x0 DUP2 SWAP1 POP SWAP2 SWAP1 POP JUMP JUMPDEST PUSH2 0x84A DUP4 PUSH2 0x815 JUMP JUMPDEST PUSH2 0x85E PUSH2 0x856 DUP3 PUSH2 0x837 JUMP JUMPDEST DUP5 DUP5 SLOAD PUSH2 0x7B9 JUMP JUMPDEST DUP3 SSTORE POP POP POP POP JUMP JUMPDEST PUSH1 0x0 SWAP1 JUMP JUMPDEST PUSH2 0x873 PUSH2 0x866 JUMP JUMPDEST PUSH2 0x87E DUP2 DUP5 DUP5 PUSH2 0x841 JUMP JUMPDEST POP POP POP JUMP JUMPDEST JUMPDEST DUP2 DUP2 LT ISZERO PUSH2 0x8A2 JUMPI PUSH2 0x897 PUSH1 0x0 DUP3 PUSH2 0x86B JUMP JUMPDEST PUSH1 0x1 DUP2 ADD SWAP1 POP PUSH2 0x884 JUMP JUMPDEST POP POP JUMP JUMPDEST PUSH1 0x1F DUP3 GT ISZERO PUSH2 0x8E7 JUMPI PUSH2 0x8B8 DUP2 PUSH2 0x787 JUMP JUMPDEST PUSH2 0x8C1 DUP5 PUSH2 0x79C JUMP JUMPDEST DUP2 ADD PUSH1 0x20 DUP6 LT ISZERO PUSH2 0x8D0 JUMPI DUP2 SWAP1 POP JUMPDEST PUSH2 0x8E4 PUSH2 0x8DC DUP6 PUSH2 0x79C JUMP JUMPDEST DUP4 ADD DUP3 PUSH2 0x883 JUMP JUMPDEST POP POP JUMPDEST POP POP POP JUMP JUMPDEST PUSH1 0x0 DUP3 DUP3 SHR SWAP1 POP SWAP3 SWAP2 POP POP JUMP JUMPDEST PUSH1 0x0 PUSH2 0x90A PUSH1 0x0 NOT DUP5 PUSH1 0x8 MUL PUSH2 0x8EC JUMP JUMPDEST NOT DUP1 DUP4 AND SWAP2 POP POP SWAP3 SWAP2 POP POP JUMP JUMPDEST PUSH1 0x0 PUSH2 0x923 DUP4 DUP4 PUSH2 0x8F9 JUMP JUMPDEST SWAP2 POP DUP3 PUSH1 0x2 MUL DUP3 OR SWAP1 POP SWAP3 SWAP2 POP POP JUMP JUMPDEST PUSH2 0x93D DUP4 DUP4 PUSH2 0x74D JUMP JUMPDEST PUSH8 0xFFFFFFFFFFFFFFFF DUP2 GT ISZERO PUSH2 0x956 JUMPI PUSH2 0x955 PUSH2 0x758 JUMP JUMPDEST JUMPDEST PUSH2 0x960 DUP3 SLOAD PUSH2 0x71C JUMP JUMPDEST PUSH2 0x96B DUP3 DUP3 DUP6 PUSH2 0x8A6 JUMP JUMPDEST PUSH1 0x0 PUSH1 0x1F DUP4 GT PUSH1 0x1 DUP2 EQ PUSH2 0x99A JUMPI PUSH1 0x0 DUP5 ISZERO PUSH2 0x988 JUMPI DUP3 DUP8 ADD CALLDATALOAD SWAP1 POP JUMPDEST PUSH2 0x992 DUP6 DUP3 PUSH2 0x917 JUMP JUMPDEST DUP7 SSTORE POP PUSH2 0x9FA JUMP JUMPDEST PUSH1 0x1F NOT DUP5 AND PUSH2 0x9A8 DUP7 PUSH2 0x787 JUMP JUMPDEST PUSH1 0x0 JUMPDEST DUP3 DUP2 LT ISZERO PUSH2 0x9D0 JUMPI DUP5 DUP10 ADD CALLDATALOAD DUP3 SSTORE PUSH1 0x1 DUP3 ADD SWAP2 POP PUSH1 0x20 DUP6 ADD SWAP5 POP PUSH1 0x20 DUP2 ADD SWAP1 POP PUSH2 0x9AB JUMP JUMPDEST DUP7 DUP4 LT ISZERO PUSH2 0x9ED JUMPI DUP5 DUP10 ADD CALLDATALOAD PUSH2 0x9E9 PUSH1 0x1F DUP10 AND DUP3 PUSH2 0x8F9 JUMP JUMPDEST DUP4 SSTORE POP JUMPDEST PUSH1 0x1 PUSH1 0x2 DUP9 MUL ADD DUP9 SSTORE POP POP POP JUMPDEST POP POP POP POP POP POP POP JUMP JUMPDEST PUSH32 0x4E487B7100000000000000000000000000000000000000000000000000000000 PUSH1 0x0 MSTORE PUSH1 0x11 PUSH1 0x4 MSTORE PUSH1 0x24 PUSH1 0x0 REVERT JUMPDEST PUSH1 0x0 PUSH2 0xA3D DUP3 PUSH2 0x5A1 JUMP JUMPDEST SWAP2 POP PUSH2 0xA48 DUP4 PUSH2 0x5A1 JUMP JUMPDEST SWAP3 POP DUP3 DUP3 ADD SWAP1 POP DUP1 DUP3 GT ISZERO PUSH2 0xA60 JUMPI PUSH2 0xA5F PUSH2 0xA03 JUMP JUMPDEST JUMPDEST SWAP3 SWAP2 POP POP JUMP INVALID LOG2 PUSH5 0x6970667358 0x22 SLT KECCAK256 DUP3 CALLDATASIZE 0x28 SWAP4 NUMBER DUP9 DUP4 SWAP1 SHR 0xCD 0xAB 0xB6 0xCF SWAP9 PUSH3 0x7E6C8D 0xCA SWAP4 0xAD ADD 0xEC COINBASE PUSH3 0x13BE08 PUSH28 0x679B4864736F6C634300081200330000000000000000000000000000 "},"methodIdentifiers":{"author()":"a6c3e6b9","changeProjectState(string)":"b767050d","description()":"7284e416","fundProject()":"d63dc661","fundraisingGoal()":"9e7b08d5","funds()":"c89f2ce4","id()":"af640d0f","name()":"06fdde03","state()":"c19d93fb"}}}}}