{
  "_format": "hh-sol-artifact-1",
  "contractName": "CrowdFunding",
  "sourceName": "contracts/CrowdFunding.sol",
  "abi": [
    {
      "inputs": [
        {
          "internalType": "string",
          "name": "_id",
          "type": "string"
        },
        {
          "internalType": "string",
          "name": "_name",
          "type": "string"
        },
        {
          "internalType": "string",
          "name": "_description",
          "type": "string"
        },
        {
          "internalType": "uint256",
          "name": "_fundraisingGoal",
          "type": "uint256"
        }
      ],
      "stateMutability": "nonpayable",
      "type": "constructor"
    },
    {
      "anonymous": false,
      "inputs": [
        {
          "indexed": false,
          "internalType": "string",
          "name": "projectId",
          "type": "string"
        },
        {
          "indexed": false,
          "internalType": "uint256",
          "name": "value",
          "type": "uint256"
        }
      ],
      "name": "ProjectFunded",
      "type": "event"
    },
    {
      "anonymous": false,
      "inputs": [
        {
          "indexed": false,
          "internalType": "string",
          "name": "projectId",
          "type": "string"
        },
        {
          "indexed": false,
          "internalType": "uint256",
          "name": "state",
          "type": "uint256"
        }
      ],
      "name": "ProjectStateChanged",
      "type": "event"
    },
    {
      "inputs": [
        {
          "internalType": "uint256",
          "name": "newState",
          "type": "uint256"
        }
      ],
      "name": "changeProjectState",
      "outputs": [],
      "stateMutability": "nonpayable",
      "type": "function"
    },
    {
      "inputs": [],
      "name": "fundProject",
      "outputs": [],
      "stateMutability": "payable",
      "type": "function"
    },
    {
      "inputs": [],
      "name": "project",
      "outputs": [
        {
          "internalType": "string",
          "name": "id",
          "type": "string"
        },
        {
          "internalType": "string",
          "name": "name",
          "type": "string"
        },
        {
          "internalType": "string",
          "name": "description",
          "type": "string"
        },
        {
          "internalType": "address payable",
          "name": "author",
          "type": "address"
        },
        {
          "internalType": "uint256",
          "name": "state",
          "type": "uint256"
        },
        {
          "internalType": "uint256",
          "name": "funds",
          "type": "uint256"
        },
        {
          "internalType": "uint256",
          "name": "fundraisingGoal",
          "type": "uint256"
        }
      ],
      "stateMutability": "view",
      "type": "function"
    }
  ],
  "bytecode": "0x60806040523480156200001157600080fd5b50604051620012e0380380620012e083398181016040528101906200003791906200030b565b6040518060e001604052808581526020018481526020018381526020013373ffffffffffffffffffffffffffffffffffffffff1681526020016000815260200160008152602001828152506000808201518160000190816200009a91906200061b565b506020820151816001019081620000b291906200061b565b506040820151816002019081620000ca91906200061b565b5060608201518160030160006101000a81548173ffffffffffffffffffffffffffffffffffffffff021916908373ffffffffffffffffffffffffffffffffffffffff1602179055506080820151816004015560a0820151816005015560c082015181600601559050505050505062000702565b6000604051905090565b600080fd5b600080fd5b600080fd5b600080fd5b6000601f19601f8301169050919050565b7f4e487b7100000000000000000000000000000000000000000000000000000000600052604160045260246000fd5b620001a6826200015b565b810181811067ffffffffffffffff82111715620001c857620001c76200016c565b5b80604052505050565b6000620001dd6200013d565b9050620001eb82826200019b565b919050565b600067ffffffffffffffff8211156200020e576200020d6200016c565b5b62000219826200015b565b9050602081019050919050565b60005b838110156200024657808201518184015260208101905062000229565b60008484015250505050565b6000620002696200026384620001f0565b620001d1565b90508281526020810184848401111562000288576200028762000156565b5b6200029584828562000226565b509392505050565b600082601f830112620002b557620002b462000151565b5b8151620002c784826020860162000252565b91505092915050565b6000819050919050565b620002e581620002d0565b8114620002f157600080fd5b50565b6000815190506200030581620002da565b92915050565b6000806000806080858703121562000328576200032762000147565b5b600085015167ffffffffffffffff8111156200034957620003486200014c565b5b62000357878288016200029d565b945050602085015167ffffffffffffffff8111156200037b576200037a6200014c565b5b62000389878288016200029d565b935050604085015167ffffffffffffffff811115620003ad57620003ac6200014c565b5b620003bb878288016200029d565b9250506060620003ce87828801620002f4565b91505092959194509250565b600081519050919050565b7f4e487b7100000000000000000000000000000000000000000000000000000000600052602260045260246000fd5b600060028204905060018216806200042d57607f821691505b602082108103620004435762000442620003e5565b5b50919050565b60008190508160005260206000209050919050565b60006020601f8301049050919050565b600082821b905092915050565b600060088302620004ad7fffffffffffffffffffffffffffffffffffffffffffffffffffffffffffffffff826200046e565b620004b986836200046e565b95508019841693508086168417925050509392505050565b6000819050919050565b6000620004fc620004f6620004f084620002d0565b620004d1565b620002d0565b9050919050565b6000819050919050565b6200051883620004db565b62000530620005278262000503565b8484546200047b565b825550505050565b600090565b6200054762000538565b620005548184846200050d565b505050565b5b818110156200057c57620005706000826200053d565b6001810190506200055a565b5050565b601f821115620005cb57620005958162000449565b620005a0846200045e565b81016020851015620005b0578190505b620005c8620005bf856200045e565b83018262000559565b50505b505050565b600082821c905092915050565b6000620005f060001984600802620005d0565b1980831691505092915050565b60006200060b8383620005dd565b9150826002028217905092915050565b6200062682620003da565b67ffffffffffffffff8111156200064257620006416200016c565b5b6200064e825462000414565b6200065b82828562000580565b600060209050601f8311600181146200069357600084156200067e578287015190505b6200068a8582620005fd565b865550620006fa565b601f198416620006a38662000449565b60005b82811015620006cd57848901518255600182019150602085019450602081019050620006a6565b86831015620006ed5784890151620006e9601f891682620005dd565b8355505b6001600288020188555050505b505050505050565b610bce80620007126000396000f3fe6080604052600436106100345760003560e01c8063c5f7e4f914610039578063d63dc66114610062578063f60ca60d1461006c575b600080fd5b34801561004557600080fd5b50610060600480360381019061005b91906105c7565b61009d565b005b61006a6101c0565b005b34801561007857600080fd5b506100816103a4565b60405161009497969594939291906106d4565b60405180910390f35b3373ffffffffffffffffffffffffffffffffffffffff16600060030160009054906101000a900473ffffffffffffffffffffffffffffffffffffffff1673ffffffffffffffffffffffffffffffffffffffff1614610130576040517f08c379a0000000000000000000000000000000000000000000000000000000008152600401610127906107ca565b60405180910390fd5b8060006004015403610177576040517f08c379a000000000000000000000000000000000000000000000000000000000815260040161016e90610836565b60405180910390fd5b806000600401819055507fdcda1d6be6147ca2428d0085d2987be6729c6a0f6d678bd00e1d88890003a97b60008001826040516101b592919061094f565b60405180910390a150565b3373ffffffffffffffffffffffffffffffffffffffff16600060030160009054906101000a900473ffffffffffffffffffffffffffffffffffffffff1673ffffffffffffffffffffffffffffffffffffffff1603610253576040517f08c379a000000000000000000000000000000000000000000000000000000000815260040161024a906109f1565b60405180910390fd5b60016000600401540361029b576040517f08c379a000000000000000000000000000000000000000000000000000000000815260040161029290610a83565b60405180910390fd5b600034116102de576040517f08c379a00000000000000000000000000000000000000000000000000000000081526004016102d590610b15565b60405180910390fd5b600060030160009054906101000a900473ffffffffffffffffffffffffffffffffffffffff1673ffffffffffffffffffffffffffffffffffffffff166108fc349081150290604051600060405180830381858888f19350505050158015610349573d6000803e3d6000fd5b50346000600501600082825461035f9190610b64565b925050819055507f925c00924682e835f48a31e5b83cb323934f40a811c5a8f44a662915035033c6600080013460405161039a92919061094f565b60405180910390a1565b60008060000180546103b590610885565b80601f01602080910402602001604051908101604052809291908181526020018280546103e190610885565b801561042e5780601f106104035761010080835404028352916020019161042e565b820191906000526020600020905b81548152906001019060200180831161041157829003601f168201915b50505050509080600101805461044390610885565b80601f016020809104026020016040519081016040528092919081815260200182805461046f90610885565b80156104bc5780601f10610491576101008083540402835291602001916104bc565b820191906000526020600020905b81548152906001019060200180831161049f57829003601f168201915b5050505050908060020180546104d190610885565b80601f01602080910402602001604051908101604052809291908181526020018280546104fd90610885565b801561054a5780601f1061051f5761010080835404028352916020019161054a565b820191906000526020600020905b81548152906001019060200180831161052d57829003601f168201915b5050505050908060030160009054906101000a900473ffffffffffffffffffffffffffffffffffffffff16908060040154908060050154908060060154905087565b600080fd5b6000819050919050565b6105a481610591565b81146105af57600080fd5b50565b6000813590506105c18161059b565b92915050565b6000602082840312156105dd576105dc61058c565b5b60006105eb848285016105b2565b91505092915050565b600081519050919050565b600082825260208201905092915050565b60005b8381101561062e578082015181840152602081019050610613565b60008484015250505050565b6000601f19601f8301169050919050565b6000610656826105f4565b61066081856105ff565b9350610670818560208601610610565b6106798161063a565b840191505092915050565b600073ffffffffffffffffffffffffffffffffffffffff82169050919050565b60006106af82610684565b9050919050565b6106bf816106a4565b82525050565b6106ce81610591565b82525050565b600060e08201905081810360008301526106ee818a61064b565b90508181036020830152610702818961064b565b90508181036040830152610716818861064b565b905061072560608301876106b6565b61073260808301866106c5565b61073f60a08301856106c5565b61074c60c08301846106c5565b98975050505050505050565b7f596f75206e65656420746f206265207468652070726f6a65637420617574686f60008201527f7200000000000000000000000000000000000000000000000000000000000000602082015250565b60006107b46021836105ff565b91506107bf82610758565b604082019050919050565b600060208201905081810360008301526107e3816107a7565b9050919050565b7f4e6577207374617465206d75737420626520646966666572656e740000000000600082015250565b6000610820601b836105ff565b915061082b826107ea565b602082019050919050565b6000602082019050818103600083015261084f81610813565b9050919050565b7f4e487b7100000000000000000000000000000000000000000000000000000000600052602260045260246000fd5b6000600282049050600182168061089d57607f821691505b6020821081036108b0576108af610856565b5b50919050565b60008190508160005260206000209050919050565b600081546108d881610885565b6108e281866105ff565b945060018216600081146108fd576001811461091357610946565b60ff198316865281151560200286019350610946565b61091c856108b6565b60005b8381101561093e5781548189015260018201915060208101905061091f565b808801955050505b50505092915050565b6000604082019050818103600083015261096981856108cb565b905061097860208301846106c5565b9392505050565b7f417320617574686f7220796f752063616e206e6f742066756e6420796f75722060008201527f6f776e2070726f6a656374000000000000000000000000000000000000000000602082015250565b60006109db602b836105ff565b91506109e68261097f565b604082019050919050565b60006020820190508181036000830152610a0a816109ce565b9050919050565b7f5468652070726f6a6563742063616e206e6f7420726563656976652066756e6460008201527f7300000000000000000000000000000000000000000000000000000000000000602082015250565b6000610a6d6021836105ff565b9150610a7882610a11565b604082019050919050565b60006020820190508181036000830152610a9c81610a60565b9050919050565b7f46756e642076616c7565206d7573742062652067726561746572207468616e2060008201527f3000000000000000000000000000000000000000000000000000000000000000602082015250565b6000610aff6021836105ff565b9150610b0a82610aa3565b604082019050919050565b60006020820190508181036000830152610b2e81610af2565b9050919050565b7f4e487b7100000000000000000000000000000000000000000000000000000000600052601160045260246000fd5b6000610b6f82610591565b9150610b7a83610591565b9250828201905080821115610b9257610b91610b35565b5b9291505056fea2646970667358221220d352d43300277ed1810c9450bb75f1409b62c29cce774d11af66e9e1699a516864736f6c63430008120033",
  "linkReferences": {},
  "deployedLinkReferences": {}
}