{
  "_format": "hh-sol-artifact-1",
  "contractName": "CrowdFunding",
  "sourceName": "contracts/CrowdFunding.sol",
  "abi": [
    {
      "anonymous": false,
      "inputs": [
        {
          "indexed": false,
          "internalType": "string",
          "name": "projectId",
          "type": "string"
        },
        {
          "indexed": false,
          "internalType": "string",
          "name": "name",
          "type": "string"
        },
        {
          "indexed": false,
          "internalType": "string",
          "name": "description",
          "type": "string"
        },
        {
          "indexed": false,
          "internalType": "uint256",
          "name": "fundraisingGoal",
          "type": "uint256"
        }
      ],
      "name": "ProjectCreated",
      "type": "event"
    },
    {
      "anonymous": false,
      "inputs": [
        {
          "indexed": false,
          "internalType": "string",
          "name": "projectId",
          "type": "string"
        },
        {
          "indexed": false,
          "internalType": "uint256",
          "name": "value",
          "type": "uint256"
        }
      ],
      "name": "ProjectFunded",
      "type": "event"
    },
    {
      "anonymous": false,
      "inputs": [
        {
          "indexed": false,
          "internalType": "string",
          "name": "projectId",
          "type": "string"
        },
        {
          "indexed": false,
          "internalType": "enum CrowdFunding.FundraisingState",
          "name": "state",
          "type": "uint8"
        }
      ],
      "name": "ProjectStateChanged",
      "type": "event"
    },
    {
      "inputs": [
        {
          "internalType": "uint256",
          "name": "projectIndex",
          "type": "uint256"
        },
        {
          "internalType": "enum CrowdFunding.FundraisingState",
          "name": "newState",
          "type": "uint8"
        }
      ],
      "name": "changeProjectState",
      "outputs": [],
      "stateMutability": "nonpayable",
      "type": "function"
    },
    {
      "inputs": [
        {
          "internalType": "string",
          "name": "",
          "type": "string"
        },
        {
          "internalType": "uint256",
          "name": "",
          "type": "uint256"
        }
      ],
      "name": "contributions",
      "outputs": [
        {
          "internalType": "address",
          "name": "contributor",
          "type": "address"
        },
        {
          "internalType": "uint256",
          "name": "value",
          "type": "uint256"
        }
      ],
      "stateMutability": "view",
      "type": "function"
    },
    {
      "inputs": [
        {
          "internalType": "string",
          "name": "_id",
          "type": "string"
        },
        {
          "internalType": "string",
          "name": "_name",
          "type": "string"
        },
        {
          "internalType": "string",
          "name": "_description",
          "type": "string"
        },
        {
          "internalType": "uint256",
          "name": "_fundraisingGoal",
          "type": "uint256"
        }
      ],
      "name": "createProject",
      "outputs": [],
      "stateMutability": "nonpayable",
      "type": "function"
    },
    {
      "inputs": [
        {
          "internalType": "uint256",
          "name": "projectIndex",
          "type": "uint256"
        }
      ],
      "name": "fundProject",
      "outputs": [],
      "stateMutability": "payable",
      "type": "function"
    },
    {
      "inputs": [],
      "name": "getAllProjects",
      "outputs": [
        {
          "components": [
            {
              "internalType": "string",
              "name": "id",
              "type": "string"
            },
            {
              "internalType": "string",
              "name": "name",
              "type": "string"
            },
            {
              "internalType": "string",
              "name": "description",
              "type": "string"
            },
            {
              "internalType": "address payable",
              "name": "author",
              "type": "address"
            },
            {
              "internalType": "enum CrowdFunding.FundraisingState",
              "name": "state",
              "type": "uint8"
            },
            {
              "internalType": "uint256",
              "name": "funds",
              "type": "uint256"
            },
            {
              "internalType": "uint256",
              "name": "fundraisingGoal",
              "type": "uint256"
            }
          ],
          "internalType": "struct CrowdFunding.Project[]",
          "name": "",
          "type": "tuple[]"
        }
      ],
      "stateMutability": "view",
      "type": "function"
    },
    {
      "inputs": [
        {
          "internalType": "uint256",
          "name": "",
          "type": "uint256"
        }
      ],
      "name": "projects",
      "outputs": [
        {
          "internalType": "string",
          "name": "id",
          "type": "string"
        },
        {
          "internalType": "string",
          "name": "name",
          "type": "string"
        },
        {
          "internalType": "string",
          "name": "description",
          "type": "string"
        },
        {
          "internalType": "address payable",
          "name": "author",
          "type": "address"
        },
        {
          "internalType": "enum CrowdFunding.FundraisingState",
          "name": "state",
          "type": "uint8"
        },
        {
          "internalType": "uint256",
          "name": "funds",
          "type": "uint256"
        },
        {
          "internalType": "uint256",
          "name": "fundraisingGoal",
          "type": "uint256"
        }
      ],
      "stateMutability": "view",
      "type": "function"
    }
  ],
  "bytecode": "0x608060405234801561001057600080fd5b506122b0806100206000396000f3fe6080604052600436106100555760003560e01c8063107046bd1461005a57806317e925d71461009d5780631ca73896146100c65780636c563abe146100ef5780637f3fcdd91461010b57806380d0382914610149575b600080fd5b34801561006657600080fd5b50610081600480360381019061007c9190611409565b610174565b604051610094979695949392919061158d565b60405180910390f35b3480156100a957600080fd5b506100c460048036038101906100bf9190611636565b61038b565b005b3480156100d257600080fd5b506100ed60048036038101906100e891906117ab565b61089a565b005b61010960048036038101906101049190611409565b610a40565b005b34801561011757600080fd5b50610132600480360381019061012d9190611866565b61108e565b6040516101409291906118e3565b60405180910390f35b34801561015557600080fd5b5061015e611105565b60405161016b9190611aef565b60405180910390f35b6000818154811061018457600080fd5b90600052602060002090600602016000915090508060000180546101a790611b40565b80601f01602080910402602001604051908101604052809291908181526020018280546101d390611b40565b80156102205780601f106101f557610100808354040283529160200191610220565b820191906000526020600020905b81548152906001019060200180831161020357829003601f168201915b50505050509080600101805461023590611b40565b80601f016020809104026020016040519081016040528092919081815260200182805461026190611b40565b80156102ae5780601f10610283576101008083540402835291602001916102ae565b820191906000526020600020905b81548152906001019060200180831161029157829003601f168201915b5050505050908060020180546102c390611b40565b80601f01602080910402602001604051908101604052809291908181526020018280546102ef90611b40565b801561033c5780601f106103115761010080835404028352916020019161033c565b820191906000526020600020905b81548152906001019060200180831161031f57829003601f168201915b5050505050908060030160009054906101000a900473ffffffffffffffffffffffffffffffffffffffff16908060030160149054906101000a900460ff16908060040154908060050154905087565b813373ffffffffffffffffffffffffffffffffffffffff16600082815481106103b7576103b6611b71565b5b906000526020600020906006020160030160009054906101000a900473ffffffffffffffffffffffffffffffffffffffff1673ffffffffffffffffffffffffffffffffffffffff161461043f576040517f08c379a000000000000000000000000000000000000000000000000000000000815260040161043690611c12565b60405180910390fd5b600080848154811061045457610453611b71565b5b90600052602060002090600602016040518060e001604052908160008201805461047d90611b40565b80601f01602080910402602001604051908101604052809291908181526020018280546104a990611b40565b80156104f65780601f106104cb576101008083540402835291602001916104f6565b820191906000526020600020905b8154815290600101906020018083116104d957829003601f168201915b5050505050815260200160018201805461050f90611b40565b80601f016020809104026020016040519081016040528092919081815260200182805461053b90611b40565b80156105885780601f1061055d57610100808354040283529160200191610588565b820191906000526020600020905b81548152906001019060200180831161056b57829003601f168201915b505050505081526020016002820180546105a190611b40565b80601f01602080910402602001604051908101604052809291908181526020018280546105cd90611b40565b801561061a5780601f106105ef5761010080835404028352916020019161061a565b820191906000526020600020905b8154815290600101906020018083116105fd57829003601f168201915b505050505081526020016003820160009054906101000a900473ffffffffffffffffffffffffffffffffffffffff1673ffffffffffffffffffffffffffffffffffffffff1673ffffffffffffffffffffffffffffffffffffffff1681526020016003820160149054906101000a900460ff16600181111561069e5761069d611507565b5b60018111156106b0576106af611507565b5b81526020016004820154815260200160058201548152505090508260018111156106dd576106dc611507565b5b816080015160018111156106f4576106f3611507565b5b03610734576040517f08c379a000000000000000000000000000000000000000000000000000000000815260040161072b90611c7e565b60405180910390fd5b828160800190600181111561074c5761074b611507565b5b908160018111156107605761075f611507565b5b81525050806000858154811061077957610778611b71565b5b9060005260206000209060060201600082015181600001908161079c9190611e4a565b5060208201518160010190816107b29190611e4a565b5060408201518160020190816107c89190611e4a565b5060608201518160030160006101000a81548173ffffffffffffffffffffffffffffffffffffffff021916908373ffffffffffffffffffffffffffffffffffffffff16021790555060808201518160030160146101000a81548160ff0219169083600181111561083b5761083a611507565b5b021790555060a0820151816004015560c082015181600501559050507fd63742463cd36bb1dedcfdcdedc4f9a6fdeaf7c80d9e702884e6b373ecb51f1d81600001518460405161088c929190611f1c565b60405180910390a150505050565b600081116108dd576040517f08c379a00000000000000000000000000000000000000000000000000000000081526004016108d490611fbe565b60405180910390fd5b60006040518060e001604052808681526020018581526020018481526020013373ffffffffffffffffffffffffffffffffffffffff1681526020016000600181111561092c5761092b611507565b5b8152602001600081526020018381525090506000819080600181540180825580915050600190039060005260206000209060060201600090919091909150600082015181600001908161097f9190611e4a565b5060208201518160010190816109959190611e4a565b5060408201518160020190816109ab9190611e4a565b5060608201518160030160006101000a81548173ffffffffffffffffffffffffffffffffffffffff021916908373ffffffffffffffffffffffffffffffffffffffff16021790555060808201518160030160146101000a81548160ff02191690836001811115610a1e57610a1d611507565b5b021790555060a0820151816004015560c0820151816005015550505050505050565b803373ffffffffffffffffffffffffffffffffffffffff1660008281548110610a6c57610a6b611b71565b5b906000526020600020906006020160030160009054906101000a900473ffffffffffffffffffffffffffffffffffffffff1673ffffffffffffffffffffffffffffffffffffffff1603610af4576040517f08c379a0000000000000000000000000000000000000000000000000000000008152600401610aeb90612050565b60405180910390fd5b6000808381548110610b0957610b08611b71565b5b90600052602060002090600602016040518060e0016040529081600082018054610b3290611b40565b80601f0160208091040260200160405190810160405280929190818152602001828054610b5e90611b40565b8015610bab5780601f10610b8057610100808354040283529160200191610bab565b820191906000526020600020905b815481529060010190602001808311610b8e57829003601f168201915b50505050508152602001600182018054610bc490611b40565b80601f0160208091040260200160405190810160405280929190818152602001828054610bf090611b40565b8015610c3d5780601f10610c1257610100808354040283529160200191610c3d565b820191906000526020600020905b815481529060010190602001808311610c2057829003601f168201915b50505050508152602001600282018054610c5690611b40565b80601f0160208091040260200160405190810160405280929190818152602001828054610c8290611b40565b8015610ccf5780601f10610ca457610100808354040283529160200191610ccf565b820191906000526020600020905b815481529060010190602001808311610cb257829003601f168201915b505050505081526020016003820160009054906101000a900473ffffffffffffffffffffffffffffffffffffffff1673ffffffffffffffffffffffffffffffffffffffff1673ffffffffffffffffffffffffffffffffffffffff1681526020016003820160149054906101000a900460ff166001811115610d5357610d52611507565b5b6001811115610d6557610d64611507565b5b8152602001600482015481526020016005820154815250509050600180811115610d9257610d91611507565b5b81608001516001811115610da957610da8611507565b5b03610de9576040517f08c379a0000000000000000000000000000000000000000000000000000000008152600401610de0906120e2565b60405180910390fd5b60003411610e2c576040517f08c379a0000000000000000000000000000000000000000000000000000000008152600401610e2390612174565b60405180910390fd5b806060015173ffffffffffffffffffffffffffffffffffffffff166108fc349081150290604051600060405180830381858888f19350505050158015610e76573d6000803e3d6000fd5b50348160a001818151610e8991906121c3565b915081815250508060008481548110610ea557610ea4611b71565b5b90600052602060002090600602016000820151816000019081610ec89190611e4a565b506020820151816001019081610ede9190611e4a565b506040820151816002019081610ef49190611e4a565b5060608201518160030160006101000a81548173ffffffffffffffffffffffffffffffffffffffff021916908373ffffffffffffffffffffffffffffffffffffffff16021790555060808201518160030160146101000a81548160ff02191690836001811115610f6757610f66611507565b5b021790555060a0820151816004015560c0820151816005015590505060018160000151604051610f979190612233565b908152602001604051809103902060405180604001604052803373ffffffffffffffffffffffffffffffffffffffff16815260200134815250908060018154018082558091505060019003906000526020600020906002020160009091909190915060008201518160000160006101000a81548173ffffffffffffffffffffffffffffffffffffffff021916908373ffffffffffffffffffffffffffffffffffffffff1602179055506020820151816001015550507f925c00924682e835f48a31e5b83cb323934f40a811c5a8f44a662915035033c681600001513460405161108192919061224a565b60405180910390a1505050565b60018280516020810182018051848252602083016020850120818352809550505050505081815481106110c057600080fd5b9060005260206000209060020201600091509150508060000160009054906101000a900473ffffffffffffffffffffffffffffffffffffffff16908060010154905082565b60606000805480602002602001604051908101604052809291908181526020016000905b828210156113b657838290600052602060002090600602016040518060e001604052908160008201805461115c90611b40565b80601f016020809104026020016040519081016040528092919081815260200182805461118890611b40565b80156111d55780601f106111aa576101008083540402835291602001916111d5565b820191906000526020600020905b8154815290600101906020018083116111b857829003601f168201915b505050505081526020016001820180546111ee90611b40565b80601f016020809104026020016040519081016040528092919081815260200182805461121a90611b40565b80156112675780601f1061123c57610100808354040283529160200191611267565b820191906000526020600020905b81548152906001019060200180831161124a57829003601f168201915b5050505050815260200160028201805461128090611b40565b80601f01602080910402602001604051908101604052809291908181526020018280546112ac90611b40565b80156112f95780601f106112ce576101008083540402835291602001916112f9565b820191906000526020600020905b8154815290600101906020018083116112dc57829003601f168201915b505050505081526020016003820160009054906101000a900473ffffffffffffffffffffffffffffffffffffffff1673ffffffffffffffffffffffffffffffffffffffff1673ffffffffffffffffffffffffffffffffffffffff1681526020016003820160149054906101000a900460ff16600181111561137d5761137c611507565b5b600181111561138f5761138e611507565b5b81526020016004820154815260200160058201548152505081526020019060010190611129565b50505050905090565b6000604051905090565b600080fd5b600080fd5b6000819050919050565b6113e6816113d3565b81146113f157600080fd5b50565b600081359050611403816113dd565b92915050565b60006020828403121561141f5761141e6113c9565b5b600061142d848285016113f4565b91505092915050565b600081519050919050565b600082825260208201905092915050565b60005b83811015611470578082015181840152602081019050611455565b60008484015250505050565b6000601f19601f8301169050919050565b600061149882611436565b6114a28185611441565b93506114b2818560208601611452565b6114bb8161147c565b840191505092915050565b600073ffffffffffffffffffffffffffffffffffffffff82169050919050565b60006114f1826114c6565b9050919050565b611501816114e6565b82525050565b7f4e487b7100000000000000000000000000000000000000000000000000000000600052602160045260246000fd5b6002811061154757611546611507565b5b50565b600081905061155882611536565b919050565b60006115688261154a565b9050919050565b6115788161155d565b82525050565b611587816113d3565b82525050565b600060e08201905081810360008301526115a7818a61148d565b905081810360208301526115bb818961148d565b905081810360408301526115cf818861148d565b90506115de60608301876114f8565b6115eb608083018661156f565b6115f860a083018561157e565b61160560c083018461157e565b98975050505050505050565b6002811061161e57600080fd5b50565b60008135905061163081611611565b92915050565b6000806040838503121561164d5761164c6113c9565b5b600061165b858286016113f4565b925050602061166c85828601611621565b9150509250929050565b600080fd5b600080fd5b7f4e487b7100000000000000000000000000000000000000000000000000000000600052604160045260246000fd5b6116b88261147c565b810181811067ffffffffffffffff821117156116d7576116d6611680565b5b80604052505050565b60006116ea6113bf565b90506116f682826116af565b919050565b600067ffffffffffffffff82111561171657611715611680565b5b61171f8261147c565b9050602081019050919050565b82818337600083830152505050565b600061174e611749846116fb565b6116e0565b90508281526020810184848401111561176a5761176961167b565b5b61177584828561172c565b509392505050565b600082601f83011261179257611791611676565b5b81356117a284826020860161173b565b91505092915050565b600080600080608085870312156117c5576117c46113c9565b5b600085013567ffffffffffffffff8111156117e3576117e26113ce565b5b6117ef8782880161177d565b945050602085013567ffffffffffffffff8111156118105761180f6113ce565b5b61181c8782880161177d565b935050604085013567ffffffffffffffff81111561183d5761183c6113ce565b5b6118498782880161177d565b925050606061185a878288016113f4565b91505092959194509250565b6000806040838503121561187d5761187c6113c9565b5b600083013567ffffffffffffffff81111561189b5761189a6113ce565b5b6118a78582860161177d565b92505060206118b8858286016113f4565b9150509250929050565b60006118cd826114c6565b9050919050565b6118dd816118c2565b82525050565b60006040820190506118f860008301856118d4565b611905602083018461157e565b9392505050565b600081519050919050565b600082825260208201905092915050565b6000819050602082019050919050565b600082825260208201905092915050565b600061195482611436565b61195e8185611938565b935061196e818560208601611452565b6119778161147c565b840191505092915050565b61198b816114e6565b82525050565b61199a8161155d565b82525050565b6119a9816113d3565b82525050565b600060e08301600083015184820360008601526119cc8282611949565b915050602083015184820360208601526119e68282611949565b91505060408301518482036040860152611a008282611949565b9150506060830151611a156060860182611982565b506080830151611a286080860182611991565b5060a0830151611a3b60a08601826119a0565b5060c0830151611a4e60c08601826119a0565b508091505092915050565b6000611a6583836119af565b905092915050565b6000602082019050919050565b6000611a858261190c565b611a8f8185611917565b935083602082028501611aa185611928565b8060005b85811015611add5784840389528151611abe8582611a59565b9450611ac983611a6d565b925060208a01995050600181019050611aa5565b50829750879550505050505092915050565b60006020820190508181036000830152611b098184611a7a565b905092915050565b7f4e487b7100000000000000000000000000000000000000000000000000000000600052602260045260246000fd5b60006002820490506001821680611b5857607f821691505b602082108103611b6b57611b6a611b11565b5b50919050565b7f4e487b7100000000000000000000000000000000000000000000000000000000600052603260045260246000fd5b7f596f75206e65656420746f206265207468652070726f6a65637420617574686f60008201527f7200000000000000000000000000000000000000000000000000000000000000602082015250565b6000611bfc602183611441565b9150611c0782611ba0565b604082019050919050565b60006020820190508181036000830152611c2b81611bef565b9050919050565b7f4e6577207374617465206d75737420626520646966666572656e740000000000600082015250565b6000611c68601b83611441565b9150611c7382611c32565b602082019050919050565b60006020820190508181036000830152611c9781611c5b565b9050919050565b60008190508160005260206000209050919050565b60006020601f8301049050919050565b600082821b905092915050565b600060088302611d007fffffffffffffffffffffffffffffffffffffffffffffffffffffffffffffffff82611cc3565b611d0a8683611cc3565b95508019841693508086168417925050509392505050565b6000819050919050565b6000611d47611d42611d3d846113d3565b611d22565b6113d3565b9050919050565b6000819050919050565b611d6183611d2c565b611d75611d6d82611d4e565b848454611cd0565b825550505050565b600090565b611d8a611d7d565b611d95818484611d58565b505050565b5b81811015611db957611dae600082611d82565b600181019050611d9b565b5050565b601f821115611dfe57611dcf81611c9e565b611dd884611cb3565b81016020851015611de7578190505b611dfb611df385611cb3565b830182611d9a565b50505b505050565b600082821c905092915050565b6000611e2160001984600802611e03565b1980831691505092915050565b6000611e3a8383611e10565b9150826002028217905092915050565b611e5382611436565b67ffffffffffffffff811115611e6c57611e6b611680565b5b611e768254611b40565b611e81828285611dbd565b600060209050601f831160018114611eb45760008415611ea2578287015190505b611eac8582611e2e565b865550611f14565b601f198416611ec286611c9e565b60005b82811015611eea57848901518255600182019150602085019450602081019050611ec5565b86831015611f075784890151611f03601f891682611e10565b8355505b6001600288020188555050505b505050505050565b60006040820190508181036000830152611f36818561148d565b9050611f45602083018461156f565b9392505050565b7f46756e6472616973696e6720676f616c206d757374206265206772656174657260008201527f207468616e203000000000000000000000000000000000000000000000000000602082015250565b6000611fa8602783611441565b9150611fb382611f4c565b604082019050919050565b60006020820190508181036000830152611fd781611f9b565b9050919050565b7f417320617574686f7220796f752063616e206e6f742066756e6420796f75722060008201527f6f776e2070726f6a656374000000000000000000000000000000000000000000602082015250565b600061203a602b83611441565b915061204582611fde565b604082019050919050565b600060208201905081810360008301526120698161202d565b9050919050565b7f5468652070726f6a6563742063616e206e6f7420726563656976652066756e6460008201527f7300000000000000000000000000000000000000000000000000000000000000602082015250565b60006120cc602183611441565b91506120d782612070565b604082019050919050565b600060208201905081810360008301526120fb816120bf565b9050919050565b7f46756e642076616c7565206d7573742062652067726561746572207468616e2060008201527f3000000000000000000000000000000000000000000000000000000000000000602082015250565b600061215e602183611441565b915061216982612102565b604082019050919050565b6000602082019050818103600083015261218d81612151565b9050919050565b7f4e487b7100000000000000000000000000000000000000000000000000000000600052601160045260246000fd5b60006121ce826113d3565b91506121d9836113d3565b92508282019050808211156121f1576121f0612194565b5b92915050565b600081905092915050565b600061220d82611436565b61221781856121f7565b9350612227818560208601611452565b80840191505092915050565b600061223f8284612202565b915081905092915050565b60006040820190508181036000830152612264818561148d565b9050612273602083018461157e565b939250505056fea26469706673582212209c7d70713ace30d592bbc92542067f81194bfdb0cefc18f201c134c806feaa6264736f6c63430008120033",
  "linkReferences": {},
  "deployedLinkReferences": {}
}