{
  "_format": "hh-sol-artifact-1",
  "contractName": "CrowdFunding",
  "sourceName": "contracts/CrowdFunding.sol",
  "abi": [
    {
      "inputs": [
        {
          "internalType": "string",
          "name": "_id",
          "type": "string"
        },
        {
          "internalType": "string",
          "name": "_name",
          "type": "string"
        },
        {
          "internalType": "string",
          "name": "_description",
          "type": "string"
        },
        {
          "internalType": "uint256",
          "name": "_fundraisingGoal",
          "type": "uint256"
        }
      ],
      "stateMutability": "nonpayable",
      "type": "constructor"
    },
    {
      "anonymous": false,
      "inputs": [
        {
          "indexed": false,
          "internalType": "string",
          "name": "projectId",
          "type": "string"
        },
        {
          "indexed": false,
          "internalType": "uint256",
          "name": "value",
          "type": "uint256"
        }
      ],
      "name": "ProjectFunded",
      "type": "event"
    },
    {
      "anonymous": false,
      "inputs": [
        {
          "indexed": false,
          "internalType": "string",
          "name": "projectId",
          "type": "string"
        },
        {
          "indexed": false,
          "internalType": "uint256",
          "name": "state",
          "type": "uint256"
        }
      ],
      "name": "ProjectStateChanged",
      "type": "event"
    },
    {
      "inputs": [],
      "name": "author",
      "outputs": [
        {
          "internalType": "address payable",
          "name": "",
          "type": "address"
        }
      ],
      "stateMutability": "view",
      "type": "function"
    },
    {
      "inputs": [
        {
          "internalType": "uint256",
          "name": "newState",
          "type": "uint256"
        }
      ],
      "name": "changeProjectState",
      "outputs": [],
      "stateMutability": "nonpayable",
      "type": "function"
    },
    {
      "inputs": [],
      "name": "description",
      "outputs": [
        {
          "internalType": "string",
          "name": "",
          "type": "string"
        }
      ],
      "stateMutability": "view",
      "type": "function"
    },
    {
      "inputs": [],
      "name": "fundProject",
      "outputs": [],
      "stateMutability": "payable",
      "type": "function"
    },
    {
      "inputs": [],
      "name": "fundraisingGoal",
      "outputs": [
        {
          "internalType": "uint256",
          "name": "",
          "type": "uint256"
        }
      ],
      "stateMutability": "view",
      "type": "function"
    },
    {
      "inputs": [],
      "name": "funds",
      "outputs": [
        {
          "internalType": "uint256",
          "name": "",
          "type": "uint256"
        }
      ],
      "stateMutability": "view",
      "type": "function"
    },
    {
      "inputs": [],
      "name": "id",
      "outputs": [
        {
          "internalType": "string",
          "name": "",
          "type": "string"
        }
      ],
      "stateMutability": "view",
      "type": "function"
    },
    {
      "inputs": [],
      "name": "name",
      "outputs": [
        {
          "internalType": "string",
          "name": "",
          "type": "string"
        }
      ],
      "stateMutability": "view",
      "type": "function"
    },
    {
      "inputs": [],
      "name": "state",
      "outputs": [
        {
          "internalType": "uint256",
          "name": "",
          "type": "uint256"
        }
      ],
      "stateMutability": "view",
      "type": "function"
    }
  ],
  "bytecode": "0x60806040523480156200001157600080fd5b50604051620013653803806200136583398181016040528101906200003791906200028d565b83600090816200004891906200059d565b5082600190816200005a91906200059d565b5081600290816200006c91906200059d565b508060068190555033600360006101000a81548173ffffffffffffffffffffffffffffffffffffffff021916908373ffffffffffffffffffffffffffffffffffffffff1602179055505050505062000684565b6000604051905090565b600080fd5b600080fd5b600080fd5b600080fd5b6000601f19601f8301169050919050565b7f4e487b7100000000000000000000000000000000000000000000000000000000600052604160045260246000fd5b6200012882620000dd565b810181811067ffffffffffffffff821117156200014a5762000149620000ee565b5b80604052505050565b60006200015f620000bf565b90506200016d82826200011d565b919050565b600067ffffffffffffffff82111562000190576200018f620000ee565b5b6200019b82620000dd565b9050602081019050919050565b60005b83811015620001c8578082015181840152602081019050620001ab565b60008484015250505050565b6000620001eb620001e58462000172565b62000153565b9050828152602081018484840111156200020a5762000209620000d8565b5b62000217848285620001a8565b509392505050565b600082601f830112620002375762000236620000d3565b5b815162000249848260208601620001d4565b91505092915050565b6000819050919050565b620002678162000252565b81146200027357600080fd5b50565b60008151905062000287816200025c565b92915050565b60008060008060808587031215620002aa57620002a9620000c9565b5b600085015167ffffffffffffffff811115620002cb57620002ca620000ce565b5b620002d9878288016200021f565b945050602085015167ffffffffffffffff811115620002fd57620002fc620000ce565b5b6200030b878288016200021f565b935050604085015167ffffffffffffffff8111156200032f576200032e620000ce565b5b6200033d878288016200021f565b9250506060620003508782880162000276565b91505092959194509250565b600081519050919050565b7f4e487b7100000000000000000000000000000000000000000000000000000000600052602260045260246000fd5b60006002820490506001821680620003af57607f821691505b602082108103620003c557620003c462000367565b5b50919050565b60008190508160005260206000209050919050565b60006020601f8301049050919050565b600082821b905092915050565b6000600883026200042f7fffffffffffffffffffffffffffffffffffffffffffffffffffffffffffffffff82620003f0565b6200043b8683620003f0565b95508019841693508086168417925050509392505050565b6000819050919050565b60006200047e62000478620004728462000252565b62000453565b62000252565b9050919050565b6000819050919050565b6200049a836200045d565b620004b2620004a98262000485565b848454620003fd565b825550505050565b600090565b620004c9620004ba565b620004d68184846200048f565b505050565b5b81811015620004fe57620004f2600082620004bf565b600181019050620004dc565b5050565b601f8211156200054d576200051781620003cb565b6200052284620003e0565b8101602085101562000532578190505b6200054a6200054185620003e0565b830182620004db565b50505b505050565b600082821c905092915050565b6000620005726000198460080262000552565b1980831691505092915050565b60006200058d83836200055f565b9150826002028217905092915050565b620005a8826200035c565b67ffffffffffffffff811115620005c457620005c3620000ee565b5b620005d0825462000396565b620005dd82828562000502565b600060209050601f83116001811462000615576000841562000600578287015190505b6200060c85826200057f565b8655506200067c565b601f1984166200062586620003cb565b60005b828110156200064f5784890151825560018201915060208501945060208101905062000628565b868310156200066f57848901516200066b601f8916826200055f565b8355505b6001600288020188555050505b505050505050565b610cd180620006946000396000f3fe6080604052600436106100865760003560e01c8063af640d0f11610059578063af640d0f14610137578063c19d93fb14610162578063c5f7e4f91461018d578063c89f2ce4146101b6578063d63dc661146101e157610086565b806306fdde031461008b5780637284e416146100b65780639e7b08d5146100e1578063a6c3e6b91461010c575b600080fd5b34801561009757600080fd5b506100a06101eb565b6040516100ad919061074b565b60405180910390f35b3480156100c257600080fd5b506100cb610279565b6040516100d8919061074b565b60405180910390f35b3480156100ed57600080fd5b506100f6610307565b6040516101039190610786565b60405180910390f35b34801561011857600080fd5b5061012161030d565b60405161012e91906107e2565b60405180910390f35b34801561014357600080fd5b5061014c610333565b604051610159919061074b565b60405180910390f35b34801561016e57600080fd5b506101776103c1565b6040516101849190610786565b60405180910390f35b34801561019957600080fd5b506101b460048036038101906101af919061082e565b6103c7565b005b3480156101c257600080fd5b506101cb6104df565b6040516101d89190610786565b60405180910390f35b6101e96104e5565b005b600180546101f89061088a565b80601f01602080910402602001604051908101604052809291908181526020018280546102249061088a565b80156102715780601f1061024657610100808354040283529160200191610271565b820191906000526020600020905b81548152906001019060200180831161025457829003601f168201915b505050505081565b600280546102869061088a565b80601f01602080910402602001604051908101604052809291908181526020018280546102b29061088a565b80156102ff5780601f106102d4576101008083540402835291602001916102ff565b820191906000526020600020905b8154815290600101906020018083116102e257829003601f168201915b505050505081565b60065481565b600360009054906101000a900473ffffffffffffffffffffffffffffffffffffffff1681565b600080546103409061088a565b80601f016020809104026020016040519081016040528092919081815260200182805461036c9061088a565b80156103b95780601f1061038e576101008083540402835291602001916103b9565b820191906000526020600020905b81548152906001019060200180831161039c57829003601f168201915b505050505081565b60045481565b3373ffffffffffffffffffffffffffffffffffffffff16600360009054906101000a900473ffffffffffffffffffffffffffffffffffffffff1673ffffffffffffffffffffffffffffffffffffffff1614610457576040517f08c379a000000000000000000000000000000000000000000000000000000000815260040161044e9061092d565b60405180910390fd5b806004540361049b576040517f08c379a000000000000000000000000000000000000000000000000000000000815260040161049290610999565b60405180910390fd5b806004819055507fdcda1d6be6147ca2428d0085d2987be6729c6a0f6d678bd00e1d88890003a97b6000826040516104d4929190610a52565b60405180910390a150565b60055481565b3373ffffffffffffffffffffffffffffffffffffffff16600360009054906101000a900473ffffffffffffffffffffffffffffffffffffffff1673ffffffffffffffffffffffffffffffffffffffff1603610575576040517f08c379a000000000000000000000000000000000000000000000000000000000815260040161056c90610af4565b60405180910390fd5b6001600454036105ba576040517f08c379a00000000000000000000000000000000000000000000000000000000081526004016105b190610b86565b60405180910390fd5b600034116105fd576040517f08c379a00000000000000000000000000000000000000000000000000000000081526004016105f490610c18565b60405180910390fd5b600360009054906101000a900473ffffffffffffffffffffffffffffffffffffffff1673ffffffffffffffffffffffffffffffffffffffff166108fc349081150290604051600060405180830381858888f19350505050158015610665573d6000803e3d6000fd5b5034600560008282546106789190610c67565b925050819055507f925c00924682e835f48a31e5b83cb323934f40a811c5a8f44a662915035033c66000346040516106b1929190610a52565b60405180910390a1565b600081519050919050565b600082825260208201905092915050565b60005b838110156106f55780820151818401526020810190506106da565b60008484015250505050565b6000601f19601f8301169050919050565b600061071d826106bb565b61072781856106c6565b93506107378185602086016106d7565b61074081610701565b840191505092915050565b600060208201905081810360008301526107658184610712565b905092915050565b6000819050919050565b6107808161076d565b82525050565b600060208201905061079b6000830184610777565b92915050565b600073ffffffffffffffffffffffffffffffffffffffff82169050919050565b60006107cc826107a1565b9050919050565b6107dc816107c1565b82525050565b60006020820190506107f760008301846107d3565b92915050565b600080fd5b61080b8161076d565b811461081657600080fd5b50565b60008135905061082881610802565b92915050565b600060208284031215610844576108436107fd565b5b600061085284828501610819565b91505092915050565b7f4e487b7100000000000000000000000000000000000000000000000000000000600052602260045260246000fd5b600060028204905060018216806108a257607f821691505b6020821081036108b5576108b461085b565b5b50919050565b7f596f75206e65656420746f206265207468652070726f6a65637420617574686f60008201527f7200000000000000000000000000000000000000000000000000000000000000602082015250565b60006109176021836106c6565b9150610922826108bb565b604082019050919050565b600060208201905081810360008301526109468161090a565b9050919050565b7f4e6577207374617465206d75737420626520646966666572656e740000000000600082015250565b6000610983601b836106c6565b915061098e8261094d565b602082019050919050565b600060208201905081810360008301526109b281610976565b9050919050565b60008190508160005260206000209050919050565b600081546109db8161088a565b6109e581866106c6565b94506001821660008114610a005760018114610a1657610a49565b60ff198316865281151560200286019350610a49565b610a1f856109b9565b60005b83811015610a4157815481890152600182019150602081019050610a22565b808801955050505b50505092915050565b60006040820190508181036000830152610a6c81856109ce565b9050610a7b6020830184610777565b9392505050565b7f417320617574686f7220796f752063616e206e6f742066756e6420796f75722060008201527f6f776e2070726f6a656374000000000000000000000000000000000000000000602082015250565b6000610ade602b836106c6565b9150610ae982610a82565b604082019050919050565b60006020820190508181036000830152610b0d81610ad1565b9050919050565b7f5468652070726f6a6563742063616e206e6f7420726563656976652066756e6460008201527f7300000000000000000000000000000000000000000000000000000000000000602082015250565b6000610b706021836106c6565b9150610b7b82610b14565b604082019050919050565b60006020820190508181036000830152610b9f81610b63565b9050919050565b7f46756e642076616c7565206d7573742062652067726561746572207468616e2060008201527f3000000000000000000000000000000000000000000000000000000000000000602082015250565b6000610c026021836106c6565b9150610c0d82610ba6565b604082019050919050565b60006020820190508181036000830152610c3181610bf5565b9050919050565b7f4e487b7100000000000000000000000000000000000000000000000000000000600052601160045260246000fd5b6000610c728261076d565b9150610c7d8361076d565b9250828201905080821115610c9557610c94610c38565b5b9291505056fea2646970667358221220ed79103cbd4b23b000b726ec2169c3b98ace8ce272ea4543f32b7d5aab54801e64736f6c63430008120033",
  "linkReferences": {},
  "deployedLinkReferences": {}
}