{
  "_format": "hh-sol-artifact-1",
  "contractName": "CrowdFunding",
  "sourceName": "contracts/CrowdFunding.sol",
  "abi": [
    {
      "inputs": [
        {
          "internalType": "string",
          "name": "_id",
          "type": "string"
        },
        {
          "internalType": "string",
          "name": "_name",
          "type": "string"
        },
        {
          "internalType": "string",
          "name": "_description",
          "type": "string"
        },
        {
          "internalType": "uint256",
          "name": "_fundraisingGoal",
          "type": "uint256"
        }
      ],
      "stateMutability": "nonpayable",
      "type": "constructor"
    },
    {
      "anonymous": false,
      "inputs": [
        {
          "indexed": false,
          "internalType": "string",
          "name": "projectId",
          "type": "string"
        },
        {
          "indexed": false,
          "internalType": "uint256",
          "name": "value",
          "type": "uint256"
        }
      ],
      "name": "ProjectFunded",
      "type": "event"
    },
    {
      "anonymous": false,
      "inputs": [
        {
          "indexed": false,
          "internalType": "string",
          "name": "projectId",
          "type": "string"
        },
        {
          "indexed": false,
          "internalType": "enum CrowdFunding.FundraisingState",
          "name": "state",
          "type": "uint8"
        }
      ],
      "name": "ProjectStateChanged",
      "type": "event"
    },
    {
      "inputs": [
        {
          "internalType": "enum CrowdFunding.FundraisingState",
          "name": "newState",
          "type": "uint8"
        }
      ],
      "name": "changeProjectState",
      "outputs": [],
      "stateMutability": "nonpayable",
      "type": "function"
    },
    {
      "inputs": [],
      "name": "fundProject",
      "outputs": [],
      "stateMutability": "payable",
      "type": "function"
    },
    {
      "inputs": [],
      "name": "project",
      "outputs": [
        {
          "internalType": "string",
          "name": "id",
          "type": "string"
        },
        {
          "internalType": "string",
          "name": "name",
          "type": "string"
        },
        {
          "internalType": "string",
          "name": "description",
          "type": "string"
        },
        {
          "internalType": "address payable",
          "name": "author",
          "type": "address"
        },
        {
          "internalType": "enum CrowdFunding.FundraisingState",
          "name": "state",
          "type": "uint8"
        },
        {
          "internalType": "uint256",
          "name": "funds",
          "type": "uint256"
        },
        {
          "internalType": "uint256",
          "name": "fundraisingGoal",
          "type": "uint256"
        }
      ],
      "stateMutability": "view",
      "type": "function"
    }
  ],
  "bytecode": "0x60806040523480156200001157600080fd5b506040516200147e3803806200147e833981810160405281019062000037919062000349565b6040518060e001604052808581526020018481526020018381526020013373ffffffffffffffffffffffffffffffffffffffff1681526020016000600181111562000087576200008662000418565b5b81526020016000815260200182815250600080820151816000019081620000af919062000688565b506020820151816001019081620000c7919062000688565b506040820151816002019081620000df919062000688565b5060608201518160030160006101000a81548173ffffffffffffffffffffffffffffffffffffffff021916908373ffffffffffffffffffffffffffffffffffffffff16021790555060808201518160030160146101000a81548160ff0219169083600181111562000155576200015462000418565b5b021790555060a0820151816004015560c08201518160050155905050505050506200076f565b6000604051905090565b600080fd5b600080fd5b600080fd5b600080fd5b6000601f19601f8301169050919050565b7f4e487b7100000000000000000000000000000000000000000000000000000000600052604160045260246000fd5b620001e48262000199565b810181811067ffffffffffffffff82111715620002065762000205620001aa565b5b80604052505050565b60006200021b6200017b565b9050620002298282620001d9565b919050565b600067ffffffffffffffff8211156200024c576200024b620001aa565b5b620002578262000199565b9050602081019050919050565b60005b838110156200028457808201518184015260208101905062000267565b60008484015250505050565b6000620002a7620002a1846200022e565b6200020f565b905082815260208101848484011115620002c657620002c562000194565b5b620002d384828562000264565b509392505050565b600082601f830112620002f357620002f26200018f565b5b81516200030584826020860162000290565b91505092915050565b6000819050919050565b62000323816200030e565b81146200032f57600080fd5b50565b600081519050620003438162000318565b92915050565b6000806000806080858703121562000366576200036562000185565b5b600085015167ffffffffffffffff8111156200038757620003866200018a565b5b6200039587828801620002db565b945050602085015167ffffffffffffffff811115620003b957620003b86200018a565b5b620003c787828801620002db565b935050604085015167ffffffffffffffff811115620003eb57620003ea6200018a565b5b620003f987828801620002db565b92505060606200040c8782880162000332565b91505092959194509250565b7f4e487b7100000000000000000000000000000000000000000000000000000000600052602160045260246000fd5b600081519050919050565b7f4e487b7100000000000000000000000000000000000000000000000000000000600052602260045260246000fd5b600060028204905060018216806200049a57607f821691505b602082108103620004b057620004af62000452565b5b50919050565b60008190508160005260206000209050919050565b60006020601f8301049050919050565b600082821b905092915050565b6000600883026200051a7fffffffffffffffffffffffffffffffffffffffffffffffffffffffffffffffff82620004db565b620005268683620004db565b95508019841693508086168417925050509392505050565b6000819050919050565b600062000569620005636200055d846200030e565b6200053e565b6200030e565b9050919050565b6000819050919050565b620005858362000548565b6200059d620005948262000570565b848454620004e8565b825550505050565b600090565b620005b4620005a5565b620005c18184846200057a565b505050565b5b81811015620005e957620005dd600082620005aa565b600181019050620005c7565b5050565b601f82111562000638576200060281620004b6565b6200060d84620004cb565b810160208510156200061d578190505b620006356200062c85620004cb565b830182620005c6565b50505b505050565b600082821c905092915050565b60006200065d600019846008026200063d565b1980831691505092915050565b60006200067883836200064a565b9150826002028217905092915050565b620006938262000447565b67ffffffffffffffff811115620006af57620006ae620001aa565b5b620006bb825462000481565b620006c8828285620005ed565b600060209050601f831160018114620007005760008415620006eb578287015190505b620006f785826200066a565b86555062000767565b601f1984166200071086620004b6565b60005b828110156200073a5784890151825560018201915060208501945060208101905062000713565b868310156200075a578489015162000756601f8916826200064a565b8355505b6001600288020188555050505b505050505050565b610cff806200077f6000396000f3fe6080604052600436106100345760003560e01c80635699fadc14610039578063d63dc66114610062578063f60ca60d1461006c575b600080fd5b34801561004557600080fd5b50610060600480360381019061005b9190610647565b61009d565b005b61006a610214565b005b34801561007857600080fd5b50610081610428565b60405161009497969594939291906107d5565b60405180910390f35b3373ffffffffffffffffffffffffffffffffffffffff16600060030160009054906101000a900473ffffffffffffffffffffffffffffffffffffffff1673ffffffffffffffffffffffffffffffffffffffff1614610130576040517f08c379a0000000000000000000000000000000000000000000000000000000008152600401610127906108cb565b60405180910390fd5b80600181111561014357610142610745565b5b600060030160149054906101000a900460ff16600181111561016857610167610745565b5b036101a8576040517f08c379a000000000000000000000000000000000000000000000000000000000815260040161019f90610937565b60405180910390fd5b80600060030160146101000a81548160ff021916908360018111156101d0576101cf610745565b5b02179055507fd63742463cd36bb1dedcfdcdedc4f9a6fdeaf7c80d9e702884e6b373ecb51f1d6000800182604051610209929190610a50565b60405180910390a150565b3373ffffffffffffffffffffffffffffffffffffffff16600060030160009054906101000a900473ffffffffffffffffffffffffffffffffffffffff1673ffffffffffffffffffffffffffffffffffffffff16036102a7576040517f08c379a000000000000000000000000000000000000000000000000000000000815260040161029e90610af2565b60405180910390fd5b6001808111156102ba576102b9610745565b5b600060030160149054906101000a900460ff1660018111156102df576102de610745565b5b0361031f576040517f08c379a000000000000000000000000000000000000000000000000000000000815260040161031690610b84565b60405180910390fd5b60003411610362576040517f08c379a000000000000000000000000000000000000000000000000000000000815260040161035990610c16565b60405180910390fd5b600060030160009054906101000a900473ffffffffffffffffffffffffffffffffffffffff1673ffffffffffffffffffffffffffffffffffffffff166108fc349081150290604051600060405180830381858888f193505050501580156103cd573d6000803e3d6000fd5b5034600060040160008282546103e39190610c65565b925050819055507f925c00924682e835f48a31e5b83cb323934f40a811c5a8f44a662915035033c6600080013460405161041e929190610c99565b60405180910390a1565b600080600001805461043990610986565b80601f016020809104026020016040519081016040528092919081815260200182805461046590610986565b80156104b25780601f10610487576101008083540402835291602001916104b2565b820191906000526020600020905b81548152906001019060200180831161049557829003601f168201915b5050505050908060010180546104c790610986565b80601f01602080910402602001604051908101604052809291908181526020018280546104f390610986565b80156105405780601f1061051557610100808354040283529160200191610540565b820191906000526020600020905b81548152906001019060200180831161052357829003601f168201915b50505050509080600201805461055590610986565b80601f016020809104026020016040519081016040528092919081815260200182805461058190610986565b80156105ce5780601f106105a3576101008083540402835291602001916105ce565b820191906000526020600020905b8154815290600101906020018083116105b157829003601f168201915b5050505050908060030160009054906101000a900473ffffffffffffffffffffffffffffffffffffffff16908060030160149054906101000a900460ff16908060040154908060050154905087565b600080fd5b6002811061062f57600080fd5b50565b60008135905061064181610622565b92915050565b60006020828403121561065d5761065c61061d565b5b600061066b84828501610632565b91505092915050565b600081519050919050565b600082825260208201905092915050565b60005b838110156106ae578082015181840152602081019050610693565b60008484015250505050565b6000601f19601f8301169050919050565b60006106d682610674565b6106e0818561067f565b93506106f0818560208601610690565b6106f9816106ba565b840191505092915050565b600073ffffffffffffffffffffffffffffffffffffffff82169050919050565b600061072f82610704565b9050919050565b61073f81610724565b82525050565b7f4e487b7100000000000000000000000000000000000000000000000000000000600052602160045260246000fd5b6002811061078557610784610745565b5b50565b600081905061079682610774565b919050565b60006107a682610788565b9050919050565b6107b68161079b565b82525050565b6000819050919050565b6107cf816107bc565b82525050565b600060e08201905081810360008301526107ef818a6106cb565b9050818103602083015261080381896106cb565b9050818103604083015261081781886106cb565b90506108266060830187610736565b61083360808301866107ad565b61084060a08301856107c6565b61084d60c08301846107c6565b98975050505050505050565b7f596f75206e65656420746f206265207468652070726f6a65637420617574686f60008201527f7200000000000000000000000000000000000000000000000000000000000000602082015250565b60006108b560218361067f565b91506108c082610859565b604082019050919050565b600060208201905081810360008301526108e4816108a8565b9050919050565b7f4e6577207374617465206d75737420626520646966666572656e740000000000600082015250565b6000610921601b8361067f565b915061092c826108eb565b602082019050919050565b6000602082019050818103600083015261095081610914565b9050919050565b7f4e487b7100000000000000000000000000000000000000000000000000000000600052602260045260246000fd5b6000600282049050600182168061099e57607f821691505b6020821081036109b1576109b0610957565b5b50919050565b60008190508160005260206000209050919050565b600081546109d981610986565b6109e3818661067f565b945060018216600081146109fe5760018114610a1457610a47565b60ff198316865281151560200286019350610a47565b610a1d856109b7565b60005b83811015610a3f57815481890152600182019150602081019050610a20565b808801955050505b50505092915050565b60006040820190508181036000830152610a6a81856109cc565b9050610a7960208301846107ad565b9392505050565b7f417320617574686f7220796f752063616e206e6f742066756e6420796f75722060008201527f6f776e2070726f6a656374000000000000000000000000000000000000000000602082015250565b6000610adc602b8361067f565b9150610ae782610a80565b604082019050919050565b60006020820190508181036000830152610b0b81610acf565b9050919050565b7f5468652070726f6a6563742063616e206e6f7420726563656976652066756e6460008201527f7300000000000000000000000000000000000000000000000000000000000000602082015250565b6000610b6e60218361067f565b9150610b7982610b12565b604082019050919050565b60006020820190508181036000830152610b9d81610b61565b9050919050565b7f46756e642076616c7565206d7573742062652067726561746572207468616e2060008201527f3000000000000000000000000000000000000000000000000000000000000000602082015250565b6000610c0060218361067f565b9150610c0b82610ba4565b604082019050919050565b60006020820190508181036000830152610c2f81610bf3565b9050919050565b7f4e487b7100000000000000000000000000000000000000000000000000000000600052601160045260246000fd5b6000610c70826107bc565b9150610c7b836107bc565b9250828201905080821115610c9357610c92610c36565b5b92915050565b60006040820190508181036000830152610cb381856109cc565b9050610cc260208301846107c6565b939250505056fea264697066735822122015c14eb6b576c336808e8ba18f3e84718873f87bec34cf3ff96b92b8689f45be64736f6c63430008120033",
  "linkReferences": {},
  "deployedLinkReferences": {}
}