{
  "_format": "hh-sol-artifact-1",
  "contractName": "CrowdFunding",
  "sourceName": "contracts/CrowdFunding.sol",
  "abi": [
    {
      "inputs": [
        {
          "internalType": "string",
          "name": "_id",
          "type": "string"
        },
        {
          "internalType": "string",
          "name": "_name",
          "type": "string"
        },
        {
          "internalType": "string",
          "name": "_description",
          "type": "string"
        },
        {
          "internalType": "uint256",
          "name": "_fundraisingGoal",
          "type": "uint256"
        }
      ],
      "stateMutability": "nonpayable",
      "type": "constructor"
    },
    {
      "anonymous": false,
      "inputs": [
        {
          "indexed": false,
          "internalType": "string",
          "name": "projectId",
          "type": "string"
        },
        {
          "indexed": false,
          "internalType": "uint256",
          "name": "value",
          "type": "uint256"
        }
      ],
      "name": "ProjectFunded",
      "type": "event"
    },
    {
      "anonymous": false,
      "inputs": [
        {
          "indexed": false,
          "internalType": "string",
          "name": "projectId",
          "type": "string"
        },
        {
          "indexed": false,
          "internalType": "string",
          "name": "state",
          "type": "string"
        }
      ],
      "name": "ProjectStateChanged",
      "type": "event"
    },
    {
      "inputs": [],
      "name": "author",
      "outputs": [
        {
          "internalType": "address payable",
          "name": "",
          "type": "address"
        }
      ],
      "stateMutability": "view",
      "type": "function"
    },
    {
      "inputs": [
        {
          "internalType": "string",
          "name": "newState",
          "type": "string"
        }
      ],
      "name": "changeProjectState",
      "outputs": [],
      "stateMutability": "nonpayable",
      "type": "function"
    },
    {
      "inputs": [],
      "name": "description",
      "outputs": [
        {
          "internalType": "string",
          "name": "",
          "type": "string"
        }
      ],
      "stateMutability": "view",
      "type": "function"
    },
    {
      "inputs": [],
      "name": "fundProject",
      "outputs": [],
      "stateMutability": "payable",
      "type": "function"
    },
    {
      "inputs": [],
      "name": "fundraisingGoal",
      "outputs": [
        {
          "internalType": "uint256",
          "name": "",
          "type": "uint256"
        }
      ],
      "stateMutability": "view",
      "type": "function"
    },
    {
      "inputs": [],
      "name": "funds",
      "outputs": [
        {
          "internalType": "uint256",
          "name": "",
          "type": "uint256"
        }
      ],
      "stateMutability": "view",
      "type": "function"
    },
    {
      "inputs": [],
      "name": "id",
      "outputs": [
        {
          "internalType": "string",
          "name": "",
          "type": "string"
        }
      ],
      "stateMutability": "view",
      "type": "function"
    },
    {
      "inputs": [],
      "name": "name",
      "outputs": [
        {
          "internalType": "string",
          "name": "",
          "type": "string"
        }
      ],
      "stateMutability": "view",
      "type": "function"
    },
    {
      "inputs": [],
      "name": "state",
      "outputs": [
        {
          "internalType": "string",
          "name": "",
          "type": "string"
        }
      ],
      "stateMutability": "view",
      "type": "function"
    }
  ],
  "bytecode": "0x60806040526040518060400160405280600681526020017f4f70656e65640000000000000000000000000000000000000000000000000000815250600490816200004a919062000380565b503480156200005857600080fd5b506040516200155a3803806200155a83398181016040528101906200007e9190620005fc565b83600090816200008f919062000380565b508260019081620000a1919062000380565b508160029081620000b3919062000380565b508060068190555033600360006101000a81548173ffffffffffffffffffffffffffffffffffffffff021916908373ffffffffffffffffffffffffffffffffffffffff16021790555050505050620006cb565b600081519050919050565b7f4e487b7100000000000000000000000000000000000000000000000000000000600052604160045260246000fd5b7f4e487b7100000000000000000000000000000000000000000000000000000000600052602260045260246000fd5b600060028204905060018216806200018857607f821691505b6020821081036200019e576200019d62000140565b5b50919050565b60008190508160005260206000209050919050565b60006020601f8301049050919050565b600082821b905092915050565b600060088302620002087fffffffffffffffffffffffffffffffffffffffffffffffffffffffffffffffff82620001c9565b620002148683620001c9565b95508019841693508086168417925050509392505050565b6000819050919050565b6000819050919050565b6000620002616200025b62000255846200022c565b62000236565b6200022c565b9050919050565b6000819050919050565b6200027d8362000240565b620002956200028c8262000268565b848454620001d6565b825550505050565b600090565b620002ac6200029d565b620002b981848462000272565b505050565b5b81811015620002e157620002d5600082620002a2565b600181019050620002bf565b5050565b601f8211156200033057620002fa81620001a4565b6200030584620001b9565b8101602085101562000315578190505b6200032d6200032485620001b9565b830182620002be565b50505b505050565b600082821c905092915050565b6000620003556000198460080262000335565b1980831691505092915050565b600062000370838362000342565b9150826002028217905092915050565b6200038b8262000106565b67ffffffffffffffff811115620003a757620003a662000111565b5b620003b382546200016f565b620003c0828285620002e5565b600060209050601f831160018114620003f85760008415620003e3578287015190505b620003ef858262000362565b8655506200045f565b601f1984166200040886620001a4565b60005b8281101562000432578489015182556001820191506020850194506020810190506200040b565b868310156200045257848901516200044e601f89168262000342565b8355505b6001600288020188555050505b505050505050565b6000604051905090565b600080fd5b600080fd5b600080fd5b600080fd5b6000601f19601f8301169050919050565b620004a18262000485565b810181811067ffffffffffffffff82111715620004c357620004c262000111565b5b80604052505050565b6000620004d862000467565b9050620004e6828262000496565b919050565b600067ffffffffffffffff82111562000509576200050862000111565b5b620005148262000485565b9050602081019050919050565b60005b838110156200054157808201518184015260208101905062000524565b60008484015250505050565b6000620005646200055e84620004eb565b620004cc565b90508281526020810184848401111562000583576200058262000480565b5b6200059084828562000521565b509392505050565b600082601f830112620005b057620005af6200047b565b5b8151620005c28482602086016200054d565b91505092915050565b620005d6816200022c565b8114620005e257600080fd5b50565b600081519050620005f681620005cb565b92915050565b6000806000806080858703121562000619576200061862000471565b5b600085015167ffffffffffffffff8111156200063a576200063962000476565b5b620006488782880162000598565b945050602085015167ffffffffffffffff8111156200066c576200066b62000476565b5b6200067a8782880162000598565b935050604085015167ffffffffffffffff8111156200069e576200069d62000476565b5b620006ac8782880162000598565b9250506060620006bf87828801620005e5565b91505092959194509250565b610e7f80620006db6000396000f3fe6080604052600436106100865760003560e01c8063af640d0f11610059578063af640d0f14610137578063b767050d14610162578063c19d93fb1461018b578063c89f2ce4146101b6578063d63dc661146101e157610086565b806306fdde031461008b5780637284e416146100b65780639e7b08d5146100e1578063a6c3e6b91461010c575b600080fd5b34801561009757600080fd5b506100a06101eb565b6040516100ad9190610715565b60405180910390f35b3480156100c257600080fd5b506100cb610279565b6040516100d89190610715565b60405180910390f35b3480156100ed57600080fd5b506100f6610307565b6040516101039190610750565b60405180910390f35b34801561011857600080fd5b5061012161030d565b60405161012e91906107ac565b60405180910390f35b34801561014357600080fd5b5061014c610333565b6040516101599190610715565b60405180910390f35b34801561016e57600080fd5b5061018960048036038101906101849190610836565b6103c1565b005b34801561019757600080fd5b506101a06104a3565b6040516101ad9190610715565b60405180910390f35b3480156101c257600080fd5b506101cb610531565b6040516101d89190610750565b60405180910390f35b6101e9610537565b005b600180546101f8906108b2565b80601f0160208091040260200160405190810160405280929190818152602001828054610224906108b2565b80156102715780601f1061024657610100808354040283529160200191610271565b820191906000526020600020905b81548152906001019060200180831161025457829003601f168201915b505050505081565b60028054610286906108b2565b80601f01602080910402602001604051908101604052809291908181526020018280546102b2906108b2565b80156102ff5780601f106102d4576101008083540402835291602001916102ff565b820191906000526020600020905b8154815290600101906020018083116102e257829003601f168201915b505050505081565b60065481565b600360009054906101000a900473ffffffffffffffffffffffffffffffffffffffff1681565b60008054610340906108b2565b80601f016020809104026020016040519081016040528092919081815260200182805461036c906108b2565b80156103b95780601f1061038e576101008083540402835291602001916103b9565b820191906000526020600020905b81548152906001019060200180831161039c57829003601f168201915b505050505081565b3373ffffffffffffffffffffffffffffffffffffffff16600360009054906101000a900473ffffffffffffffffffffffffffffffffffffffff1673ffffffffffffffffffffffffffffffffffffffff1614610451576040517f08c379a000000000000000000000000000000000000000000000000000000000815260040161044890610955565b60405180910390fd5b818160049182610462929190610b5b565b507f1bef70a18185328210f7b8cc166c868397812fd89b3e7312515e90afdbb9020c6000838360405161049793929190610ceb565b60405180910390a15050565b600480546104b0906108b2565b80601f01602080910402602001604051908101604052809291908181526020018280546104dc906108b2565b80156105295780601f106104fe57610100808354040283529160200191610529565b820191906000526020600020905b81548152906001019060200180831161050c57829003601f168201915b505050505081565b60055481565b3373ffffffffffffffffffffffffffffffffffffffff16600360009054906101000a900473ffffffffffffffffffffffffffffffffffffffff1673ffffffffffffffffffffffffffffffffffffffff16036105c7576040517f08c379a00000000000000000000000000000000000000000000000000000000081526004016105be90610d96565b60405180910390fd5b600360009054906101000a900473ffffffffffffffffffffffffffffffffffffffff1673ffffffffffffffffffffffffffffffffffffffff166108fc349081150290604051600060405180830381858888f1935050505015801561062f573d6000803e3d6000fd5b5034600560008282546106429190610de5565b925050819055507f925c00924682e835f48a31e5b83cb323934f40a811c5a8f44a662915035033c660003460405161067b929190610e19565b60405180910390a1565b600081519050919050565b600082825260208201905092915050565b60005b838110156106bf5780820151818401526020810190506106a4565b60008484015250505050565b6000601f19601f8301169050919050565b60006106e782610685565b6106f18185610690565b93506107018185602086016106a1565b61070a816106cb565b840191505092915050565b6000602082019050818103600083015261072f81846106dc565b905092915050565b6000819050919050565b61074a81610737565b82525050565b60006020820190506107656000830184610741565b92915050565b600073ffffffffffffffffffffffffffffffffffffffff82169050919050565b60006107968261076b565b9050919050565b6107a68161078b565b82525050565b60006020820190506107c1600083018461079d565b92915050565b600080fd5b600080fd5b600080fd5b600080fd5b600080fd5b60008083601f8401126107f6576107f56107d1565b5b8235905067ffffffffffffffff811115610813576108126107d6565b5b60208301915083600182028301111561082f5761082e6107db565b5b9250929050565b6000806020838503121561084d5761084c6107c7565b5b600083013567ffffffffffffffff81111561086b5761086a6107cc565b5b610877858286016107e0565b92509250509250929050565b7f4e487b7100000000000000000000000000000000000000000000000000000000600052602260045260246000fd5b600060028204905060018216806108ca57607f821691505b6020821081036108dd576108dc610883565b5b50919050565b7f596f75206e65656420746f206265207468652070726f6a65637420617574686f60008201527f7200000000000000000000000000000000000000000000000000000000000000602082015250565b600061093f602183610690565b915061094a826108e3565b604082019050919050565b6000602082019050818103600083015261096e81610932565b9050919050565b600082905092915050565b7f4e487b7100000000000000000000000000000000000000000000000000000000600052604160045260246000fd5b60008190508160005260206000209050919050565b60006020601f8301049050919050565b600082821b905092915050565b600060088302610a117fffffffffffffffffffffffffffffffffffffffffffffffffffffffffffffffff826109d4565b610a1b86836109d4565b95508019841693508086168417925050509392505050565b6000819050919050565b6000610a58610a53610a4e84610737565b610a33565b610737565b9050919050565b6000819050919050565b610a7283610a3d565b610a86610a7e82610a5f565b8484546109e1565b825550505050565b600090565b610a9b610a8e565b610aa6818484610a69565b505050565b5b81811015610aca57610abf600082610a93565b600181019050610aac565b5050565b601f821115610b0f57610ae0816109af565b610ae9846109c4565b81016020851015610af8578190505b610b0c610b04856109c4565b830182610aab565b50505b505050565b600082821c905092915050565b6000610b3260001984600802610b14565b1980831691505092915050565b6000610b4b8383610b21565b9150826002028217905092915050565b610b658383610975565b67ffffffffffffffff811115610b7e57610b7d610980565b5b610b8882546108b2565b610b93828285610ace565b6000601f831160018114610bc25760008415610bb0578287013590505b610bba8582610b3f565b865550610c22565b601f198416610bd0866109af565b60005b82811015610bf857848901358255600182019150602085019450602081019050610bd3565b86831015610c155784890135610c11601f891682610b21565b8355505b6001600288020188555050505b50505050505050565b60008154610c38816108b2565b610c428186610690565b94506001821660008114610c5d5760018114610c7357610ca6565b60ff198316865281151560200286019350610ca6565b610c7c856109af565b60005b83811015610c9e57815481890152600182019150602081019050610c7f565b808801955050505b50505092915050565b82818337600083830152505050565b6000610cca8385610690565b9350610cd7838584610caf565b610ce0836106cb565b840190509392505050565b60006040820190508181036000830152610d058186610c2b565b90508181036020830152610d1a818486610cbe565b9050949350505050565b7f417320617574686f7220796f752063616e206e6f742066756e6420796f75722060008201527f6f776e2070726f6a656374000000000000000000000000000000000000000000602082015250565b6000610d80602b83610690565b9150610d8b82610d24565b604082019050919050565b60006020820190508181036000830152610daf81610d73565b9050919050565b7f4e487b7100000000000000000000000000000000000000000000000000000000600052601160045260246000fd5b6000610df082610737565b9150610dfb83610737565b9250828201905080821115610e1357610e12610db6565b5b92915050565b60006040820190508181036000830152610e338185610c2b565b9050610e426020830184610741565b939250505056fea2646970667358221220f3f9e9089075f3ac7adcf861b4a36fd39ffa00665eaed9a2b8de066ba539132b64736f6c63430008120033",
  "linkReferences": {},
  "deployedLinkReferences": {}
}